{"abi":[{"inputs":[{"internalType":"uint256","name":"minimum","type":"uint256"},{"internalType":"address","name":"creator","type":"address"}],"stateMutability":"nonpayable","type":"constructor"},{"inputs":[{"internalType":"uint256","name":"index","type":"uint256"}],"name":"approveRequest","outputs":[],"stateMutability":"nonpayable","type":"function"},{"inputs":[{"internalType":"address","name":"","type":"address"}],"name":"approvers","outputs":[{"internalType":"bool","name":"","type":"bool"}],"stateMutability":"view","type":"function"},{"inputs":[],"name":"approversCount","outputs":[{"internalType":"uint256","name":"","type":"uint256"}],"stateMutability":"view","type":"function"},{"inputs":[],"name":"contribute","outputs":[],"stateMutability":"payable","type":"function"},{"inputs":[{"internalType":"string","name":"description","type":"string"},{"internalType":"uint256","name":"value","type":"uint256"},{"internalType":"address payable","name":"recipient","type":"address"}],"name":"createRequest","outputs":[],"stateMutability":"nonpayable","type":"function"},{"inputs":[{"internalType":"uint256","name":"i","type":"uint256"}],"name":"finalizeRequest","outputs":[],"stateMutability":"nonpayable","type":"function"},{"inputs":[],"name":"manager","outputs":[{"internalType":"address","name":"","type":"address"}],"stateMutability":"view","type":"function"},{"inputs":[],"name":"minimumContribution","outputs":[{"internalType":"uint256","name":"","type":"uint256"}],"stateMutability":"view","type":"function"},{"inputs":[{"internalType":"uint256","name":"","type":"uint256"}],"name":"requests","outputs":[{"internalType":"string","name":"description","type":"string"},{"internalType":"uint256","name":"value","type":"uint256"},{"internalType":"address payable","name":"recipient","type":"address"},{"internalType":"bool","name":"complete","type":"bool"},{"internalType":"uint256","name":"approvalCount","type":"uint256"}],"stateMutability":"view","type":"function"}],"devdoc":{"kind":"dev","methods":{},"version":1},"evm":{"assembly":"    /* \"Crowdfunding.sol\":495:2946  contract Crowdfunding {... */\n  mstore(0x40, 0x80)\n    /* \"Crowdfunding.sol\":1025:1147  constructor(uint256 minimum, address creator) {... */\n  callvalue\n  dup1\n  iszero\n  tag_1\n  jumpi\n  0x00\n  dup1\n  revert\ntag_1:\n  pop\n  mload(0x40)\n  sub(codesize, bytecodeSize)\n  dup1\n  bytecodeSize\n  dup4\n  codecopy\n  dup2\n  dup2\n  add\n  0x40\n  mstore\n  dup2\n  add\n  swap1\n  tag_2\n  swap2\n  swap1\n  tag_3\n  jump\t// in\ntag_2:\n    /* \"Crowdfunding.sol\":1092:1099  creator */\n  dup1\n    /* \"Crowdfunding.sol\":1082:1089  manager */\n  0x01\n  0x00\n    /* \"Crowdfunding.sol\":1082:1099  manager = creator */\n  0x0100\n  exp\n  dup2\n  sload\n  dup2\n  0xffffffffffffffffffffffffffffffffffffffff\n  mul\n  not\n  and\n  swap1\n  dup4\n  0xffffffffffffffffffffffffffffffffffffffff\n  and\n  mul\n  or\n  swap1\n  sstore\n  pop\n    /* \"Crowdfunding.sol\":1132:1139  minimum */\n  dup2\n    /* \"Crowdfunding.sol\":1110:1129  minimumContribution */\n  0x02\n    /* \"Crowdfunding.sol\":1110:1139  minimumContribution = minimum */\n  dup2\n  swap1\n  sstore\n  pop\n    /* \"Crowdfunding.sol\":1025:1147  constructor(uint256 minimum, address creator) {... */\n  pop\n  pop\n    /* \"Crowdfunding.sol\":495:2946  contract Crowdfunding {... */\n  jump(tag_6)\n    /* \"#utility.yul\":88:205   */\ntag_8:\n    /* \"#utility.yul\":197:198   */\n  0x00\n    /* \"#utility.yul\":194:195   */\n  dup1\n    /* \"#utility.yul\":187:199   */\n  revert\n    /* \"#utility.yul\":334:411   */\ntag_10:\n    /* \"#utility.yul\":371:378   */\n  0x00\n    /* \"#utility.yul\":400:405   */\n  dup2\n    /* \"#utility.yul\":389:405   */\n  swap1\n  pop\n    /* \"#utility.yul\":334:411   */\n  swap2\n  swap1\n  pop\n  jump\t// out\n    /* \"#utility.yul\":417:539   */\ntag_11:\n    /* \"#utility.yul\":490:514   */\n  tag_23\n    /* \"#utility.yul\":508:513   */\n  dup2\n    /* \"#utility.yul\":490:514   */\n  tag_10\n  jump\t// in\ntag_23:\n    /* \"#utility.yul\":483:488   */\n  dup2\n    /* \"#utility.yul\":480:515   */\n  eq\n    /* \"#utility.yul\":470:533   */\n  tag_24\n  jumpi\n    /* \"#utility.yul\":529:530   */\n  0x00\n    /* \"#utility.yul\":526:527   */\n  dup1\n    /* \"#utility.yul\":519:531   */\n  revert\n    /* \"#utility.yul\":470:533   */\ntag_24:\n    /* \"#utility.yul\":417:539   */\n  pop\n  jump\t// out\n    /* \"#utility.yul\":545:688   */\ntag_12:\n    /* \"#utility.yul\":602:607   */\n  0x00\n    /* \"#utility.yul\":633:639   */\n  dup2\n    /* \"#utility.yul\":627:640   */\n  mload\n    /* \"#utility.yul\":618:640   */\n  swap1\n  pop\n    /* \"#utility.yul\":649:682   */\n  tag_26\n    /* \"#utility.yul\":676:681   */\n  dup2\n    /* \"#utility.yul\":649:682   */\n  tag_11\n  jump\t// in\ntag_26:\n    /* \"#utility.yul\":545:688   */\n  swap3\n  swap2\n  pop\n  pop\n  jump\t// out\n    /* \"#utility.yul\":694:820   */\ntag_13:\n    /* \"#utility.yul\":731:738   */\n  0x00\n    /* \"#utility.yul\":771:813   */\n  0xffffffffffffffffffffffffffffffffffffffff\n    /* \"#utility.yul\":764:769   */\n  dup3\n    /* \"#utility.yul\":760:814   */\n  and\n    /* \"#utility.yul\":749:814   */\n  swap1\n  pop\n    /* \"#utility.yul\":694:820   */\n  swap2\n  swap1\n  pop\n  jump\t// out\n    /* \"#utility.yul\":826:922   */\ntag_14:\n    /* \"#utility.yul\":863:870   */\n  0x00\n    /* \"#utility.yul\":892:916   */\n  tag_29\n    /* \"#utility.yul\":910:915   */\n  dup3\n    /* \"#utility.yul\":892:916   */\n  tag_13\n  jump\t// in\ntag_29:\n    /* \"#utility.yul\":881:916   */\n  swap1\n  pop\n    /* \"#utility.yul\":826:922   */\n  swap2\n  swap1\n  pop\n  jump\t// out\n    /* \"#utility.yul\":928:1050   */\ntag_15:\n    /* \"#utility.yul\":1001:1025   */\n  tag_31\n    /* \"#utility.yul\":1019:1024   */\n  dup2\n    /* \"#utility.yul\":1001:1025   */\n  tag_14\n  jump\t// in\ntag_31:\n    /* \"#utility.yul\":994:999   */\n  dup2\n    /* \"#utility.yul\":991:1026   */\n  eq\n    /* \"#utility.yul\":981:1044   */\n  tag_32\n  jumpi\n    /* \"#utility.yul\":1040:1041   */\n  0x00\n    /* \"#utility.yul\":1037:1038   */\n  dup1\n    /* \"#utility.yul\":1030:1042   */\n  revert\n    /* \"#utility.yul\":981:1044   */\ntag_32:\n    /* \"#utility.yul\":928:1050   */\n  pop\n  jump\t// out\n    /* \"#utility.yul\":1056:1199   */\ntag_16:\n    /* \"#utility.yul\":1113:1118   */\n  0x00\n    /* \"#utility.yul\":1144:1150   */\n  dup2\n    /* \"#utility.yul\":1138:1151   */\n  mload\n    /* \"#utility.yul\":1129:1151   */\n  swap1\n  pop\n    /* \"#utility.yul\":1160:1193   */\n  tag_34\n    /* \"#utility.yul\":1187:1192   */\n  dup2\n    /* \"#utility.yul\":1160:1193   */\n  tag_15\n  jump\t// in\ntag_34:\n    /* \"#utility.yul\":1056:1199   */\n  swap3\n  swap2\n  pop\n  pop\n  jump\t// out\n    /* \"#utility.yul\":1205:1712   */\ntag_3:\n    /* \"#utility.yul\":1284:1290   */\n  0x00\n    /* \"#utility.yul\":1292:1298   */\n  dup1\n    /* \"#utility.yul\":1341:1343   */\n  0x40\n    /* \"#utility.yul\":1329:1338   */\n  dup4\n    /* \"#utility.yul\":1320:1327   */\n  dup6\n    /* \"#utility.yul\":1316:1339   */\n  sub\n    /* \"#utility.yul\":1312:1344   */\n  slt\n    /* \"#utility.yul\":1309:1428   */\n  iszero\n  tag_36\n  jumpi\n    /* \"#utility.yul\":1347:1426   */\n  tag_37\n  tag_8\n  jump\t// in\ntag_37:\n    /* \"#utility.yul\":1309:1428   */\ntag_36:\n    /* \"#utility.yul\":1467:1468   */\n  0x00\n    /* \"#utility.yul\":1492:1556   */\n  tag_38\n    /* \"#utility.yul\":1548:1555   */\n  dup6\n    /* \"#utility.yul\":1539:1545   */\n  dup3\n    /* \"#utility.yul\":1528:1537   */\n  dup7\n    /* \"#utility.yul\":1524:1546   */\n  add\n    /* \"#utility.yul\":1492:1556   */\n  tag_12\n  jump\t// in\ntag_38:\n    /* \"#utility.yul\":1482:1556   */\n  swap3\n  pop\n    /* \"#utility.yul\":1438:1566   */\n  pop\n    /* \"#utility.yul\":1605:1607   */\n  0x20\n    /* \"#utility.yul\":1631:1695   */\n  tag_39\n    /* \"#utility.yul\":1687:1694   */\n  dup6\n    /* \"#utility.yul\":1678:1684   */\n  dup3\n    /* \"#utility.yul\":1667:1676   */\n  dup7\n    /* \"#utility.yul\":1663:1685   */\n  add\n    /* \"#utility.yul\":1631:1695   */\n  tag_16\n  jump\t// in\ntag_39:\n    /* \"#utility.yul\":1621:1695   */\n  swap2\n  pop\n    /* \"#utility.yul\":1576:1705   */\n  pop\n    /* \"#utility.yul\":1205:1712   */\n  swap3\n  pop\n  swap3\n  swap1\n  pop\n  jump\t// out\n    /* \"Crowdfunding.sol\":495:2946  contract Crowdfunding {... */\ntag_6:\n  dataSize(sub_0)\n  dup1\n  dataOffset(sub_0)\n  0x00\n  codecopy\n  0x00\n  return\nstop\n\nsub_0: assembly {\n        /* \"Crowdfunding.sol\":495:2946  contract Crowdfunding {... */\n      mstore(0x40, 0x80)\n      jumpi(tag_1, lt(calldatasize, 0x04))\n      shr(0xe0, calldataload(0x00))\n      dup1\n      0x82fde093\n      gt\n      tag_11\n      jumpi\n      dup1\n      0x82fde093\n      eq\n      tag_6\n      jumpi\n      dup1\n      0x8a9cfd55\n      eq\n      tag_7\n      jumpi\n      dup1\n      0x937e09b1\n      eq\n      tag_8\n      jumpi\n      dup1\n      0xd7bb99ba\n      eq\n      tag_9\n      jumpi\n      dup1\n      0xd7d1bbdb\n      eq\n      tag_10\n      jumpi\n      jump(tag_1)\n    tag_11:\n      dup1\n      0x03441006\n      eq\n      tag_2\n      jumpi\n      dup1\n      0x0a144391\n      eq\n      tag_3\n      jumpi\n      dup1\n      0x481c6a75\n      eq\n      tag_4\n      jumpi\n      dup1\n      0x81d12c58\n      eq\n      tag_5\n      jumpi\n    tag_1:\n      0x00\n      dup1\n      revert\n        /* \"Crowdfunding.sol\":2536:2943  function finalizeRequest(uint256 i) public onlyToManager {... */\n    tag_2:\n      callvalue\n      dup1\n      iszero\n      tag_12\n      jumpi\n      0x00\n      dup1\n      revert\n    tag_12:\n      pop\n      tag_13\n      0x04\n      dup1\n      calldatasize\n      sub\n      dup2\n      add\n      swap1\n      tag_14\n      swap2\n      swap1\n      tag_15\n      jump\t// in\n    tag_14:\n      tag_16\n      jump\t// in\n    tag_13:\n      stop\n        /* \"Crowdfunding.sol\":847:889  mapping (address => bool) public approvers */\n    tag_3:\n      callvalue\n      dup1\n      iszero\n      tag_17\n      jumpi\n      0x00\n      dup1\n      revert\n    tag_17:\n      pop\n      tag_18\n      0x04\n      dup1\n      calldatasize\n      sub\n      dup2\n      add\n      swap1\n      tag_19\n      swap2\n      swap1\n      tag_20\n      jump\t// in\n    tag_19:\n      tag_21\n      jump\t// in\n    tag_18:\n      mload(0x40)\n      tag_22\n      swap2\n      swap1\n      tag_23\n      jump\t// in\n    tag_22:\n      mload(0x40)\n      dup1\n      swap2\n      sub\n      swap1\n      return\n        /* \"Crowdfunding.sol\":777:799  address public manager */\n    tag_4:\n      callvalue\n      dup1\n      iszero\n      tag_24\n      jumpi\n      0x00\n      dup1\n      revert\n    tag_24:\n      pop\n      tag_25\n      tag_26\n      jump\t// in\n    tag_25:\n      mload(0x40)\n      tag_27\n      swap2\n      swap1\n      tag_28\n      jump\t// in\n    tag_27:\n      mload(0x40)\n      dup1\n      swap2\n      sub\n      swap1\n      return\n        /* \"Crowdfunding.sol\":745:770  Request[] public requests */\n    tag_5:\n      callvalue\n      dup1\n      iszero\n      tag_29\n      jumpi\n      0x00\n      dup1\n      revert\n    tag_29:\n      pop\n      tag_30\n      0x04\n      dup1\n      calldatasize\n      sub\n      dup2\n      add\n      swap1\n      tag_31\n      swap2\n      swap1\n      tag_15\n      jump\t// in\n    tag_31:\n      tag_32\n      jump\t// in\n    tag_30:\n      mload(0x40)\n      tag_33\n      swap6\n      swap5\n      swap4\n      swap3\n      swap2\n      swap1\n      tag_34\n      jump\t// in\n    tag_33:\n      mload(0x40)\n      dup1\n      swap2\n      sub\n      swap1\n      return\n        /* \"Crowdfunding.sol\":896:922  uint public approversCount */\n    tag_6:\n      callvalue\n      dup1\n      iszero\n      tag_35\n      jumpi\n      0x00\n      dup1\n      revert\n    tag_35:\n      pop\n      tag_36\n      tag_37\n      jump\t// in\n    tag_36:\n      mload(0x40)\n      tag_38\n      swap2\n      swap1\n      tag_39\n      jump\t// in\n    tag_38:\n      mload(0x40)\n      dup1\n      swap2\n      sub\n      swap1\n      return\n        /* \"Crowdfunding.sol\":1327:2240  function createRequest(... */\n    tag_7:\n      callvalue\n      dup1\n      iszero\n      tag_40\n      jumpi\n      0x00\n      dup1\n      revert\n    tag_40:\n      pop\n      tag_41\n      0x04\n      dup1\n      calldatasize\n      sub\n      dup2\n      add\n      swap1\n      tag_42\n      swap2\n      swap1\n      tag_43\n      jump\t// in\n    tag_42:\n      tag_44\n      jump\t// in\n    tag_41:\n      stop\n        /* \"Crowdfunding.sol\":806:840  uint256 public minimumContribution */\n    tag_8:\n      callvalue\n      dup1\n      iszero\n      tag_45\n      jumpi\n      0x00\n      dup1\n      revert\n    tag_45:\n      pop\n      tag_46\n      tag_47\n      jump\t// in\n    tag_46:\n      mload(0x40)\n      tag_48\n      swap2\n      swap1\n      tag_39\n      jump\t// in\n    tag_48:\n      mload(0x40)\n      dup1\n      swap2\n      sub\n      swap1\n      return\n        /* \"Crowdfunding.sol\":1155:1319  function contribute() public payable {... */\n    tag_9:\n      tag_49\n      tag_50\n      jump\t// in\n    tag_49:\n      stop\n        /* \"Crowdfunding.sol\":2248:2528  function approveRequest(uint256 index) public {... */\n    tag_10:\n      callvalue\n      dup1\n      iszero\n      tag_51\n      jumpi\n      0x00\n      dup1\n      revert\n    tag_51:\n      pop\n      tag_52\n      0x04\n      dup1\n      calldatasize\n      sub\n      dup2\n      add\n      swap1\n      tag_53\n      swap2\n      swap1\n      tag_15\n      jump\t// in\n    tag_53:\n      tag_54\n      jump\t// in\n    tag_52:\n      stop\n        /* \"Crowdfunding.sol\":2536:2943  function finalizeRequest(uint256 i) public onlyToManager {... */\n    tag_16:\n        /* \"Crowdfunding.sol\":989:996  manager */\n      0x01\n      0x00\n      swap1\n      sload\n      swap1\n      0x0100\n      exp\n      swap1\n      div\n      0xffffffffffffffffffffffffffffffffffffffff\n      and\n        /* \"Crowdfunding.sol\":975:996  msg.sender == manager */\n      0xffffffffffffffffffffffffffffffffffffffff\n      and\n        /* \"Crowdfunding.sol\":975:985  msg.sender */\n      caller\n        /* \"Crowdfunding.sol\":975:996  msg.sender == manager */\n      0xffffffffffffffffffffffffffffffffffffffff\n      and\n      eq\n        /* \"Crowdfunding.sol\":967:997  require(msg.sender == manager) */\n      tag_56\n      jumpi\n      0x00\n      dup1\n      revert\n    tag_56:\n        /* \"Crowdfunding.sol\":2604:2627  Request storage request */\n      0x00\n        /* \"Crowdfunding.sol\":2630:2638  requests */\n      dup1\n        /* \"Crowdfunding.sol\":2639:2640  i */\n      dup3\n        /* \"Crowdfunding.sol\":2630:2641  requests[i] */\n      dup2\n      sload\n      dup2\n      lt\n      tag_58\n      jumpi\n      tag_59\n      tag_60\n      jump\t// in\n    tag_59:\n    tag_58:\n      swap1\n      0x00\n      mstore\n      keccak256(0x00, 0x20)\n      swap1\n      0x05\n      mul\n      add\n        /* \"Crowdfunding.sol\":2604:2641  Request storage request = requests[i] */\n      swap1\n      pop\n        /* \"Crowdfunding.sol\":2807:2808  2 */\n      0x02\n        /* \"Crowdfunding.sol\":2790:2804  approversCount */\n      sload(0x04)\n        /* \"Crowdfunding.sol\":2790:2808  approversCount / 2 */\n      tag_62\n      swap2\n      swap1\n      tag_63\n      jump\t// in\n    tag_62:\n        /* \"Crowdfunding.sol\":2765:2772  request */\n      dup2\n        /* \"Crowdfunding.sol\":2765:2786  request.approvalCount */\n      0x03\n      add\n      sload\n        /* \"Crowdfunding.sol\":2765:2809  request.approvalCount > (approversCount / 2) */\n      gt\n        /* \"Crowdfunding.sol\":2757:2810  require(request.approvalCount > (approversCount / 2)) */\n      tag_64\n      jumpi\n      0x00\n      dup1\n      revert\n    tag_64:\n        /* \"Crowdfunding.sol\":2830:2837  request */\n      dup1\n        /* \"Crowdfunding.sol\":2830:2846  request.complete */\n      0x02\n      add\n      0x14\n      swap1\n      sload\n      swap1\n      0x0100\n      exp\n      swap1\n      div\n      0xff\n      and\n        /* \"Crowdfunding.sol\":2829:2846  !request.complete */\n      iszero\n        /* \"Crowdfunding.sol\":2821:2847  require(!request.complete) */\n      tag_65\n      jumpi\n      0x00\n      dup1\n      revert\n    tag_65:\n        /* \"Crowdfunding.sol\":2860:2867  request */\n      dup1\n        /* \"Crowdfunding.sol\":2860:2877  request.recipient */\n      0x02\n      add\n      0x00\n      swap1\n      sload\n      swap1\n      0x0100\n      exp\n      swap1\n      div\n      0xffffffffffffffffffffffffffffffffffffffff\n      and\n        /* \"Crowdfunding.sol\":2860:2886  request.recipient.transfer */\n      0xffffffffffffffffffffffffffffffffffffffff\n      and\n        /* \"Crowdfunding.sol\":2860:2901  request.recipient.transfer(request.value) */\n      0x08fc\n        /* \"Crowdfunding.sol\":2887:2894  request */\n      dup3\n        /* \"Crowdfunding.sol\":2887:2900  request.value */\n      0x01\n      add\n      sload\n        /* \"Crowdfunding.sol\":2860:2901  request.recipient.transfer(request.value) */\n      swap1\n      dup2\n      iszero\n      mul\n      swap1\n      mload(0x40)\n      0x00\n      mload(0x40)\n      dup1\n      dup4\n      sub\n      dup2\n      dup6\n      dup9\n      dup9\n      call\n      swap4\n      pop\n      pop\n      pop\n      pop\n      iszero\n      dup1\n      iszero\n      tag_67\n      jumpi\n      returndatasize\n      0x00\n      dup1\n      returndatacopy\n      revert(0x00, returndatasize)\n    tag_67:\n      pop\n        /* \"Crowdfunding.sol\":2931:2935  true */\n      0x01\n        /* \"Crowdfunding.sol\":2912:2919  request */\n      dup2\n        /* \"Crowdfunding.sol\":2912:2928  request.complete */\n      0x02\n      add\n      0x14\n        /* \"Crowdfunding.sol\":2912:2935  request.complete = true */\n      0x0100\n      exp\n      dup2\n      sload\n      dup2\n      0xff\n      mul\n      not\n      and\n      swap1\n      dup4\n      iszero\n      iszero\n      mul\n      or\n      swap1\n      sstore\n      pop\n        /* \"Crowdfunding.sol\":2593:2943  {... */\n      pop\n        /* \"Crowdfunding.sol\":2536:2943  function finalizeRequest(uint256 i) public onlyToManager {... */\n      pop\n      jump\t// out\n        /* \"Crowdfunding.sol\":847:889  mapping (address => bool) public approvers */\n    tag_21:\n      mstore(0x20, 0x03)\n      dup1\n      0x00\n      mstore\n      keccak256(0x00, 0x40)\n      0x00\n      swap2\n      pop\n      sload\n      swap1\n      0x0100\n      exp\n      swap1\n      div\n      0xff\n      and\n      dup2\n      jump\t// out\n        /* \"Crowdfunding.sol\":777:799  address public manager */\n    tag_26:\n      0x01\n      0x00\n      swap1\n      sload\n      swap1\n      0x0100\n      exp\n      swap1\n      div\n      0xffffffffffffffffffffffffffffffffffffffff\n      and\n      dup2\n      jump\t// out\n        /* \"Crowdfunding.sol\":745:770  Request[] public requests */\n    tag_32:\n      0x00\n      dup2\n      dup2\n      sload\n      dup2\n      lt\n      tag_68\n      jumpi\n      0x00\n      dup1\n      revert\n    tag_68:\n      swap1\n      0x00\n      mstore\n      keccak256(0x00, 0x20)\n      swap1\n      0x05\n      mul\n      add\n      0x00\n      swap2\n      pop\n      swap1\n      pop\n      dup1\n      0x00\n      add\n      dup1\n      sload\n      tag_70\n      swap1\n      tag_71\n      jump\t// in\n    tag_70:\n      dup1\n      0x1f\n      add\n      0x20\n      dup1\n      swap2\n      div\n      mul\n      0x20\n      add\n      mload(0x40)\n      swap1\n      dup2\n      add\n      0x40\n      mstore\n      dup1\n      swap3\n      swap2\n      swap1\n      dup2\n      dup2\n      mstore\n      0x20\n      add\n      dup3\n      dup1\n      sload\n      tag_72\n      swap1\n      tag_71\n      jump\t// in\n    tag_72:\n      dup1\n      iszero\n      tag_73\n      jumpi\n      dup1\n      0x1f\n      lt\n      tag_74\n      jumpi\n      0x0100\n      dup1\n      dup4\n      sload\n      div\n      mul\n      dup4\n      mstore\n      swap2\n      0x20\n      add\n      swap2\n      jump(tag_73)\n    tag_74:\n      dup3\n      add\n      swap2\n      swap1\n      0x00\n      mstore\n      keccak256(0x00, 0x20)\n      swap1\n    tag_75:\n      dup2\n      sload\n      dup2\n      mstore\n      swap1\n      0x01\n      add\n      swap1\n      0x20\n      add\n      dup1\n      dup4\n      gt\n      tag_75\n      jumpi\n      dup3\n      swap1\n      sub\n      0x1f\n      and\n      dup3\n      add\n      swap2\n    tag_73:\n      pop\n      pop\n      pop\n      pop\n      pop\n      swap1\n      dup1\n      0x01\n      add\n      sload\n      swap1\n      dup1\n      0x02\n      add\n      0x00\n      swap1\n      sload\n      swap1\n      0x0100\n      exp\n      swap1\n      div\n      0xffffffffffffffffffffffffffffffffffffffff\n      and\n      swap1\n      dup1\n      0x02\n      add\n      0x14\n      swap1\n      sload\n      swap1\n      0x0100\n      exp\n      swap1\n      div\n      0xff\n      and\n      swap1\n      dup1\n      0x03\n      add\n      sload\n      swap1\n      pop\n      dup6\n      jump\t// out\n        /* \"Crowdfunding.sol\":896:922  uint public approversCount */\n    tag_37:\n      sload(0x04)\n      dup2\n      jump\t// out\n        /* \"Crowdfunding.sol\":1327:2240  function createRequest(... */\n    tag_44:\n        /* \"Crowdfunding.sol\":989:996  manager */\n      0x01\n      0x00\n      swap1\n      sload\n      swap1\n      0x0100\n      exp\n      swap1\n      div\n      0xffffffffffffffffffffffffffffffffffffffff\n      and\n        /* \"Crowdfunding.sol\":975:996  msg.sender == manager */\n      0xffffffffffffffffffffffffffffffffffffffff\n      and\n        /* \"Crowdfunding.sol\":975:985  msg.sender */\n      caller\n        /* \"Crowdfunding.sol\":975:996  msg.sender == manager */\n      0xffffffffffffffffffffffffffffffffffffffff\n      and\n      eq\n        /* \"Crowdfunding.sol\":967:997  require(msg.sender == manager) */\n      tag_77\n      jumpi\n      0x00\n      dup1\n      revert\n    tag_77:\n        /* \"Crowdfunding.sol\":1900:1914  uint256 _index */\n      0x00\n        /* \"Crowdfunding.sol\":1917:1925  requests */\n      dup1\n        /* \"Crowdfunding.sol\":1917:1932  requests.length */\n      dup1\n      sload\n      swap1\n      pop\n        /* \"Crowdfunding.sol\":1900:1932  uint256 _index = requests.length */\n      swap1\n      pop\n        /* \"Crowdfunding.sol\":1943:1962  Request[] storage r */\n      0x00\n        /* \"Crowdfunding.sol\":1984:1985  r */\n      dup1\n        /* \"Crowdfunding.sol\":1984:1992  r.push() */\n      0x01\n      dup2\n      0x01\n      dup2\n      sload\n      add\n      dup1\n      dup3\n      sstore\n      dup1\n      swap2\n      pop\n      pop\n      sub\n      swap1\n      0x00\n      mstore\n      keccak256(0x00, 0x20)\n      swap1\n      pop\n      pop\n        /* \"Crowdfunding.sol\":2029:2040  description */\n      dup5\n        /* \"Crowdfunding.sol\":2005:2006  r */\n      dup2\n        /* \"Crowdfunding.sol\":2007:2013  _index */\n      dup4\n        /* \"Crowdfunding.sol\":2005:2014  r[_index] */\n      dup2\n      sload\n      dup2\n      lt\n      tag_80\n      jumpi\n      tag_81\n      tag_60\n      jump\t// in\n    tag_81:\n    tag_80:\n      swap1\n      0x00\n      mstore\n      keccak256(0x00, 0x20)\n      swap1\n      0x05\n      mul\n      add\n        /* \"Crowdfunding.sol\":2005:2026  r[_index].description */\n      0x00\n      add\n        /* \"Crowdfunding.sol\":2005:2040  r[_index].description = description */\n      swap1\n      dup2\n      tag_83\n      swap2\n      swap1\n      tag_84\n      jump\t// in\n    tag_83:\n      pop\n        /* \"Crowdfunding.sol\":2069:2074  value */\n      dup4\n        /* \"Crowdfunding.sol\":2051:2052  r */\n      dup2\n        /* \"Crowdfunding.sol\":2053:2059  _index */\n      dup4\n        /* \"Crowdfunding.sol\":2051:2060  r[_index] */\n      dup2\n      sload\n      dup2\n      lt\n      tag_85\n      jumpi\n      tag_86\n      tag_60\n      jump\t// in\n    tag_86:\n    tag_85:\n      swap1\n      0x00\n      mstore\n      keccak256(0x00, 0x20)\n      swap1\n      0x05\n      mul\n      add\n        /* \"Crowdfunding.sol\":2051:2066  r[_index].value */\n      0x01\n      add\n        /* \"Crowdfunding.sol\":2051:2074  r[_index].value = value */\n      dup2\n      swap1\n      sstore\n      pop\n        /* \"Crowdfunding.sol\":2107:2116  recipient */\n      dup3\n        /* \"Crowdfunding.sol\":2085:2086  r */\n      dup2\n        /* \"Crowdfunding.sol\":2087:2093  _index */\n      dup4\n        /* \"Crowdfunding.sol\":2085:2094  r[_index] */\n      dup2\n      sload\n      dup2\n      lt\n      tag_88\n      jumpi\n      tag_89\n      tag_60\n      jump\t// in\n    tag_89:\n    tag_88:\n      swap1\n      0x00\n      mstore\n      keccak256(0x00, 0x20)\n      swap1\n      0x05\n      mul\n      add\n        /* \"Crowdfunding.sol\":2085:2104  r[_index].recipient */\n      0x02\n      add\n      0x00\n        /* \"Crowdfunding.sol\":2085:2116  r[_index].recipient = recipient */\n      0x0100\n      exp\n      dup2\n      sload\n      dup2\n      0xffffffffffffffffffffffffffffffffffffffff\n      mul\n      not\n      and\n      swap1\n      dup4\n      0xffffffffffffffffffffffffffffffffffffffff\n      and\n      mul\n      or\n      swap1\n      sstore\n      pop\n        /* \"Crowdfunding.sol\":2148:2153  false */\n      0x00\n        /* \"Crowdfunding.sol\":2127:2128  r */\n      dup2\n        /* \"Crowdfunding.sol\":2129:2135  _index */\n      dup4\n        /* \"Crowdfunding.sol\":2127:2136  r[_index] */\n      dup2\n      sload\n      dup2\n      lt\n      tag_91\n      jumpi\n      tag_92\n      tag_60\n      jump\t// in\n    tag_92:\n    tag_91:\n      swap1\n      0x00\n      mstore\n      keccak256(0x00, 0x20)\n      swap1\n      0x05\n      mul\n      add\n        /* \"Crowdfunding.sol\":2127:2145  r[_index].complete */\n      0x02\n      add\n      0x14\n        /* \"Crowdfunding.sol\":2127:2153  r[_index].complete = false */\n      0x0100\n      exp\n      dup2\n      sload\n      dup2\n      0xff\n      mul\n      not\n      and\n      swap1\n      dup4\n      iszero\n      iszero\n      mul\n      or\n      swap1\n      sstore\n      pop\n        /* \"Crowdfunding.sol\":2190:2191  0 */\n      0x00\n        /* \"Crowdfunding.sol\":2164:2165  r */\n      dup2\n        /* \"Crowdfunding.sol\":2166:2172  _index */\n      dup4\n        /* \"Crowdfunding.sol\":2164:2173  r[_index] */\n      dup2\n      sload\n      dup2\n      lt\n      tag_94\n      jumpi\n      tag_95\n      tag_60\n      jump\t// in\n    tag_95:\n    tag_94:\n      swap1\n      0x00\n      mstore\n      keccak256(0x00, 0x20)\n      swap1\n      0x05\n      mul\n      add\n        /* \"Crowdfunding.sol\":2164:2187  r[_index].approvalCount */\n      0x03\n      add\n        /* \"Crowdfunding.sol\":2164:2191  r[_index].approvalCount = 0 */\n      dup2\n      swap1\n      sstore\n      pop\n        /* \"Crowdfunding.sol\":1474:2240  {... */\n      pop\n      pop\n        /* \"Crowdfunding.sol\":1327:2240  function createRequest(... */\n      pop\n      pop\n      pop\n      jump\t// out\n        /* \"Crowdfunding.sol\":806:840  uint256 public minimumContribution */\n    tag_47:\n      sload(0x02)\n      dup2\n      jump\t// out\n        /* \"Crowdfunding.sol\":1155:1319  function contribute() public payable {... */\n    tag_50:\n        /* \"Crowdfunding.sol\":1223:1242  minimumContribution */\n      sload(0x02)\n        /* \"Crowdfunding.sol\":1211:1220  msg.value */\n      callvalue\n        /* \"Crowdfunding.sol\":1211:1242  msg.value > minimumContribution */\n      gt\n        /* \"Crowdfunding.sol\":1203:1243  require(msg.value > minimumContribution) */\n      tag_98\n      jumpi\n      0x00\n      dup1\n      revert\n    tag_98:\n        /* \"Crowdfunding.sol\":1280:1284  true */\n      0x01\n        /* \"Crowdfunding.sol\":1256:1265  approvers */\n      0x03\n        /* \"Crowdfunding.sol\":1256:1277  approvers[msg.sender] */\n      0x00\n        /* \"Crowdfunding.sol\":1266:1276  msg.sender */\n      caller\n        /* \"Crowdfunding.sol\":1256:1277  approvers[msg.sender] */\n      0xffffffffffffffffffffffffffffffffffffffff\n      and\n      0xffffffffffffffffffffffffffffffffffffffff\n      and\n      dup2\n      mstore\n      0x20\n      add\n      swap1\n      dup2\n      mstore\n      0x20\n      add\n      0x00\n      keccak256\n      0x00\n        /* \"Crowdfunding.sol\":1256:1284  approvers[msg.sender] = true */\n      0x0100\n      exp\n      dup2\n      sload\n      dup2\n      0xff\n      mul\n      not\n      and\n      swap1\n      dup4\n      iszero\n      iszero\n      mul\n      or\n      swap1\n      sstore\n      pop\n        /* \"Crowdfunding.sol\":1295:1309  approversCount */\n      0x04\n      0x00\n        /* \"Crowdfunding.sol\":1295:1311  approversCount++ */\n      dup2\n      sload\n      dup1\n      swap3\n      swap2\n      swap1\n      tag_99\n      swap1\n      tag_100\n      jump\t// in\n    tag_99:\n      swap2\n      swap1\n      pop\n      sstore\n      pop\n        /* \"Crowdfunding.sol\":1155:1319  function contribute() public payable {... */\n      jump\t// out\n        /* \"Crowdfunding.sol\":2248:2528  function approveRequest(uint256 index) public {... */\n    tag_54:\n        /* \"Crowdfunding.sol\":2305:2328  Request storage request */\n      0x00\n        /* \"Crowdfunding.sol\":2331:2339  requests */\n      dup1\n        /* \"Crowdfunding.sol\":2340:2345  index */\n      dup3\n        /* \"Crowdfunding.sol\":2331:2346  requests[index] */\n      dup2\n      sload\n      dup2\n      lt\n      tag_102\n      jumpi\n      tag_103\n      tag_60\n      jump\t// in\n    tag_103:\n    tag_102:\n      swap1\n      0x00\n      mstore\n      keccak256(0x00, 0x20)\n      swap1\n      0x05\n      mul\n      add\n        /* \"Crowdfunding.sol\":2305:2346  Request storage request = requests[index] */\n      swap1\n      pop\n        /* \"Crowdfunding.sol\":2365:2374  approvers */\n      0x03\n        /* \"Crowdfunding.sol\":2365:2386  approvers[msg.sender] */\n      0x00\n        /* \"Crowdfunding.sol\":2375:2385  msg.sender */\n      caller\n        /* \"Crowdfunding.sol\":2365:2386  approvers[msg.sender] */\n      0xffffffffffffffffffffffffffffffffffffffff\n      and\n      0xffffffffffffffffffffffffffffffffffffffff\n      and\n      dup2\n      mstore\n      0x20\n      add\n      swap1\n      dup2\n      mstore\n      0x20\n      add\n      0x00\n      keccak256\n      0x00\n      swap1\n      sload\n      swap1\n      0x0100\n      exp\n      swap1\n      div\n      0xff\n      and\n        /* \"Crowdfunding.sol\":2357:2387  require(approvers[msg.sender]) */\n      tag_105\n      jumpi\n      0x00\n      dup1\n      revert\n    tag_105:\n        /* \"Crowdfunding.sol\":2407:2414  request */\n      dup1\n        /* \"Crowdfunding.sol\":2407:2424  request.approvals */\n      0x04\n      add\n        /* \"Crowdfunding.sol\":2407:2436  request.approvals[msg.sender] */\n      0x00\n        /* \"Crowdfunding.sol\":2425:2435  msg.sender */\n      caller\n        /* \"Crowdfunding.sol\":2407:2436  request.approvals[msg.sender] */\n      0xffffffffffffffffffffffffffffffffffffffff\n      and\n      0xffffffffffffffffffffffffffffffffffffffff\n      and\n      dup2\n      mstore\n      0x20\n      add\n      swap1\n      dup2\n      mstore\n      0x20\n      add\n      0x00\n      keccak256\n      0x00\n      swap1\n      sload\n      swap1\n      0x0100\n      exp\n      swap1\n      div\n      0xff\n      and\n        /* \"Crowdfunding.sol\":2406:2436  !request.approvals[msg.sender] */\n      iszero\n        /* \"Crowdfunding.sol\":2398:2437  require(!request.approvals[msg.sender]) */\n      tag_106\n      jumpi\n      0x00\n      dup1\n      revert\n    tag_106:\n        /* \"Crowdfunding.sol\":2482:2486  true */\n      0x01\n        /* \"Crowdfunding.sol\":2450:2457  request */\n      dup2\n        /* \"Crowdfunding.sol\":2450:2467  request.approvals */\n      0x04\n      add\n        /* \"Crowdfunding.sol\":2450:2479  request.approvals[msg.sender] */\n      0x00\n        /* \"Crowdfunding.sol\":2468:2478  msg.sender */\n      caller\n        /* \"Crowdfunding.sol\":2450:2479  request.approvals[msg.sender] */\n      0xffffffffffffffffffffffffffffffffffffffff\n      and\n      0xffffffffffffffffffffffffffffffffffffffff\n      and\n      dup2\n      mstore\n      0x20\n      add\n      swap1\n      dup2\n      mstore\n      0x20\n      add\n      0x00\n      keccak256\n      0x00\n        /* \"Crowdfunding.sol\":2450:2486  request.approvals[msg.sender] = true */\n      0x0100\n      exp\n      dup2\n      sload\n      dup2\n      0xff\n      mul\n      not\n      and\n      swap1\n      dup4\n      iszero\n      iszero\n      mul\n      or\n      swap1\n      sstore\n      pop\n        /* \"Crowdfunding.sol\":2497:2504  request */\n      dup1\n        /* \"Crowdfunding.sol\":2497:2518  request.approvalCount */\n      0x03\n      add\n      0x00\n        /* \"Crowdfunding.sol\":2497:2520  request.approvalCount++ */\n      dup2\n      sload\n      dup1\n      swap3\n      swap2\n      swap1\n      tag_107\n      swap1\n      tag_100\n      jump\t// in\n    tag_107:\n      swap2\n      swap1\n      pop\n      sstore\n      pop\n        /* \"Crowdfunding.sol\":2294:2528  {... */\n      pop\n        /* \"Crowdfunding.sol\":2248:2528  function approveRequest(uint256 index) public {... */\n      pop\n      jump\t// out\n        /* \"#utility.yul\":7:82   */\n    tag_108:\n        /* \"#utility.yul\":40:46   */\n      0x00\n        /* \"#utility.yul\":73:75   */\n      0x40\n        /* \"#utility.yul\":67:76   */\n      mload\n        /* \"#utility.yul\":57:76   */\n      swap1\n      pop\n        /* \"#utility.yul\":7:82   */\n      swap1\n      jump\t// out\n        /* \"#utility.yul\":88:205   */\n    tag_109:\n        /* \"#utility.yul\":197:198   */\n      0x00\n        /* \"#utility.yul\":194:195   */\n      dup1\n        /* \"#utility.yul\":187:199   */\n      revert\n        /* \"#utility.yul\":211:328   */\n    tag_110:\n        /* \"#utility.yul\":320:321   */\n      0x00\n        /* \"#utility.yul\":317:318   */\n      dup1\n        /* \"#utility.yul\":310:322   */\n      revert\n        /* \"#utility.yul\":334:411   */\n    tag_111:\n        /* \"#utility.yul\":371:378   */\n      0x00\n        /* \"#utility.yul\":400:405   */\n      dup2\n        /* \"#utility.yul\":389:405   */\n      swap1\n      pop\n        /* \"#utility.yul\":334:411   */\n      swap2\n      swap1\n      pop\n      jump\t// out\n        /* \"#utility.yul\":417:539   */\n    tag_112:\n        /* \"#utility.yul\":490:514   */\n      tag_164\n        /* \"#utility.yul\":508:513   */\n      dup2\n        /* \"#utility.yul\":490:514   */\n      tag_111\n      jump\t// in\n    tag_164:\n        /* \"#utility.yul\":483:488   */\n      dup2\n        /* \"#utility.yul\":480:515   */\n      eq\n        /* \"#utility.yul\":470:533   */\n      tag_165\n      jumpi\n        /* \"#utility.yul\":529:530   */\n      0x00\n        /* \"#utility.yul\":526:527   */\n      dup1\n        /* \"#utility.yul\":519:531   */\n      revert\n        /* \"#utility.yul\":470:533   */\n    tag_165:\n        /* \"#utility.yul\":417:539   */\n      pop\n      jump\t// out\n        /* \"#utility.yul\":545:684   */\n    tag_113:\n        /* \"#utility.yul\":591:596   */\n      0x00\n        /* \"#utility.yul\":629:635   */\n      dup2\n        /* \"#utility.yul\":616:636   */\n      calldataload\n        /* \"#utility.yul\":607:636   */\n      swap1\n      pop\n        /* \"#utility.yul\":645:678   */\n      tag_167\n        /* \"#utility.yul\":672:677   */\n      dup2\n        /* \"#utility.yul\":645:678   */\n      tag_112\n      jump\t// in\n    tag_167:\n        /* \"#utility.yul\":545:684   */\n      swap3\n      swap2\n      pop\n      pop\n      jump\t// out\n        /* \"#utility.yul\":690:1019   */\n    tag_15:\n        /* \"#utility.yul\":749:755   */\n      0x00\n        /* \"#utility.yul\":798:800   */\n      0x20\n        /* \"#utility.yul\":786:795   */\n      dup3\n        /* \"#utility.yul\":777:784   */\n      dup5\n        /* \"#utility.yul\":773:796   */\n      sub\n        /* \"#utility.yul\":769:801   */\n      slt\n        /* \"#utility.yul\":766:885   */\n      iszero\n      tag_169\n      jumpi\n        /* \"#utility.yul\":804:883   */\n      tag_170\n      tag_109\n      jump\t// in\n    tag_170:\n        /* \"#utility.yul\":766:885   */\n    tag_169:\n        /* \"#utility.yul\":924:925   */\n      0x00\n        /* \"#utility.yul\":949:1002   */\n      tag_171\n        /* \"#utility.yul\":994:1001   */\n      dup5\n        /* \"#utility.yul\":985:991   */\n      dup3\n        /* \"#utility.yul\":974:983   */\n      dup6\n        /* \"#utility.yul\":970:992   */\n      add\n        /* \"#utility.yul\":949:1002   */\n      tag_113\n      jump\t// in\n    tag_171:\n        /* \"#utility.yul\":939:1002   */\n      swap2\n      pop\n        /* \"#utility.yul\":895:1012   */\n      pop\n        /* \"#utility.yul\":690:1019   */\n      swap3\n      swap2\n      pop\n      pop\n      jump\t// out\n        /* \"#utility.yul\":1025:1151   */\n    tag_114:\n        /* \"#utility.yul\":1062:1069   */\n      0x00\n        /* \"#utility.yul\":1102:1144   */\n      0xffffffffffffffffffffffffffffffffffffffff\n        /* \"#utility.yul\":1095:1100   */\n      dup3\n        /* \"#utility.yul\":1091:1145   */\n      and\n        /* \"#utility.yul\":1080:1145   */\n      swap1\n      pop\n        /* \"#utility.yul\":1025:1151   */\n      swap2\n      swap1\n      pop\n      jump\t// out\n        /* \"#utility.yul\":1157:1253   */\n    tag_115:\n        /* \"#utility.yul\":1194:1201   */\n      0x00\n        /* \"#utility.yul\":1223:1247   */\n      tag_174\n        /* \"#utility.yul\":1241:1246   */\n      dup3\n        /* \"#utility.yul\":1223:1247   */\n      tag_114\n      jump\t// in\n    tag_174:\n        /* \"#utility.yul\":1212:1247   */\n      swap1\n      pop\n        /* \"#utility.yul\":1157:1253   */\n      swap2\n      swap1\n      pop\n      jump\t// out\n        /* \"#utility.yul\":1259:1381   */\n    tag_116:\n        /* \"#utility.yul\":1332:1356   */\n      tag_176\n        /* \"#utility.yul\":1350:1355   */\n      dup2\n        /* \"#utility.yul\":1332:1356   */\n      tag_115\n      jump\t// in\n    tag_176:\n        /* \"#utility.yul\":1325:1330   */\n      dup2\n        /* \"#utility.yul\":1322:1357   */\n      eq\n        /* \"#utility.yul\":1312:1375   */\n      tag_177\n      jumpi\n        /* \"#utility.yul\":1371:1372   */\n      0x00\n        /* \"#utility.yul\":1368:1369   */\n      dup1\n        /* \"#utility.yul\":1361:1373   */\n      revert\n        /* \"#utility.yul\":1312:1375   */\n    tag_177:\n        /* \"#utility.yul\":1259:1381   */\n      pop\n      jump\t// out\n        /* \"#utility.yul\":1387:1526   */\n    tag_117:\n        /* \"#utility.yul\":1433:1438   */\n      0x00\n        /* \"#utility.yul\":1471:1477   */\n      dup2\n        /* \"#utility.yul\":1458:1478   */\n      calldataload\n        /* \"#utility.yul\":1449:1478   */\n      swap1\n      pop\n        /* \"#utility.yul\":1487:1520   */\n      tag_179\n        /* \"#utility.yul\":1514:1519   */\n      dup2\n        /* \"#utility.yul\":1487:1520   */\n      tag_116\n      jump\t// in\n    tag_179:\n        /* \"#utility.yul\":1387:1526   */\n      swap3\n      swap2\n      pop\n      pop\n      jump\t// out\n        /* \"#utility.yul\":1532:1861   */\n    tag_20:\n        /* \"#utility.yul\":1591:1597   */\n      0x00\n        /* \"#utility.yul\":1640:1642   */\n      0x20\n        /* \"#utility.yul\":1628:1637   */\n      dup3\n        /* \"#utility.yul\":1619:1626   */\n      dup5\n        /* \"#utility.yul\":1615:1638   */\n      sub\n        /* \"#utility.yul\":1611:1643   */\n      slt\n        /* \"#utility.yul\":1608:1727   */\n      iszero\n      tag_181\n      jumpi\n        /* \"#utility.yul\":1646:1725   */\n      tag_182\n      tag_109\n      jump\t// in\n    tag_182:\n        /* \"#utility.yul\":1608:1727   */\n    tag_181:\n        /* \"#utility.yul\":1766:1767   */\n      0x00\n        /* \"#utility.yul\":1791:1844   */\n      tag_183\n        /* \"#utility.yul\":1836:1843   */\n      dup5\n        /* \"#utility.yul\":1827:1833   */\n      dup3\n        /* \"#utility.yul\":1816:1825   */\n      dup6\n        /* \"#utility.yul\":1812:1834   */\n      add\n        /* \"#utility.yul\":1791:1844   */\n      tag_117\n      jump\t// in\n    tag_183:\n        /* \"#utility.yul\":1781:1844   */\n      swap2\n      pop\n        /* \"#utility.yul\":1737:1854   */\n      pop\n        /* \"#utility.yul\":1532:1861   */\n      swap3\n      swap2\n      pop\n      pop\n      jump\t// out\n        /* \"#utility.yul\":1867:1957   */\n    tag_118:\n        /* \"#utility.yul\":1901:1908   */\n      0x00\n        /* \"#utility.yul\":1944:1949   */\n      dup2\n        /* \"#utility.yul\":1937:1950   */\n      iszero\n        /* \"#utility.yul\":1930:1951   */\n      iszero\n        /* \"#utility.yul\":1919:1951   */\n      swap1\n      pop\n        /* \"#utility.yul\":1867:1957   */\n      swap2\n      swap1\n      pop\n      jump\t// out\n        /* \"#utility.yul\":1963:2072   */\n    tag_119:\n        /* \"#utility.yul\":2044:2065   */\n      tag_186\n        /* \"#utility.yul\":2059:2064   */\n      dup2\n        /* \"#utility.yul\":2044:2065   */\n      tag_118\n      jump\t// in\n    tag_186:\n        /* \"#utility.yul\":2039:2042   */\n      dup3\n        /* \"#utility.yul\":2032:2066   */\n      mstore\n        /* \"#utility.yul\":1963:2072   */\n      pop\n      pop\n      jump\t// out\n        /* \"#utility.yul\":2078:2288   */\n    tag_23:\n        /* \"#utility.yul\":2165:2169   */\n      0x00\n        /* \"#utility.yul\":2203:2205   */\n      0x20\n        /* \"#utility.yul\":2192:2201   */\n      dup3\n        /* \"#utility.yul\":2188:2206   */\n      add\n        /* \"#utility.yul\":2180:2206   */\n      swap1\n      pop\n        /* \"#utility.yul\":2216:2281   */\n      tag_188\n        /* \"#utility.yul\":2278:2279   */\n      0x00\n        /* \"#utility.yul\":2267:2276   */\n      dup4\n        /* \"#utility.yul\":2263:2280   */\n      add\n        /* \"#utility.yul\":2254:2260   */\n      dup5\n        /* \"#utility.yul\":2216:2281   */\n      tag_119\n      jump\t// in\n    tag_188:\n        /* \"#utility.yul\":2078:2288   */\n      swap3\n      swap2\n      pop\n      pop\n      jump\t// out\n        /* \"#utility.yul\":2294:2412   */\n    tag_120:\n        /* \"#utility.yul\":2381:2405   */\n      tag_190\n        /* \"#utility.yul\":2399:2404   */\n      dup2\n        /* \"#utility.yul\":2381:2405   */\n      tag_115\n      jump\t// in\n    tag_190:\n        /* \"#utility.yul\":2376:2379   */\n      dup3\n        /* \"#utility.yul\":2369:2406   */\n      mstore\n        /* \"#utility.yul\":2294:2412   */\n      pop\n      pop\n      jump\t// out\n        /* \"#utility.yul\":2418:2640   */\n    tag_28:\n        /* \"#utility.yul\":2511:2515   */\n      0x00\n        /* \"#utility.yul\":2549:2551   */\n      0x20\n        /* \"#utility.yul\":2538:2547   */\n      dup3\n        /* \"#utility.yul\":2534:2552   */\n      add\n        /* \"#utility.yul\":2526:2552   */\n      swap1\n      pop\n        /* \"#utility.yul\":2562:2633   */\n      tag_192\n        /* \"#utility.yul\":2630:2631   */\n      0x00\n        /* \"#utility.yul\":2619:2628   */\n      dup4\n        /* \"#utility.yul\":2615:2632   */\n      add\n        /* \"#utility.yul\":2606:2612   */\n      dup5\n        /* \"#utility.yul\":2562:2633   */\n      tag_120\n      jump\t// in\n    tag_192:\n        /* \"#utility.yul\":2418:2640   */\n      swap3\n      swap2\n      pop\n      pop\n      jump\t// out\n        /* \"#utility.yul\":2646:2745   */\n    tag_121:\n        /* \"#utility.yul\":2698:2704   */\n      0x00\n        /* \"#utility.yul\":2732:2737   */\n      dup2\n        /* \"#utility.yul\":2726:2738   */\n      mload\n        /* \"#utility.yul\":2716:2738   */\n      swap1\n      pop\n        /* \"#utility.yul\":2646:2745   */\n      swap2\n      swap1\n      pop\n      jump\t// out\n        /* \"#utility.yul\":2751:2920   */\n    tag_122:\n        /* \"#utility.yul\":2835:2846   */\n      0x00\n        /* \"#utility.yul\":2869:2875   */\n      dup3\n        /* \"#utility.yul\":2864:2867   */\n      dup3\n        /* \"#utility.yul\":2857:2876   */\n      mstore\n        /* \"#utility.yul\":2909:2913   */\n      0x20\n        /* \"#utility.yul\":2904:2907   */\n      dup3\n        /* \"#utility.yul\":2900:2914   */\n      add\n        /* \"#utility.yul\":2885:2914   */\n      swap1\n      pop\n        /* \"#utility.yul\":2751:2920   */\n      swap3\n      swap2\n      pop\n      pop\n      jump\t// out\n        /* \"#utility.yul\":2926:3065   */\n    tag_123:\n        /* \"#utility.yul\":3015:3021   */\n      dup3\n        /* \"#utility.yul\":3010:3013   */\n      dup2\n        /* \"#utility.yul\":3005:3008   */\n      dup4\n        /* \"#utility.yul\":2999:3022   */\n      mcopy\n        /* \"#utility.yul\":3056:3057   */\n      0x00\n        /* \"#utility.yul\":3047:3053   */\n      dup4\n        /* \"#utility.yul\":3042:3045   */\n      dup4\n        /* \"#utility.yul\":3038:3054   */\n      add\n        /* \"#utility.yul\":3031:3058   */\n      mstore\n        /* \"#utility.yul\":2926:3065   */\n      pop\n      pop\n      pop\n      jump\t// out\n        /* \"#utility.yul\":3071:3173   */\n    tag_124:\n        /* \"#utility.yul\":3112:3118   */\n      0x00\n        /* \"#utility.yul\":3163:3165   */\n      0x1f\n        /* \"#utility.yul\":3159:3166   */\n      not\n        /* \"#utility.yul\":3154:3156   */\n      0x1f\n        /* \"#utility.yul\":3147:3152   */\n      dup4\n        /* \"#utility.yul\":3143:3157   */\n      add\n        /* \"#utility.yul\":3139:3167   */\n      and\n        /* \"#utility.yul\":3129:3167   */\n      swap1\n      pop\n        /* \"#utility.yul\":3071:3173   */\n      swap2\n      swap1\n      pop\n      jump\t// out\n        /* \"#utility.yul\":3179:3556   */\n    tag_125:\n        /* \"#utility.yul\":3267:3270   */\n      0x00\n        /* \"#utility.yul\":3295:3334   */\n      tag_198\n        /* \"#utility.yul\":3328:3333   */\n      dup3\n        /* \"#utility.yul\":3295:3334   */\n      tag_121\n      jump\t// in\n    tag_198:\n        /* \"#utility.yul\":3350:3421   */\n      tag_199\n        /* \"#utility.yul\":3414:3420   */\n      dup2\n        /* \"#utility.yul\":3409:3412   */\n      dup6\n        /* \"#utility.yul\":3350:3421   */\n      tag_122\n      jump\t// in\n    tag_199:\n        /* \"#utility.yul\":3343:3421   */\n      swap4\n      pop\n        /* \"#utility.yul\":3430:3495   */\n      tag_200\n        /* \"#utility.yul\":3488:3494   */\n      dup2\n        /* \"#utility.yul\":3483:3486   */\n      dup6\n        /* \"#utility.yul\":3476:3480   */\n      0x20\n        /* \"#utility.yul\":3469:3474   */\n      dup7\n        /* \"#utility.yul\":3465:3481   */\n      add\n        /* \"#utility.yul\":3430:3495   */\n      tag_123\n      jump\t// in\n    tag_200:\n        /* \"#utility.yul\":3520:3549   */\n      tag_201\n        /* \"#utility.yul\":3542:3548   */\n      dup2\n        /* \"#utility.yul\":3520:3549   */\n      tag_124\n      jump\t// in\n    tag_201:\n        /* \"#utility.yul\":3515:3518   */\n      dup5\n        /* \"#utility.yul\":3511:3550   */\n      add\n        /* \"#utility.yul\":3504:3550   */\n      swap2\n      pop\n        /* \"#utility.yul\":3271:3556   */\n      pop\n        /* \"#utility.yul\":3179:3556   */\n      swap3\n      swap2\n      pop\n      pop\n      jump\t// out\n        /* \"#utility.yul\":3562:3680   */\n    tag_126:\n        /* \"#utility.yul\":3649:3673   */\n      tag_203\n        /* \"#utility.yul\":3667:3672   */\n      dup2\n        /* \"#utility.yul\":3649:3673   */\n      tag_111\n      jump\t// in\n    tag_203:\n        /* \"#utility.yul\":3644:3647   */\n      dup3\n        /* \"#utility.yul\":3637:3674   */\n      mstore\n        /* \"#utility.yul\":3562:3680   */\n      pop\n      pop\n      jump\t// out\n        /* \"#utility.yul\":3686:3790   */\n    tag_127:\n        /* \"#utility.yul\":3731:3738   */\n      0x00\n        /* \"#utility.yul\":3760:3784   */\n      tag_205\n        /* \"#utility.yul\":3778:3783   */\n      dup3\n        /* \"#utility.yul\":3760:3784   */\n      tag_114\n      jump\t// in\n    tag_205:\n        /* \"#utility.yul\":3749:3784   */\n      swap1\n      pop\n        /* \"#utility.yul\":3686:3790   */\n      swap2\n      swap1\n      pop\n      jump\t// out\n        /* \"#utility.yul\":3796:3938   */\n    tag_128:\n        /* \"#utility.yul\":3899:3931   */\n      tag_207\n        /* \"#utility.yul\":3925:3930   */\n      dup2\n        /* \"#utility.yul\":3899:3931   */\n      tag_127\n      jump\t// in\n    tag_207:\n        /* \"#utility.yul\":3894:3897   */\n      dup3\n        /* \"#utility.yul\":3887:3932   */\n      mstore\n        /* \"#utility.yul\":3796:3938   */\n      pop\n      pop\n      jump\t// out\n        /* \"#utility.yul\":3944:4719   */\n    tag_34:\n        /* \"#utility.yul\":4179:4183   */\n      0x00\n        /* \"#utility.yul\":4217:4220   */\n      0xa0\n        /* \"#utility.yul\":4206:4215   */\n      dup3\n        /* \"#utility.yul\":4202:4221   */\n      add\n        /* \"#utility.yul\":4194:4221   */\n      swap1\n      pop\n        /* \"#utility.yul\":4267:4276   */\n      dup2\n        /* \"#utility.yul\":4261:4265   */\n      dup2\n        /* \"#utility.yul\":4257:4277   */\n      sub\n        /* \"#utility.yul\":4253:4254   */\n      0x00\n        /* \"#utility.yul\":4242:4251   */\n      dup4\n        /* \"#utility.yul\":4238:4255   */\n      add\n        /* \"#utility.yul\":4231:4278   */\n      mstore\n        /* \"#utility.yul\":4295:4373   */\n      tag_209\n        /* \"#utility.yul\":4368:4372   */\n      dup2\n        /* \"#utility.yul\":4359:4365   */\n      dup9\n        /* \"#utility.yul\":4295:4373   */\n      tag_125\n      jump\t// in\n    tag_209:\n        /* \"#utility.yul\":4287:4373   */\n      swap1\n      pop\n        /* \"#utility.yul\":4383:4455   */\n      tag_210\n        /* \"#utility.yul\":4451:4453   */\n      0x20\n        /* \"#utility.yul\":4440:4449   */\n      dup4\n        /* \"#utility.yul\":4436:4454   */\n      add\n        /* \"#utility.yul\":4427:4433   */\n      dup8\n        /* \"#utility.yul\":4383:4455   */\n      tag_126\n      jump\t// in\n    tag_210:\n        /* \"#utility.yul\":4465:4553   */\n      tag_211\n        /* \"#utility.yul\":4549:4551   */\n      0x40\n        /* \"#utility.yul\":4538:4547   */\n      dup4\n        /* \"#utility.yul\":4534:4552   */\n      add\n        /* \"#utility.yul\":4525:4531   */\n      dup7\n        /* \"#utility.yul\":4465:4553   */\n      tag_128\n      jump\t// in\n    tag_211:\n        /* \"#utility.yul\":4563:4629   */\n      tag_212\n        /* \"#utility.yul\":4625:4627   */\n      0x60\n        /* \"#utility.yul\":4614:4623   */\n      dup4\n        /* \"#utility.yul\":4610:4628   */\n      add\n        /* \"#utility.yul\":4601:4607   */\n      dup6\n        /* \"#utility.yul\":4563:4629   */\n      tag_119\n      jump\t// in\n    tag_212:\n        /* \"#utility.yul\":4639:4712   */\n      tag_213\n        /* \"#utility.yul\":4707:4710   */\n      0x80\n        /* \"#utility.yul\":4696:4705   */\n      dup4\n        /* \"#utility.yul\":4692:4711   */\n      add\n        /* \"#utility.yul\":4683:4689   */\n      dup5\n        /* \"#utility.yul\":4639:4712   */\n      tag_126\n      jump\t// in\n    tag_213:\n        /* \"#utility.yul\":3944:4719   */\n      swap7\n      swap6\n      pop\n      pop\n      pop\n      pop\n      pop\n      pop\n      jump\t// out\n        /* \"#utility.yul\":4725:4947   */\n    tag_39:\n        /* \"#utility.yul\":4818:4822   */\n      0x00\n        /* \"#utility.yul\":4856:4858   */\n      0x20\n        /* \"#utility.yul\":4845:4854   */\n      dup3\n        /* \"#utility.yul\":4841:4859   */\n      add\n        /* \"#utility.yul\":4833:4859   */\n      swap1\n      pop\n        /* \"#utility.yul\":4869:4940   */\n      tag_215\n        /* \"#utility.yul\":4937:4938   */\n      0x00\n        /* \"#utility.yul\":4926:4935   */\n      dup4\n        /* \"#utility.yul\":4922:4939   */\n      add\n        /* \"#utility.yul\":4913:4919   */\n      dup5\n        /* \"#utility.yul\":4869:4940   */\n      tag_126\n      jump\t// in\n    tag_215:\n        /* \"#utility.yul\":4725:4947   */\n      swap3\n      swap2\n      pop\n      pop\n      jump\t// out\n        /* \"#utility.yul\":4953:5070   */\n    tag_129:\n        /* \"#utility.yul\":5062:5063   */\n      0x00\n        /* \"#utility.yul\":5059:5060   */\n      dup1\n        /* \"#utility.yul\":5052:5064   */\n      revert\n        /* \"#utility.yul\":5076:5193   */\n    tag_130:\n        /* \"#utility.yul\":5185:5186   */\n      0x00\n        /* \"#utility.yul\":5182:5183   */\n      dup1\n        /* \"#utility.yul\":5175:5187   */\n      revert\n        /* \"#utility.yul\":5199:5379   */\n    tag_131:\n        /* \"#utility.yul\":5247:5324   */\n      0x4e487b7100000000000000000000000000000000000000000000000000000000\n        /* \"#utility.yul\":5244:5245   */\n      0x00\n        /* \"#utility.yul\":5237:5325   */\n      mstore\n        /* \"#utility.yul\":5344:5348   */\n      0x41\n        /* \"#utility.yul\":5341:5342   */\n      0x04\n        /* \"#utility.yul\":5334:5349   */\n      mstore\n        /* \"#utility.yul\":5368:5372   */\n      0x24\n        /* \"#utility.yul\":5365:5366   */\n      0x00\n        /* \"#utility.yul\":5358:5373   */\n      revert\n        /* \"#utility.yul\":5385:5666   */\n    tag_132:\n        /* \"#utility.yul\":5468:5495   */\n      tag_220\n        /* \"#utility.yul\":5490:5494   */\n      dup3\n        /* \"#utility.yul\":5468:5495   */\n      tag_124\n      jump\t// in\n    tag_220:\n        /* \"#utility.yul\":5460:5466   */\n      dup2\n        /* \"#utility.yul\":5456:5496   */\n      add\n        /* \"#utility.yul\":5598:5604   */\n      dup2\n        /* \"#utility.yul\":5586:5596   */\n      dup2\n        /* \"#utility.yul\":5583:5605   */\n      lt\n        /* \"#utility.yul\":5562:5580   */\n      0xffffffffffffffff\n        /* \"#utility.yul\":5550:5560   */\n      dup3\n        /* \"#utility.yul\":5547:5581   */\n      gt\n        /* \"#utility.yul\":5544:5606   */\n      or\n        /* \"#utility.yul\":5541:5629   */\n      iszero\n      tag_221\n      jumpi\n        /* \"#utility.yul\":5609:5627   */\n      tag_222\n      tag_131\n      jump\t// in\n    tag_222:\n        /* \"#utility.yul\":5541:5629   */\n    tag_221:\n        /* \"#utility.yul\":5649:5659   */\n      dup1\n        /* \"#utility.yul\":5645:5647   */\n      0x40\n        /* \"#utility.yul\":5638:5660   */\n      mstore\n        /* \"#utility.yul\":5428:5666   */\n      pop\n        /* \"#utility.yul\":5385:5666   */\n      pop\n      pop\n      jump\t// out\n        /* \"#utility.yul\":5672:5801   */\n    tag_133:\n        /* \"#utility.yul\":5706:5712   */\n      0x00\n        /* \"#utility.yul\":5733:5753   */\n      tag_224\n      tag_108\n      jump\t// in\n    tag_224:\n        /* \"#utility.yul\":5723:5753   */\n      swap1\n      pop\n        /* \"#utility.yul\":5762:5795   */\n      tag_225\n        /* \"#utility.yul\":5790:5794   */\n      dup3\n        /* \"#utility.yul\":5782:5788   */\n      dup3\n        /* \"#utility.yul\":5762:5795   */\n      tag_132\n      jump\t// in\n    tag_225:\n        /* \"#utility.yul\":5672:5801   */\n      swap2\n      swap1\n      pop\n      jump\t// out\n        /* \"#utility.yul\":5807:6115   */\n    tag_134:\n        /* \"#utility.yul\":5869:5873   */\n      0x00\n        /* \"#utility.yul\":5959:5977   */\n      0xffffffffffffffff\n        /* \"#utility.yul\":5951:5957   */\n      dup3\n        /* \"#utility.yul\":5948:5978   */\n      gt\n        /* \"#utility.yul\":5945:6001   */\n      iszero\n      tag_227\n      jumpi\n        /* \"#utility.yul\":5981:5999   */\n      tag_228\n      tag_131\n      jump\t// in\n    tag_228:\n        /* \"#utility.yul\":5945:6001   */\n    tag_227:\n        /* \"#utility.yul\":6019:6048   */\n      tag_229\n        /* \"#utility.yul\":6041:6047   */\n      dup3\n        /* \"#utility.yul\":6019:6048   */\n      tag_124\n      jump\t// in\n    tag_229:\n        /* \"#utility.yul\":6011:6048   */\n      swap1\n      pop\n        /* \"#utility.yul\":6103:6107   */\n      0x20\n        /* \"#utility.yul\":6097:6101   */\n      dup2\n        /* \"#utility.yul\":6093:6108   */\n      add\n        /* \"#utility.yul\":6085:6108   */\n      swap1\n      pop\n        /* \"#utility.yul\":5807:6115   */\n      swap2\n      swap1\n      pop\n      jump\t// out\n        /* \"#utility.yul\":6121:6269   */\n    tag_135:\n        /* \"#utility.yul\":6219:6225   */\n      dup3\n        /* \"#utility.yul\":6214:6217   */\n      dup2\n        /* \"#utility.yul\":6209:6212   */\n      dup4\n        /* \"#utility.yul\":6196:6226   */\n      calldatacopy\n        /* \"#utility.yul\":6260:6261   */\n      0x00\n        /* \"#utility.yul\":6251:6257   */\n      dup4\n        /* \"#utility.yul\":6246:6249   */\n      dup4\n        /* \"#utility.yul\":6242:6258   */\n      add\n        /* \"#utility.yul\":6235:6262   */\n      mstore\n        /* \"#utility.yul\":6121:6269   */\n      pop\n      pop\n      pop\n      jump\t// out\n        /* \"#utility.yul\":6275:6700   */\n    tag_136:\n        /* \"#utility.yul\":6353:6358   */\n      0x00\n        /* \"#utility.yul\":6378:6444   */\n      tag_232\n        /* \"#utility.yul\":6394:6443   */\n      tag_233\n        /* \"#utility.yul\":6436:6442   */\n      dup5\n        /* \"#utility.yul\":6394:6443   */\n      tag_134\n      jump\t// in\n    tag_233:\n        /* \"#utility.yul\":6378:6444   */\n      tag_133\n      jump\t// in\n    tag_232:\n        /* \"#utility.yul\":6369:6444   */\n      swap1\n      pop\n        /* \"#utility.yul\":6467:6473   */\n      dup3\n        /* \"#utility.yul\":6460:6465   */\n      dup2\n        /* \"#utility.yul\":6453:6474   */\n      mstore\n        /* \"#utility.yul\":6505:6509   */\n      0x20\n        /* \"#utility.yul\":6498:6503   */\n      dup2\n        /* \"#utility.yul\":6494:6510   */\n      add\n        /* \"#utility.yul\":6543:6546   */\n      dup5\n        /* \"#utility.yul\":6534:6540   */\n      dup5\n        /* \"#utility.yul\":6529:6532   */\n      dup5\n        /* \"#utility.yul\":6525:6541   */\n      add\n        /* \"#utility.yul\":6522:6547   */\n      gt\n        /* \"#utility.yul\":6519:6631   */\n      iszero\n      tag_234\n      jumpi\n        /* \"#utility.yul\":6550:6629   */\n      tag_235\n      tag_130\n      jump\t// in\n    tag_235:\n        /* \"#utility.yul\":6519:6631   */\n    tag_234:\n        /* \"#utility.yul\":6640:6694   */\n      tag_236\n        /* \"#utility.yul\":6687:6693   */\n      dup5\n        /* \"#utility.yul\":6682:6685   */\n      dup3\n        /* \"#utility.yul\":6677:6680   */\n      dup6\n        /* \"#utility.yul\":6640:6694   */\n      tag_135\n      jump\t// in\n    tag_236:\n        /* \"#utility.yul\":6359:6700   */\n      pop\n        /* \"#utility.yul\":6275:6700   */\n      swap4\n      swap3\n      pop\n      pop\n      pop\n      jump\t// out\n        /* \"#utility.yul\":6720:7060   */\n    tag_137:\n        /* \"#utility.yul\":6776:6781   */\n      0x00\n        /* \"#utility.yul\":6825:6828   */\n      dup3\n        /* \"#utility.yul\":6818:6822   */\n      0x1f\n        /* \"#utility.yul\":6810:6816   */\n      dup4\n        /* \"#utility.yul\":6806:6823   */\n      add\n        /* \"#utility.yul\":6802:6829   */\n      slt\n        /* \"#utility.yul\":6792:6914   */\n      tag_238\n      jumpi\n        /* \"#utility.yul\":6833:6912   */\n      tag_239\n      tag_129\n      jump\t// in\n    tag_239:\n        /* \"#utility.yul\":6792:6914   */\n    tag_238:\n        /* \"#utility.yul\":6950:6956   */\n      dup2\n        /* \"#utility.yul\":6937:6957   */\n      calldataload\n        /* \"#utility.yul\":6975:7054   */\n      tag_240\n        /* \"#utility.yul\":7050:7053   */\n      dup5\n        /* \"#utility.yul\":7042:7048   */\n      dup3\n        /* \"#utility.yul\":7035:7039   */\n      0x20\n        /* \"#utility.yul\":7027:7033   */\n      dup7\n        /* \"#utility.yul\":7023:7040   */\n      add\n        /* \"#utility.yul\":6975:7054   */\n      tag_136\n      jump\t// in\n    tag_240:\n        /* \"#utility.yul\":6966:7054   */\n      swap2\n      pop\n        /* \"#utility.yul\":6782:7060   */\n      pop\n        /* \"#utility.yul\":6720:7060   */\n      swap3\n      swap2\n      pop\n      pop\n      jump\t// out\n        /* \"#utility.yul\":7066:7204   */\n    tag_138:\n        /* \"#utility.yul\":7147:7179   */\n      tag_242\n        /* \"#utility.yul\":7173:7178   */\n      dup2\n        /* \"#utility.yul\":7147:7179   */\n      tag_127\n      jump\t// in\n    tag_242:\n        /* \"#utility.yul\":7140:7145   */\n      dup2\n        /* \"#utility.yul\":7137:7180   */\n      eq\n        /* \"#utility.yul\":7127:7198   */\n      tag_243\n      jumpi\n        /* \"#utility.yul\":7194:7195   */\n      0x00\n        /* \"#utility.yul\":7191:7192   */\n      dup1\n        /* \"#utility.yul\":7184:7196   */\n      revert\n        /* \"#utility.yul\":7127:7198   */\n    tag_243:\n        /* \"#utility.yul\":7066:7204   */\n      pop\n      jump\t// out\n        /* \"#utility.yul\":7210:7365   */\n    tag_139:\n        /* \"#utility.yul\":7264:7269   */\n      0x00\n        /* \"#utility.yul\":7302:7308   */\n      dup2\n        /* \"#utility.yul\":7289:7309   */\n      calldataload\n        /* \"#utility.yul\":7280:7309   */\n      swap1\n      pop\n        /* \"#utility.yul\":7318:7359   */\n      tag_245\n        /* \"#utility.yul\":7353:7358   */\n      dup2\n        /* \"#utility.yul\":7318:7359   */\n      tag_138\n      jump\t// in\n    tag_245:\n        /* \"#utility.yul\":7210:7365   */\n      swap3\n      swap2\n      pop\n      pop\n      jump\t// out\n        /* \"#utility.yul\":7371:8186   */\n    tag_43:\n        /* \"#utility.yul\":7466:7472   */\n      0x00\n        /* \"#utility.yul\":7474:7480   */\n      dup1\n        /* \"#utility.yul\":7482:7488   */\n      0x00\n        /* \"#utility.yul\":7531:7533   */\n      0x60\n        /* \"#utility.yul\":7519:7528   */\n      dup5\n        /* \"#utility.yul\":7510:7517   */\n      dup7\n        /* \"#utility.yul\":7506:7529   */\n      sub\n        /* \"#utility.yul\":7502:7534   */\n      slt\n        /* \"#utility.yul\":7499:7618   */\n      iszero\n      tag_247\n      jumpi\n        /* \"#utility.yul\":7537:7616   */\n      tag_248\n      tag_109\n      jump\t// in\n    tag_248:\n        /* \"#utility.yul\":7499:7618   */\n    tag_247:\n        /* \"#utility.yul\":7685:7686   */\n      0x00\n        /* \"#utility.yul\":7674:7683   */\n      dup5\n        /* \"#utility.yul\":7670:7687   */\n      add\n        /* \"#utility.yul\":7657:7688   */\n      calldataload\n        /* \"#utility.yul\":7715:7733   */\n      0xffffffffffffffff\n        /* \"#utility.yul\":7707:7713   */\n      dup2\n        /* \"#utility.yul\":7704:7734   */\n      gt\n        /* \"#utility.yul\":7701:7818   */\n      iszero\n      tag_249\n      jumpi\n        /* \"#utility.yul\":7737:7816   */\n      tag_250\n      tag_110\n      jump\t// in\n    tag_250:\n        /* \"#utility.yul\":7701:7818   */\n    tag_249:\n        /* \"#utility.yul\":7842:7905   */\n      tag_251\n        /* \"#utility.yul\":7897:7904   */\n      dup7\n        /* \"#utility.yul\":7888:7894   */\n      dup3\n        /* \"#utility.yul\":7877:7886   */\n      dup8\n        /* \"#utility.yul\":7873:7895   */\n      add\n        /* \"#utility.yul\":7842:7905   */\n      tag_137\n      jump\t// in\n    tag_251:\n        /* \"#utility.yul\":7832:7905   */\n      swap4\n      pop\n        /* \"#utility.yul\":7628:7915   */\n      pop\n        /* \"#utility.yul\":7954:7956   */\n      0x20\n        /* \"#utility.yul\":7980:8033   */\n      tag_252\n        /* \"#utility.yul\":8025:8032   */\n      dup7\n        /* \"#utility.yul\":8016:8022   */\n      dup3\n        /* \"#utility.yul\":8005:8014   */\n      dup8\n        /* \"#utility.yul\":8001:8023   */\n      add\n        /* \"#utility.yul\":7980:8033   */\n      tag_113\n      jump\t// in\n    tag_252:\n        /* \"#utility.yul\":7970:8033   */\n      swap3\n      pop\n        /* \"#utility.yul\":7925:8043   */\n      pop\n        /* \"#utility.yul\":8082:8084   */\n      0x40\n        /* \"#utility.yul\":8108:8169   */\n      tag_253\n        /* \"#utility.yul\":8161:8168   */\n      dup7\n        /* \"#utility.yul\":8152:8158   */\n      dup3\n        /* \"#utility.yul\":8141:8150   */\n      dup8\n        /* \"#utility.yul\":8137:8159   */\n      add\n        /* \"#utility.yul\":8108:8169   */\n      tag_139\n      jump\t// in\n    tag_253:\n        /* \"#utility.yul\":8098:8169   */\n      swap2\n      pop\n        /* \"#utility.yul\":8053:8179   */\n      pop\n        /* \"#utility.yul\":7371:8186   */\n      swap3\n      pop\n      swap3\n      pop\n      swap3\n      jump\t// out\n        /* \"#utility.yul\":8192:8372   */\n    tag_60:\n        /* \"#utility.yul\":8240:8317   */\n      0x4e487b7100000000000000000000000000000000000000000000000000000000\n        /* \"#utility.yul\":8237:8238   */\n      0x00\n        /* \"#utility.yul\":8230:8318   */\n      mstore\n        /* \"#utility.yul\":8337:8341   */\n      0x32\n        /* \"#utility.yul\":8334:8335   */\n      0x04\n        /* \"#utility.yul\":8327:8342   */\n      mstore\n        /* \"#utility.yul\":8361:8365   */\n      0x24\n        /* \"#utility.yul\":8358:8359   */\n      0x00\n        /* \"#utility.yul\":8351:8366   */\n      revert\n        /* \"#utility.yul\":8378:8558   */\n    tag_140:\n        /* \"#utility.yul\":8426:8503   */\n      0x4e487b7100000000000000000000000000000000000000000000000000000000\n        /* \"#utility.yul\":8423:8424   */\n      0x00\n        /* \"#utility.yul\":8416:8504   */\n      mstore\n        /* \"#utility.yul\":8523:8527   */\n      0x12\n        /* \"#utility.yul\":8520:8521   */\n      0x04\n        /* \"#utility.yul\":8513:8528   */\n      mstore\n        /* \"#utility.yul\":8547:8551   */\n      0x24\n        /* \"#utility.yul\":8544:8545   */\n      0x00\n        /* \"#utility.yul\":8537:8552   */\n      revert\n        /* \"#utility.yul\":8564:8744   */\n    tag_141:\n        /* \"#utility.yul\":8612:8689   */\n      0x4e487b7100000000000000000000000000000000000000000000000000000000\n        /* \"#utility.yul\":8609:8610   */\n      0x00\n        /* \"#utility.yul\":8602:8690   */\n      mstore\n        /* \"#utility.yul\":8709:8713   */\n      0x11\n        /* \"#utility.yul\":8706:8707   */\n      0x04\n        /* \"#utility.yul\":8699:8714   */\n      mstore\n        /* \"#utility.yul\":8733:8737   */\n      0x24\n        /* \"#utility.yul\":8730:8731   */\n      0x00\n        /* \"#utility.yul\":8723:8738   */\n      revert\n        /* \"#utility.yul\":8750:8935   */\n    tag_63:\n        /* \"#utility.yul\":8790:8791   */\n      0x00\n        /* \"#utility.yul\":8807:8827   */\n      tag_258\n        /* \"#utility.yul\":8825:8826   */\n      dup3\n        /* \"#utility.yul\":8807:8827   */\n      tag_111\n      jump\t// in\n    tag_258:\n        /* \"#utility.yul\":8802:8827   */\n      swap2\n      pop\n        /* \"#utility.yul\":8841:8861   */\n      tag_259\n        /* \"#utility.yul\":8859:8860   */\n      dup4\n        /* \"#utility.yul\":8841:8861   */\n      tag_111\n      jump\t// in\n    tag_259:\n        /* \"#utility.yul\":8836:8861   */\n      swap3\n      pop\n        /* \"#utility.yul\":8880:8881   */\n      dup3\n        /* \"#utility.yul\":8870:8905   */\n      tag_260\n      jumpi\n        /* \"#utility.yul\":8885:8903   */\n      tag_261\n      tag_140\n      jump\t// in\n    tag_261:\n        /* \"#utility.yul\":8870:8905   */\n    tag_260:\n        /* \"#utility.yul\":8927:8928   */\n      dup3\n        /* \"#utility.yul\":8924:8925   */\n      dup3\n        /* \"#utility.yul\":8920:8929   */\n      div\n        /* \"#utility.yul\":8915:8929   */\n      swap1\n      pop\n        /* \"#utility.yul\":8750:8935   */\n      swap3\n      swap2\n      pop\n      pop\n      jump\t// out\n        /* \"#utility.yul\":8941:9121   */\n    tag_142:\n        /* \"#utility.yul\":8989:9066   */\n      0x4e487b7100000000000000000000000000000000000000000000000000000000\n        /* \"#utility.yul\":8986:8987   */\n      0x00\n        /* \"#utility.yul\":8979:9067   */\n      mstore\n        /* \"#utility.yul\":9086:9090   */\n      0x22\n        /* \"#utility.yul\":9083:9084   */\n      0x04\n        /* \"#utility.yul\":9076:9091   */\n      mstore\n        /* \"#utility.yul\":9110:9114   */\n      0x24\n        /* \"#utility.yul\":9107:9108   */\n      0x00\n        /* \"#utility.yul\":9100:9115   */\n      revert\n        /* \"#utility.yul\":9127:9447   */\n    tag_71:\n        /* \"#utility.yul\":9171:9177   */\n      0x00\n        /* \"#utility.yul\":9208:9209   */\n      0x02\n        /* \"#utility.yul\":9202:9206   */\n      dup3\n        /* \"#utility.yul\":9198:9210   */\n      div\n        /* \"#utility.yul\":9188:9210   */\n      swap1\n      pop\n        /* \"#utility.yul\":9255:9256   */\n      0x01\n        /* \"#utility.yul\":9249:9253   */\n      dup3\n        /* \"#utility.yul\":9245:9257   */\n      and\n        /* \"#utility.yul\":9276:9294   */\n      dup1\n        /* \"#utility.yul\":9266:9347   */\n      tag_264\n      jumpi\n        /* \"#utility.yul\":9332:9336   */\n      0x7f\n        /* \"#utility.yul\":9324:9330   */\n      dup3\n        /* \"#utility.yul\":9320:9337   */\n      and\n        /* \"#utility.yul\":9310:9337   */\n      swap2\n      pop\n        /* \"#utility.yul\":9266:9347   */\n    tag_264:\n        /* \"#utility.yul\":9394:9396   */\n      0x20\n        /* \"#utility.yul\":9386:9392   */\n      dup3\n        /* \"#utility.yul\":9383:9397   */\n      lt\n        /* \"#utility.yul\":9363:9381   */\n      dup2\n        /* \"#utility.yul\":9360:9398   */\n      sub\n        /* \"#utility.yul\":9357:9441   */\n      tag_265\n      jumpi\n        /* \"#utility.yul\":9413:9431   */\n      tag_266\n      tag_142\n      jump\t// in\n    tag_266:\n        /* \"#utility.yul\":9357:9441   */\n    tag_265:\n        /* \"#utility.yul\":9178:9447   */\n      pop\n        /* \"#utility.yul\":9127:9447   */\n      swap2\n      swap1\n      pop\n      jump\t// out\n        /* \"#utility.yul\":9453:9594   */\n    tag_143:\n        /* \"#utility.yul\":9502:9506   */\n      0x00\n        /* \"#utility.yul\":9525:9528   */\n      dup2\n        /* \"#utility.yul\":9517:9528   */\n      swap1\n      pop\n        /* \"#utility.yul\":9548:9551   */\n      dup2\n        /* \"#utility.yul\":9545:9546   */\n      0x00\n        /* \"#utility.yul\":9538:9552   */\n      mstore\n        /* \"#utility.yul\":9582:9586   */\n      0x20\n        /* \"#utility.yul\":9579:9580   */\n      0x00\n        /* \"#utility.yul\":9569:9587   */\n      keccak256\n        /* \"#utility.yul\":9561:9587   */\n      swap1\n      pop\n        /* \"#utility.yul\":9453:9594   */\n      swap2\n      swap1\n      pop\n      jump\t// out\n        /* \"#utility.yul\":9600:9693   */\n    tag_144:\n        /* \"#utility.yul\":9637:9643   */\n      0x00\n        /* \"#utility.yul\":9684:9686   */\n      0x20\n        /* \"#utility.yul\":9679:9681   */\n      0x1f\n        /* \"#utility.yul\":9672:9677   */\n      dup4\n        /* \"#utility.yul\":9668:9682   */\n      add\n        /* \"#utility.yul\":9664:9687   */\n      div\n        /* \"#utility.yul\":9654:9687   */\n      swap1\n      pop\n        /* \"#utility.yul\":9600:9693   */\n      swap2\n      swap1\n      pop\n      jump\t// out\n        /* \"#utility.yul\":9699:9806   */\n    tag_145:\n        /* \"#utility.yul\":9743:9751   */\n      0x00\n        /* \"#utility.yul\":9793:9798   */\n      dup3\n        /* \"#utility.yul\":9787:9791   */\n      dup3\n        /* \"#utility.yul\":9783:9799   */\n      shl\n        /* \"#utility.yul\":9762:9799   */\n      swap1\n      pop\n        /* \"#utility.yul\":9699:9806   */\n      swap3\n      swap2\n      pop\n      pop\n      jump\t// out\n        /* \"#utility.yul\":9812:10205   */\n    tag_146:\n        /* \"#utility.yul\":9881:9887   */\n      0x00\n        /* \"#utility.yul\":9931:9932   */\n      0x08\n        /* \"#utility.yul\":9919:9929   */\n      dup4\n        /* \"#utility.yul\":9915:9933   */\n      mul\n        /* \"#utility.yul\":9954:10051   */\n      tag_271\n        /* \"#utility.yul\":9984:10050   */\n      0xffffffffffffffffffffffffffffffffffffffffffffffffffffffffffffffff\n        /* \"#utility.yul\":9973:9982   */\n      dup3\n        /* \"#utility.yul\":9954:10051   */\n      tag_145\n      jump\t// in\n    tag_271:\n        /* \"#utility.yul\":10072:10111   */\n      tag_272\n        /* \"#utility.yul\":10102:10110   */\n      dup7\n        /* \"#utility.yul\":10091:10100   */\n      dup4\n        /* \"#utility.yul\":10072:10111   */\n      tag_145\n      jump\t// in\n    tag_272:\n        /* \"#utility.yul\":10060:10111   */\n      swap6\n      pop\n        /* \"#utility.yul\":10144:10148   */\n      dup1\n        /* \"#utility.yul\":10140:10149   */\n      not\n        /* \"#utility.yul\":10133:10138   */\n      dup5\n        /* \"#utility.yul\":10129:10150   */\n      and\n        /* \"#utility.yul\":10120:10150   */\n      swap4\n      pop\n        /* \"#utility.yul\":10193:10197   */\n      dup1\n        /* \"#utility.yul\":10183:10191   */\n      dup7\n        /* \"#utility.yul\":10179:10198   */\n      and\n        /* \"#utility.yul\":10172:10177   */\n      dup5\n        /* \"#utility.yul\":10169:10199   */\n      or\n        /* \"#utility.yul\":10159:10199   */\n      swap3\n      pop\n        /* \"#utility.yul\":9888:10205   */\n      pop\n      pop\n        /* \"#utility.yul\":9812:10205   */\n      swap4\n      swap3\n      pop\n      pop\n      pop\n      jump\t// out\n        /* \"#utility.yul\":10211:10271   */\n    tag_147:\n        /* \"#utility.yul\":10239:10242   */\n      0x00\n        /* \"#utility.yul\":10260:10265   */\n      dup2\n        /* \"#utility.yul\":10253:10265   */\n      swap1\n      pop\n        /* \"#utility.yul\":10211:10271   */\n      swap2\n      swap1\n      pop\n      jump\t// out\n        /* \"#utility.yul\":10277:10419   */\n    tag_148:\n        /* \"#utility.yul\":10327:10336   */\n      0x00\n        /* \"#utility.yul\":10360:10413   */\n      tag_275\n        /* \"#utility.yul\":10378:10412   */\n      tag_276\n        /* \"#utility.yul\":10387:10411   */\n      tag_277\n        /* \"#utility.yul\":10405:10410   */\n      dup5\n        /* \"#utility.yul\":10387:10411   */\n      tag_111\n      jump\t// in\n    tag_277:\n        /* \"#utility.yul\":10378:10412   */\n      tag_147\n      jump\t// in\n    tag_276:\n        /* \"#utility.yul\":10360:10413   */\n      tag_111\n      jump\t// in\n    tag_275:\n        /* \"#utility.yul\":10347:10413   */\n      swap1\n      pop\n        /* \"#utility.yul\":10277:10419   */\n      swap2\n      swap1\n      pop\n      jump\t// out\n        /* \"#utility.yul\":10425:10500   */\n    tag_149:\n        /* \"#utility.yul\":10468:10471   */\n      0x00\n        /* \"#utility.yul\":10489:10494   */\n      dup2\n        /* \"#utility.yul\":10482:10494   */\n      swap1\n      pop\n        /* \"#utility.yul\":10425:10500   */\n      swap2\n      swap1\n      pop\n      jump\t// out\n        /* \"#utility.yul\":10506:10775   */\n    tag_150:\n        /* \"#utility.yul\":10616:10655   */\n      tag_280\n        /* \"#utility.yul\":10647:10654   */\n      dup4\n        /* \"#utility.yul\":10616:10655   */\n      tag_148\n      jump\t// in\n    tag_280:\n        /* \"#utility.yul\":10677:10768   */\n      tag_281\n        /* \"#utility.yul\":10726:10767   */\n      tag_282\n        /* \"#utility.yul\":10750:10766   */\n      dup3\n        /* \"#utility.yul\":10726:10767   */\n      tag_149\n      jump\t// in\n    tag_282:\n        /* \"#utility.yul\":10718:10724   */\n      dup5\n        /* \"#utility.yul\":10711:10715   */\n      dup5\n        /* \"#utility.yul\":10705:10716   */\n      sload\n        /* \"#utility.yul\":10677:10768   */\n      tag_146\n      jump\t// in\n    tag_281:\n        /* \"#utility.yul\":10671:10675   */\n      dup3\n        /* \"#utility.yul\":10664:10769   */\n      sstore\n        /* \"#utility.yul\":10582:10775   */\n      pop\n        /* \"#utility.yul\":10506:10775   */\n      pop\n      pop\n      pop\n      jump\t// out\n        /* \"#utility.yul\":10781:10854   */\n    tag_151:\n        /* \"#utility.yul\":10826:10829   */\n      0x00\n        /* \"#utility.yul\":10781:10854   */\n      swap1\n      jump\t// out\n        /* \"#utility.yul\":10860:11049   */\n    tag_152:\n        /* \"#utility.yul\":10937:10969   */\n      tag_285\n      tag_151\n      jump\t// in\n    tag_285:\n        /* \"#utility.yul\":10978:11043   */\n      tag_286\n        /* \"#utility.yul\":11036:11042   */\n      dup2\n        /* \"#utility.yul\":11028:11034   */\n      dup5\n        /* \"#utility.yul\":11022:11026   */\n      dup5\n        /* \"#utility.yul\":10978:11043   */\n      tag_150\n      jump\t// in\n    tag_286:\n        /* \"#utility.yul\":10913:11049   */\n      pop\n        /* \"#utility.yul\":10860:11049   */\n      pop\n      pop\n      jump\t// out\n        /* \"#utility.yul\":11055:11241   */\n    tag_153:\n        /* \"#utility.yul\":11115:11235   */\n    tag_288:\n        /* \"#utility.yul\":11132:11135   */\n      dup2\n        /* \"#utility.yul\":11125:11130   */\n      dup2\n        /* \"#utility.yul\":11122:11136   */\n      lt\n        /* \"#utility.yul\":11115:11235   */\n      iszero\n      tag_290\n      jumpi\n        /* \"#utility.yul\":11186:11225   */\n      tag_291\n        /* \"#utility.yul\":11223:11224   */\n      0x00\n        /* \"#utility.yul\":11216:11221   */\n      dup3\n        /* \"#utility.yul\":11186:11225   */\n      tag_152\n      jump\t// in\n    tag_291:\n        /* \"#utility.yul\":11159:11160   */\n      0x01\n        /* \"#utility.yul\":11152:11157   */\n      dup2\n        /* \"#utility.yul\":11148:11161   */\n      add\n        /* \"#utility.yul\":11139:11161   */\n      swap1\n      pop\n        /* \"#utility.yul\":11115:11235   */\n      jump(tag_288)\n    tag_290:\n        /* \"#utility.yul\":11055:11241   */\n      pop\n      pop\n      jump\t// out\n        /* \"#utility.yul\":11247:11790   */\n    tag_154:\n        /* \"#utility.yul\":11348:11350   */\n      0x1f\n        /* \"#utility.yul\":11343:11346   */\n      dup3\n        /* \"#utility.yul\":11340:11351   */\n      gt\n        /* \"#utility.yul\":11337:11783   */\n      iszero\n      tag_293\n      jumpi\n        /* \"#utility.yul\":11382:11420   */\n      tag_294\n        /* \"#utility.yul\":11414:11419   */\n      dup2\n        /* \"#utility.yul\":11382:11420   */\n      tag_143\n      jump\t// in\n    tag_294:\n        /* \"#utility.yul\":11466:11495   */\n      tag_295\n        /* \"#utility.yul\":11484:11494   */\n      dup5\n        /* \"#utility.yul\":11466:11495   */\n      tag_144\n      jump\t// in\n    tag_295:\n        /* \"#utility.yul\":11456:11464   */\n      dup2\n        /* \"#utility.yul\":11452:11496   */\n      add\n        /* \"#utility.yul\":11649:11651   */\n      0x20\n        /* \"#utility.yul\":11637:11647   */\n      dup6\n        /* \"#utility.yul\":11634:11652   */\n      lt\n        /* \"#utility.yul\":11631:11680   */\n      iszero\n      tag_296\n      jumpi\n        /* \"#utility.yul\":11670:11678   */\n      dup2\n        /* \"#utility.yul\":11655:11678   */\n      swap1\n      pop\n        /* \"#utility.yul\":11631:11680   */\n    tag_296:\n        /* \"#utility.yul\":11693:11773   */\n      tag_297\n        /* \"#utility.yul\":11749:11771   */\n      tag_298\n        /* \"#utility.yul\":11767:11770   */\n      dup6\n        /* \"#utility.yul\":11749:11771   */\n      tag_144\n      jump\t// in\n    tag_298:\n        /* \"#utility.yul\":11739:11747   */\n      dup4\n        /* \"#utility.yul\":11735:11772   */\n      add\n        /* \"#utility.yul\":11722:11733   */\n      dup3\n        /* \"#utility.yul\":11693:11773   */\n      tag_153\n      jump\t// in\n    tag_297:\n        /* \"#utility.yul\":11352:11783   */\n      pop\n      pop\n        /* \"#utility.yul\":11337:11783   */\n    tag_293:\n        /* \"#utility.yul\":11247:11790   */\n      pop\n      pop\n      pop\n      jump\t// out\n        /* \"#utility.yul\":11796:11913   */\n    tag_155:\n        /* \"#utility.yul\":11850:11858   */\n      0x00\n        /* \"#utility.yul\":11900:11905   */\n      dup3\n        /* \"#utility.yul\":11894:11898   */\n      dup3\n        /* \"#utility.yul\":11890:11906   */\n      shr\n        /* \"#utility.yul\":11869:11906   */\n      swap1\n      pop\n        /* \"#utility.yul\":11796:11913   */\n      swap3\n      swap2\n      pop\n      pop\n      jump\t// out\n        /* \"#utility.yul\":11919:12088   */\n    tag_156:\n        /* \"#utility.yul\":11963:11969   */\n      0x00\n        /* \"#utility.yul\":11996:12047   */\n      tag_301\n        /* \"#utility.yul\":12044:12045   */\n      0x00\n        /* \"#utility.yul\":12040:12046   */\n      not\n        /* \"#utility.yul\":12032:12037   */\n      dup5\n        /* \"#utility.yul\":12029:12030   */\n      0x08\n        /* \"#utility.yul\":12025:12038   */\n      mul\n        /* \"#utility.yul\":11996:12047   */\n      tag_155\n      jump\t// in\n    tag_301:\n        /* \"#utility.yul\":11992:12048   */\n      not\n        /* \"#utility.yul\":12077:12081   */\n      dup1\n        /* \"#utility.yul\":12071:12075   */\n      dup4\n        /* \"#utility.yul\":12067:12082   */\n      and\n        /* \"#utility.yul\":12057:12082   */\n      swap2\n      pop\n        /* \"#utility.yul\":11970:12088   */\n      pop\n        /* \"#utility.yul\":11919:12088   */\n      swap3\n      swap2\n      pop\n      pop\n      jump\t// out\n        /* \"#utility.yul\":12093:12388   */\n    tag_157:\n        /* \"#utility.yul\":12169:12173   */\n      0x00\n        /* \"#utility.yul\":12315:12344   */\n      tag_303\n        /* \"#utility.yul\":12340:12343   */\n      dup4\n        /* \"#utility.yul\":12334:12338   */\n      dup4\n        /* \"#utility.yul\":12315:12344   */\n      tag_156\n      jump\t// in\n    tag_303:\n        /* \"#utility.yul\":12307:12344   */\n      swap2\n      pop\n        /* \"#utility.yul\":12377:12380   */\n      dup3\n        /* \"#utility.yul\":12374:12375   */\n      0x02\n        /* \"#utility.yul\":12370:12381   */\n      mul\n        /* \"#utility.yul\":12364:12368   */\n      dup3\n        /* \"#utility.yul\":12361:12382   */\n      or\n        /* \"#utility.yul\":12353:12382   */\n      swap1\n      pop\n        /* \"#utility.yul\":12093:12388   */\n      swap3\n      swap2\n      pop\n      pop\n      jump\t// out\n        /* \"#utility.yul\":12393:13788   */\n    tag_84:\n        /* \"#utility.yul\":12510:12547   */\n      tag_305\n        /* \"#utility.yul\":12543:12546   */\n      dup3\n        /* \"#utility.yul\":12510:12547   */\n      tag_121\n      jump\t// in\n    tag_305:\n        /* \"#utility.yul\":12612:12630   */\n      0xffffffffffffffff\n        /* \"#utility.yul\":12604:12610   */\n      dup2\n        /* \"#utility.yul\":12601:12631   */\n      gt\n        /* \"#utility.yul\":12598:12654   */\n      iszero\n      tag_306\n      jumpi\n        /* \"#utility.yul\":12634:12652   */\n      tag_307\n      tag_131\n      jump\t// in\n    tag_307:\n        /* \"#utility.yul\":12598:12654   */\n    tag_306:\n        /* \"#utility.yul\":12678:12716   */\n      tag_308\n        /* \"#utility.yul\":12710:12714   */\n      dup3\n        /* \"#utility.yul\":12704:12715   */\n      sload\n        /* \"#utility.yul\":12678:12716   */\n      tag_71\n      jump\t// in\n    tag_308:\n        /* \"#utility.yul\":12763:12830   */\n      tag_309\n        /* \"#utility.yul\":12823:12829   */\n      dup3\n        /* \"#utility.yul\":12815:12821   */\n      dup3\n        /* \"#utility.yul\":12809:12813   */\n      dup6\n        /* \"#utility.yul\":12763:12830   */\n      tag_154\n      jump\t// in\n    tag_309:\n        /* \"#utility.yul\":12857:12858   */\n      0x00\n        /* \"#utility.yul\":12881:12885   */\n      0x20\n        /* \"#utility.yul\":12868:12885   */\n      swap1\n      pop\n        /* \"#utility.yul\":12913:12915   */\n      0x1f\n        /* \"#utility.yul\":12905:12911   */\n      dup4\n        /* \"#utility.yul\":12902:12916   */\n      gt\n        /* \"#utility.yul\":12930:12931   */\n      0x01\n        /* \"#utility.yul\":12925:13543   */\n      dup2\n      eq\n      tag_311\n      jumpi\n        /* \"#utility.yul\":13587:13588   */\n      0x00\n        /* \"#utility.yul\":13604:13610   */\n      dup5\n        /* \"#utility.yul\":13601:13678   */\n      iszero\n      tag_312\n      jumpi\n        /* \"#utility.yul\":13653:13662   */\n      dup3\n        /* \"#utility.yul\":13648:13651   */\n      dup8\n        /* \"#utility.yul\":13644:13663   */\n      add\n        /* \"#utility.yul\":13638:13664   */\n      mload\n        /* \"#utility.yul\":13629:13664   */\n      swap1\n      pop\n        /* \"#utility.yul\":13601:13678   */\n    tag_312:\n        /* \"#utility.yul\":13704:13771   */\n      tag_313\n        /* \"#utility.yul\":13764:13770   */\n      dup6\n        /* \"#utility.yul\":13757:13762   */\n      dup3\n        /* \"#utility.yul\":13704:13771   */\n      tag_157\n      jump\t// in\n    tag_313:\n        /* \"#utility.yul\":13698:13702   */\n      dup7\n        /* \"#utility.yul\":13691:13772   */\n      sstore\n        /* \"#utility.yul\":13560:13782   */\n      pop\n        /* \"#utility.yul\":12895:13782   */\n      jump(tag_310)\n        /* \"#utility.yul\":12925:13543   */\n    tag_311:\n        /* \"#utility.yul\":12977:12981   */\n      0x1f\n        /* \"#utility.yul\":12973:12982   */\n      not\n        /* \"#utility.yul\":12965:12971   */\n      dup5\n        /* \"#utility.yul\":12961:12983   */\n      and\n        /* \"#utility.yul\":13011:13048   */\n      tag_314\n        /* \"#utility.yul\":13043:13047   */\n      dup7\n        /* \"#utility.yul\":13011:13048   */\n      tag_143\n      jump\t// in\n    tag_314:\n        /* \"#utility.yul\":13070:13071   */\n      0x00\n        /* \"#utility.yul\":13084:13292   */\n    tag_315:\n        /* \"#utility.yul\":13098:13105   */\n      dup3\n        /* \"#utility.yul\":13095:13096   */\n      dup2\n        /* \"#utility.yul\":13092:13106   */\n      lt\n        /* \"#utility.yul\":13084:13292   */\n      iszero\n      tag_317\n      jumpi\n        /* \"#utility.yul\":13177:13186   */\n      dup5\n        /* \"#utility.yul\":13172:13175   */\n      dup10\n        /* \"#utility.yul\":13168:13187   */\n      add\n        /* \"#utility.yul\":13162:13188   */\n      mload\n        /* \"#utility.yul\":13154:13160   */\n      dup3\n        /* \"#utility.yul\":13147:13189   */\n      sstore\n        /* \"#utility.yul\":13228:13229   */\n      0x01\n        /* \"#utility.yul\":13220:13226   */\n      dup3\n        /* \"#utility.yul\":13216:13230   */\n      add\n        /* \"#utility.yul\":13206:13230   */\n      swap2\n      pop\n        /* \"#utility.yul\":13275:13277   */\n      0x20\n        /* \"#utility.yul\":13264:13273   */\n      dup6\n        /* \"#utility.yul\":13260:13278   */\n      add\n        /* \"#utility.yul\":13247:13278   */\n      swap5\n      pop\n        /* \"#utility.yul\":13121:13125   */\n      0x20\n        /* \"#utility.yul\":13118:13119   */\n      dup2\n        /* \"#utility.yul\":13114:13126   */\n      add\n        /* \"#utility.yul\":13109:13126   */\n      swap1\n      pop\n        /* \"#utility.yul\":13084:13292   */\n      jump(tag_315)\n    tag_317:\n        /* \"#utility.yul\":13320:13326   */\n      dup7\n        /* \"#utility.yul\":13311:13318   */\n      dup4\n        /* \"#utility.yul\":13308:13327   */\n      lt\n        /* \"#utility.yul\":13305:13484   */\n      iszero\n      tag_318\n      jumpi\n        /* \"#utility.yul\":13378:13387   */\n      dup5\n        /* \"#utility.yul\":13373:13376   */\n      dup10\n        /* \"#utility.yul\":13369:13388   */\n      add\n        /* \"#utility.yul\":13363:13389   */\n      mload\n        /* \"#utility.yul\":13421:13469   */\n      tag_319\n        /* \"#utility.yul\":13463:13467   */\n      0x1f\n        /* \"#utility.yul\":13455:13461   */\n      dup10\n        /* \"#utility.yul\":13451:13468   */\n      and\n        /* \"#utility.yul\":13440:13449   */\n      dup3\n        /* \"#utility.yul\":13421:13469   */\n      tag_156\n      jump\t// in\n    tag_319:\n        /* \"#utility.yul\":13413:13419   */\n      dup4\n        /* \"#utility.yul\":13406:13470   */\n      sstore\n        /* \"#utility.yul\":13328:13484   */\n      pop\n        /* \"#utility.yul\":13305:13484   */\n    tag_318:\n        /* \"#utility.yul\":13530:13531   */\n      0x01\n        /* \"#utility.yul\":13526:13527   */\n      0x02\n        /* \"#utility.yul\":13518:13524   */\n      dup9\n        /* \"#utility.yul\":13514:13528   */\n      mul\n        /* \"#utility.yul\":13510:13532   */\n      add\n        /* \"#utility.yul\":13504:13508   */\n      dup9\n        /* \"#utility.yul\":13497:13533   */\n      sstore\n        /* \"#utility.yul\":12932:13543   */\n      pop\n      pop\n      pop\n        /* \"#utility.yul\":12895:13782   */\n    tag_310:\n      pop\n        /* \"#utility.yul\":12485:13788   */\n      pop\n      pop\n      pop\n        /* \"#utility.yul\":12393:13788   */\n      pop\n      pop\n      jump\t// out\n        /* \"#utility.yul\":13794:14027   */\n    tag_100:\n        /* \"#utility.yul\":13833:13836   */\n      0x00\n        /* \"#utility.yul\":13856:13880   */\n      tag_321\n        /* \"#utility.yul\":13874:13879   */\n      dup3\n        /* \"#utility.yul\":13856:13880   */\n      tag_111\n      jump\t// in\n    tag_321:\n        /* \"#utility.yul\":13847:13880   */\n      swap2\n      pop\n        /* \"#utility.yul\":13902:13968   */\n      0xffffffffffffffffffffffffffffffffffffffffffffffffffffffffffffffff\n        /* \"#utility.yul\":13895:13900   */\n      dup3\n        /* \"#utility.yul\":13892:13969   */\n      sub\n        /* \"#utility.yul\":13889:13992   */\n      tag_322\n      jumpi\n        /* \"#utility.yul\":13972:13990   */\n      tag_323\n      tag_141\n      jump\t// in\n    tag_323:\n        /* \"#utility.yul\":13889:13992   */\n    tag_322:\n        /* \"#utility.yul\":14019:14020   */\n      0x01\n        /* \"#utility.yul\":14012:14017   */\n      dup3\n        /* \"#utility.yul\":14008:14021   */\n      add\n        /* \"#utility.yul\":14001:14021   */\n      swap1\n      pop\n        /* \"#utility.yul\":13794:14027   */\n      swap2\n      swap1\n      pop\n      jump\t// out\n\n    auxdata: 0xa2646970667358221220f91faa0d8383aec70f9040d04d9fba1c9368c5e17685bbd57abeedb6ad1fad1c64736f6c63430008190033\n}\n","bytecode":{"linkReferences":{},"object":"608060405234801561000f575f80fd5b5060405161114e38038061114e83398181016040528101906100319190610110565b8060015f6101000a81548173ffffffffffffffffffffffffffffffffffffffff021916908373ffffffffffffffffffffffffffffffffffffffff16021790555081600281905550505061014e565b5f80fd5b5f819050919050565b61009581610083565b811461009f575f80fd5b50565b5f815190506100b08161008c565b92915050565b5f73ffffffffffffffffffffffffffffffffffffffff82169050919050565b5f6100df826100b6565b9050919050565b6100ef816100d5565b81146100f9575f80fd5b50565b5f8151905061010a816100e6565b92915050565b5f80604083850312156101265761012561007f565b5b5f610133858286016100a2565b9250506020610144858286016100fc565b9150509250929050565b610ff38061015b5f395ff3fe608060405260043610610085575f3560e01c806382fde0931161005857806382fde093146101575780638a9cfd5514610181578063937e09b1146101a9578063d7bb99ba146101d3578063d7d1bbdb146101dd57610085565b806303441006146100895780630a144391146100b1578063481c6a75146100ed57806381d12c5814610117575b5f80fd5b348015610094575f80fd5b506100af60048036038101906100aa9190610819565b610205565b005b3480156100bc575f80fd5b506100d760048036038101906100d2919061089e565b610343565b6040516100e491906108e3565b60405180910390f35b3480156100f8575f80fd5b50610101610360565b60405161010e919061090b565b60405180910390f35b348015610122575f80fd5b5061013d60048036038101906101389190610819565b610385565b60405161014e9594939291906109c3565b60405180910390f35b348015610162575f80fd5b5061016b610477565b6040516101789190610a1b565b60405180910390f35b34801561018c575f80fd5b506101a760048036038101906101a29190610b8a565b61047d565b005b3480156101b4575f80fd5b506101bd610617565b6040516101ca9190610a1b565b60405180910390f35b6101db61061d565b005b3480156101e8575f80fd5b5061020360048036038101906101fe9190610819565b610698565b005b60015f9054906101000a900473ffffffffffffffffffffffffffffffffffffffff1673ffffffffffffffffffffffffffffffffffffffff163373ffffffffffffffffffffffffffffffffffffffff161461025d575f80fd5b5f80828154811061027157610270610bf6565b5b905f5260205f2090600502019050600260045461028e9190610c7d565b81600301541161029c575f80fd5b8060020160149054906101000a900460ff16156102b7575f80fd5b806002015f9054906101000a900473ffffffffffffffffffffffffffffffffffffffff1673ffffffffffffffffffffffffffffffffffffffff166108fc826001015490811502906040515f60405180830381858888f19350505050158015610321573d5f803e3d5ffd5b5060018160020160146101000a81548160ff0219169083151502179055505050565b6003602052805f5260405f205f915054906101000a900460ff1681565b60015f9054906101000a900473ffffffffffffffffffffffffffffffffffffffff1681565b5f8181548110610393575f80fd5b905f5260205f2090600502015f91509050805f0180546103b290610cda565b80601f01602080910402602001604051908101604052809291908181526020018280546103de90610cda565b80156104295780601f1061040057610100808354040283529160200191610429565b820191905f5260205f20905b81548152906001019060200180831161040c57829003601f168201915b505050505090806001015490806002015f9054906101000a900473ffffffffffffffffffffffffffffffffffffffff16908060020160149054906101000a900460ff16908060030154905085565b60045481565b60015f9054906101000a900473ffffffffffffffffffffffffffffffffffffffff1673ffffffffffffffffffffffffffffffffffffffff163373ffffffffffffffffffffffffffffffffffffffff16146104d5575f80fd5b5f808054905090505f8060018160018154018082558091505003905f5260205f209050508481838154811061050d5761050c610bf6565b5b905f5260205f2090600502015f0190816105279190610ea7565b508381838154811061053c5761053b610bf6565b5b905f5260205f209060050201600101819055508281838154811061056357610562610bf6565b5b905f5260205f2090600502016002015f6101000a81548173ffffffffffffffffffffffffffffffffffffffff021916908373ffffffffffffffffffffffffffffffffffffffff1602179055505f8183815481106105c3576105c2610bf6565b5b905f5260205f20906005020160020160146101000a81548160ff0219169083151502179055505f8183815481106105fd576105fc610bf6565b5b905f5260205f209060050201600301819055505050505050565b60025481565b600254341161062a575f80fd5b600160035f3373ffffffffffffffffffffffffffffffffffffffff1673ffffffffffffffffffffffffffffffffffffffff1681526020019081526020015f205f6101000a81548160ff02191690831515021790555060045f81548092919061069190610f76565b9190505550565b5f8082815481106106ac576106ab610bf6565b5b905f5260205f209060050201905060035f3373ffffffffffffffffffffffffffffffffffffffff1673ffffffffffffffffffffffffffffffffffffffff1681526020019081526020015f205f9054906101000a900460ff1661070c575f80fd5b806004015f3373ffffffffffffffffffffffffffffffffffffffff1673ffffffffffffffffffffffffffffffffffffffff1681526020019081526020015f205f9054906101000a900460ff1615610761575f80fd5b6001816004015f3373ffffffffffffffffffffffffffffffffffffffff1673ffffffffffffffffffffffffffffffffffffffff1681526020019081526020015f205f6101000a81548160ff021916908315150217905550806003015f8154809291906107cc90610f76565b91905055505050565b5f604051905090565b5f80fd5b5f80fd5b5f819050919050565b6107f8816107e6565b8114610802575f80fd5b50565b5f81359050610813816107ef565b92915050565b5f6020828403121561082e5761082d6107de565b5b5f61083b84828501610805565b91505092915050565b5f73ffffffffffffffffffffffffffffffffffffffff82169050919050565b5f61086d82610844565b9050919050565b61087d81610863565b8114610887575f80fd5b50565b5f8135905061089881610874565b92915050565b5f602082840312156108b3576108b26107de565b5b5f6108c08482850161088a565b91505092915050565b5f8115159050919050565b6108dd816108c9565b82525050565b5f6020820190506108f65f8301846108d4565b92915050565b61090581610863565b82525050565b5f60208201905061091e5f8301846108fc565b92915050565b5f81519050919050565b5f82825260208201905092915050565b8281835e5f83830152505050565b5f601f19601f8301169050919050565b5f61096682610924565b610970818561092e565b935061098081856020860161093e565b6109898161094c565b840191505092915050565b61099d816107e6565b82525050565b5f6109ad82610844565b9050919050565b6109bd816109a3565b82525050565b5f60a0820190508181035f8301526109db818861095c565b90506109ea6020830187610994565b6109f760408301866109b4565b610a0460608301856108d4565b610a116080830184610994565b9695505050505050565b5f602082019050610a2e5f830184610994565b92915050565b5f80fd5b5f80fd5b7f4e487b71000000000000000000000000000000000000000000000000000000005f52604160045260245ffd5b610a728261094c565b810181811067ffffffffffffffff82111715610a9157610a90610a3c565b5b80604052505050565b5f610aa36107d5565b9050610aaf8282610a69565b919050565b5f67ffffffffffffffff821115610ace57610acd610a3c565b5b610ad78261094c565b9050602081019050919050565b828183375f83830152505050565b5f610b04610aff84610ab4565b610a9a565b905082815260208101848484011115610b2057610b1f610a38565b5b610b2b848285610ae4565b509392505050565b5f82601f830112610b4757610b46610a34565b5b8135610b57848260208601610af2565b91505092915050565b610b69816109a3565b8114610b73575f80fd5b50565b5f81359050610b8481610b60565b92915050565b5f805f60608486031215610ba157610ba06107de565b5b5f84013567ffffffffffffffff811115610bbe57610bbd6107e2565b5b610bca86828701610b33565b9350506020610bdb86828701610805565b9250506040610bec86828701610b76565b9150509250925092565b7f4e487b71000000000000000000000000000000000000000000000000000000005f52603260045260245ffd5b7f4e487b71000000000000000000000000000000000000000000000000000000005f52601260045260245ffd5b7f4e487b71000000000000000000000000000000000000000000000000000000005f52601160045260245ffd5b5f610c87826107e6565b9150610c92836107e6565b925082610ca257610ca1610c23565b5b828204905092915050565b7f4e487b71000000000000000000000000000000000000000000000000000000005f52602260045260245ffd5b5f6002820490506001821680610cf157607f821691505b602082108103610d0457610d03610cad565b5b50919050565b5f819050815f5260205f209050919050565b5f6020601f8301049050919050565b5f82821b905092915050565b5f60088302610d667fffffffffffffffffffffffffffffffffffffffffffffffffffffffffffffffff82610d2b565b610d708683610d2b565b95508019841693508086168417925050509392505050565b5f819050919050565b5f610dab610da6610da1846107e6565b610d88565b6107e6565b9050919050565b5f819050919050565b610dc483610d91565b610dd8610dd082610db2565b848454610d37565b825550505050565b5f90565b610dec610de0565b610df7818484610dbb565b505050565b5b81811015610e1a57610e0f5f82610de4565b600181019050610dfd565b5050565b601f821115610e5f57610e3081610d0a565b610e3984610d1c565b81016020851015610e48578190505b610e5c610e5485610d1c565b830182610dfc565b50505b505050565b5f82821c905092915050565b5f610e7f5f1984600802610e64565b1980831691505092915050565b5f610e978383610e70565b9150826002028217905092915050565b610eb082610924565b67ffffffffffffffff811115610ec957610ec8610a3c565b5b610ed38254610cda565b610ede828285610e1e565b5f60209050601f831160018114610f0f575f8415610efd578287015190505b610f078582610e8c565b865550610f6e565b601f198416610f1d86610d0a565b5f5b82811015610f4457848901518255600182019150602085019450602081019050610f1f565b86831015610f615784890151610f5d601f891682610e70565b8355505b6001600288020188555050505b505050505050565b5f610f80826107e6565b91507fffffffffffffffffffffffffffffffffffffffffffffffffffffffffffffffff8203610fb257610fb1610c50565b5b60018201905091905056fea2646970667358221220f91faa0d8383aec70f9040d04d9fba1c9368c5e17685bbd57abeedb6ad1fad1c64736f6c63430008190033","opcodes":"PUSH1 0x80 PUSH1 0x40 MSTORE CALLVALUE DUP1 ISZERO PUSH2 0xF JUMPI PUSH0 DUP1 REVERT JUMPDEST POP PUSH1 0x40 MLOAD PUSH2 0x114E CODESIZE SUB DUP1 PUSH2 0x114E DUP4 CODECOPY DUP2 DUP2 ADD PUSH1 0x40 MSTORE DUP2 ADD SWAP1 PUSH2 0x31 SWAP2 SWAP1 PUSH2 0x110 JUMP JUMPDEST DUP1 PUSH1 0x1 PUSH0 PUSH2 0x100 EXP DUP2 SLOAD DUP2 PUSH20 0xFFFFFFFFFFFFFFFFFFFFFFFFFFFFFFFFFFFFFFFF MUL NOT AND SWAP1 DUP4 PUSH20 0xFFFFFFFFFFFFFFFFFFFFFFFFFFFFFFFFFFFFFFFF AND MUL OR SWAP1 SSTORE POP DUP2 PUSH1 0x2 DUP2 SWAP1 SSTORE POP POP POP PUSH2 0x14E JUMP JUMPDEST PUSH0 DUP1 REVERT JUMPDEST PUSH0 DUP2 SWAP1 POP SWAP2 SWAP1 POP JUMP JUMPDEST PUSH2 0x95 DUP2 PUSH2 0x83 JUMP JUMPDEST DUP2 EQ PUSH2 0x9F JUMPI PUSH0 DUP1 REVERT JUMPDEST POP JUMP JUMPDEST PUSH0 DUP2 MLOAD SWAP1 POP PUSH2 0xB0 DUP2 PUSH2 0x8C JUMP JUMPDEST SWAP3 SWAP2 POP POP JUMP JUMPDEST PUSH0 PUSH20 0xFFFFFFFFFFFFFFFFFFFFFFFFFFFFFFFFFFFFFFFF DUP3 AND SWAP1 POP SWAP2 SWAP1 POP JUMP JUMPDEST PUSH0 PUSH2 0xDF DUP3 PUSH2 0xB6 JUMP JUMPDEST SWAP1 POP SWAP2 SWAP1 POP JUMP JUMPDEST PUSH2 0xEF DUP2 PUSH2 0xD5 JUMP JUMPDEST DUP2 EQ PUSH2 0xF9 JUMPI PUSH0 DUP1 REVERT JUMPDEST POP JUMP JUMPDEST PUSH0 DUP2 MLOAD SWAP1 POP PUSH2 0x10A DUP2 PUSH2 0xE6 JUMP JUMPDEST SWAP3 SWAP2 POP POP JUMP JUMPDEST PUSH0 DUP1 PUSH1 0x40 DUP4 DUP6 SUB SLT ISZERO PUSH2 0x126 JUMPI PUSH2 0x125 PUSH2 0x7F JUMP JUMPDEST JUMPDEST PUSH0 PUSH2 0x133 DUP6 DUP3 DUP7 ADD PUSH2 0xA2 JUMP JUMPDEST SWAP3 POP POP PUSH1 0x20 PUSH2 0x144 DUP6 DUP3 DUP7 ADD PUSH2 0xFC JUMP JUMPDEST SWAP2 POP POP SWAP3 POP SWAP3 SWAP1 POP JUMP JUMPDEST PUSH2 0xFF3 DUP1 PUSH2 0x15B PUSH0 CODECOPY PUSH0 RETURN INVALID PUSH1 0x80 PUSH1 0x40 MSTORE PUSH1 0x4 CALLDATASIZE LT PUSH2 0x85 JUMPI PUSH0 CALLDATALOAD PUSH1 0xE0 SHR DUP1 PUSH4 0x82FDE093 GT PUSH2 0x58 JUMPI DUP1 PUSH4 0x82FDE093 EQ PUSH2 0x157 JUMPI DUP1 PUSH4 0x8A9CFD55 EQ PUSH2 0x181 JUMPI DUP1 PUSH4 0x937E09B1 EQ PUSH2 0x1A9 JUMPI DUP1 PUSH4 0xD7BB99BA EQ PUSH2 0x1D3 JUMPI DUP1 PUSH4 0xD7D1BBDB EQ PUSH2 0x1DD JUMPI PUSH2 0x85 JUMP JUMPDEST DUP1 PUSH4 0x3441006 EQ PUSH2 0x89 JUMPI DUP1 PUSH4 0xA144391 EQ PUSH2 0xB1 JUMPI DUP1 PUSH4 0x481C6A75 EQ PUSH2 0xED JUMPI DUP1 PUSH4 0x81D12C58 EQ PUSH2 0x117 JUMPI JUMPDEST PUSH0 DUP1 REVERT JUMPDEST CALLVALUE DUP1 ISZERO PUSH2 0x94 JUMPI PUSH0 DUP1 REVERT JUMPDEST POP PUSH2 0xAF PUSH1 0x4 DUP1 CALLDATASIZE SUB DUP2 ADD SWAP1 PUSH2 0xAA SWAP2 SWAP1 PUSH2 0x819 JUMP JUMPDEST PUSH2 0x205 JUMP JUMPDEST STOP JUMPDEST CALLVALUE DUP1 ISZERO PUSH2 0xBC JUMPI PUSH0 DUP1 REVERT JUMPDEST POP PUSH2 0xD7 PUSH1 0x4 DUP1 CALLDATASIZE SUB DUP2 ADD SWAP1 PUSH2 0xD2 SWAP2 SWAP1 PUSH2 0x89E JUMP JUMPDEST PUSH2 0x343 JUMP JUMPDEST PUSH1 0x40 MLOAD PUSH2 0xE4 SWAP2 SWAP1 PUSH2 0x8E3 JUMP JUMPDEST PUSH1 0x40 MLOAD DUP1 SWAP2 SUB SWAP1 RETURN JUMPDEST CALLVALUE DUP1 ISZERO PUSH2 0xF8 JUMPI PUSH0 DUP1 REVERT JUMPDEST POP PUSH2 0x101 PUSH2 0x360 JUMP JUMPDEST PUSH1 0x40 MLOAD PUSH2 0x10E SWAP2 SWAP1 PUSH2 0x90B JUMP JUMPDEST PUSH1 0x40 MLOAD DUP1 SWAP2 SUB SWAP1 RETURN JUMPDEST CALLVALUE DUP1 ISZERO PUSH2 0x122 JUMPI PUSH0 DUP1 REVERT JUMPDEST POP PUSH2 0x13D PUSH1 0x4 DUP1 CALLDATASIZE SUB DUP2 ADD SWAP1 PUSH2 0x138 SWAP2 SWAP1 PUSH2 0x819 JUMP JUMPDEST PUSH2 0x385 JUMP JUMPDEST PUSH1 0x40 MLOAD PUSH2 0x14E SWAP6 SWAP5 SWAP4 SWAP3 SWAP2 SWAP1 PUSH2 0x9C3 JUMP JUMPDEST PUSH1 0x40 MLOAD DUP1 SWAP2 SUB SWAP1 RETURN JUMPDEST CALLVALUE DUP1 ISZERO PUSH2 0x162 JUMPI PUSH0 DUP1 REVERT JUMPDEST POP PUSH2 0x16B PUSH2 0x477 JUMP JUMPDEST PUSH1 0x40 MLOAD PUSH2 0x178 SWAP2 SWAP1 PUSH2 0xA1B JUMP JUMPDEST PUSH1 0x40 MLOAD DUP1 SWAP2 SUB SWAP1 RETURN JUMPDEST CALLVALUE DUP1 ISZERO PUSH2 0x18C JUMPI PUSH0 DUP1 REVERT JUMPDEST POP PUSH2 0x1A7 PUSH1 0x4 DUP1 CALLDATASIZE SUB DUP2 ADD SWAP1 PUSH2 0x1A2 SWAP2 SWAP1 PUSH2 0xB8A JUMP JUMPDEST PUSH2 0x47D JUMP JUMPDEST STOP JUMPDEST CALLVALUE DUP1 ISZERO PUSH2 0x1B4 JUMPI PUSH0 DUP1 REVERT JUMPDEST POP PUSH2 0x1BD PUSH2 0x617 JUMP JUMPDEST PUSH1 0x40 MLOAD PUSH2 0x1CA SWAP2 SWAP1 PUSH2 0xA1B JUMP JUMPDEST PUSH1 0x40 MLOAD DUP1 SWAP2 SUB SWAP1 RETURN JUMPDEST PUSH2 0x1DB PUSH2 0x61D JUMP JUMPDEST STOP JUMPDEST CALLVALUE DUP1 ISZERO PUSH2 0x1E8 JUMPI PUSH0 DUP1 REVERT JUMPDEST POP PUSH2 0x203 PUSH1 0x4 DUP1 CALLDATASIZE SUB DUP2 ADD SWAP1 PUSH2 0x1FE SWAP2 SWAP1 PUSH2 0x819 JUMP JUMPDEST PUSH2 0x698 JUMP JUMPDEST STOP JUMPDEST PUSH1 0x1 PUSH0 SWAP1 SLOAD SWAP1 PUSH2 0x100 EXP SWAP1 DIV PUSH20 0xFFFFFFFFFFFFFFFFFFFFFFFFFFFFFFFFFFFFFFFF AND PUSH20 0xFFFFFFFFFFFFFFFFFFFFFFFFFFFFFFFFFFFFFFFF AND CALLER PUSH20 0xFFFFFFFFFFFFFFFFFFFFFFFFFFFFFFFFFFFFFFFF AND EQ PUSH2 0x25D JUMPI PUSH0 DUP1 REVERT JUMPDEST PUSH0 DUP1 DUP3 DUP2 SLOAD DUP2 LT PUSH2 0x271 JUMPI PUSH2 0x270 PUSH2 0xBF6 JUMP JUMPDEST JUMPDEST SWAP1 PUSH0 MSTORE PUSH1 0x20 PUSH0 KECCAK256 SWAP1 PUSH1 0x5 MUL ADD SWAP1 POP PUSH1 0x2 PUSH1 0x4 SLOAD PUSH2 0x28E SWAP2 SWAP1 PUSH2 0xC7D JUMP JUMPDEST DUP2 PUSH1 0x3 ADD SLOAD GT PUSH2 0x29C JUMPI PUSH0 DUP1 REVERT JUMPDEST DUP1 PUSH1 0x2 ADD PUSH1 0x14 SWAP1 SLOAD SWAP1 PUSH2 0x100 EXP SWAP1 DIV PUSH1 0xFF AND ISZERO PUSH2 0x2B7 JUMPI PUSH0 DUP1 REVERT JUMPDEST DUP1 PUSH1 0x2 ADD PUSH0 SWAP1 SLOAD SWAP1 PUSH2 0x100 EXP SWAP1 DIV PUSH20 0xFFFFFFFFFFFFFFFFFFFFFFFFFFFFFFFFFFFFFFFF AND PUSH20 0xFFFFFFFFFFFFFFFFFFFFFFFFFFFFFFFFFFFFFFFF AND PUSH2 0x8FC DUP3 PUSH1 0x1 ADD SLOAD SWAP1 DUP2 ISZERO MUL SWAP1 PUSH1 0x40 MLOAD PUSH0 PUSH1 0x40 MLOAD DUP1 DUP4 SUB DUP2 DUP6 DUP9 DUP9 CALL SWAP4 POP POP POP POP ISZERO DUP1 ISZERO PUSH2 0x321 JUMPI RETURNDATASIZE PUSH0 DUP1 RETURNDATACOPY RETURNDATASIZE PUSH0 REVERT JUMPDEST POP PUSH1 0x1 DUP2 PUSH1 0x2 ADD PUSH1 0x14 PUSH2 0x100 EXP DUP2 SLOAD DUP2 PUSH1 0xFF MUL NOT AND SWAP1 DUP4 ISZERO ISZERO MUL OR SWAP1 SSTORE POP POP POP JUMP JUMPDEST PUSH1 0x3 PUSH1 0x20 MSTORE DUP1 PUSH0 MSTORE PUSH1 0x40 PUSH0 KECCAK256 PUSH0 SWAP2 POP SLOAD SWAP1 PUSH2 0x100 EXP SWAP1 DIV PUSH1 0xFF AND DUP2 JUMP JUMPDEST PUSH1 0x1 PUSH0 SWAP1 SLOAD SWAP1 PUSH2 0x100 EXP SWAP1 DIV PUSH20 0xFFFFFFFFFFFFFFFFFFFFFFFFFFFFFFFFFFFFFFFF AND DUP2 JUMP JUMPDEST PUSH0 DUP2 DUP2 SLOAD DUP2 LT PUSH2 0x393 JUMPI PUSH0 DUP1 REVERT JUMPDEST SWAP1 PUSH0 MSTORE PUSH1 0x20 PUSH0 KECCAK256 SWAP1 PUSH1 0x5 MUL ADD PUSH0 SWAP2 POP SWAP1 POP DUP1 PUSH0 ADD DUP1 SLOAD PUSH2 0x3B2 SWAP1 PUSH2 0xCDA JUMP JUMPDEST DUP1 PUSH1 0x1F ADD PUSH1 0x20 DUP1 SWAP2 DIV MUL PUSH1 0x20 ADD PUSH1 0x40 MLOAD SWAP1 DUP2 ADD PUSH1 0x40 MSTORE DUP1 SWAP3 SWAP2 SWAP1 DUP2 DUP2 MSTORE PUSH1 0x20 ADD DUP3 DUP1 SLOAD PUSH2 0x3DE SWAP1 PUSH2 0xCDA JUMP JUMPDEST DUP1 ISZERO PUSH2 0x429 JUMPI DUP1 PUSH1 0x1F LT PUSH2 0x400 JUMPI PUSH2 0x100 DUP1 DUP4 SLOAD DIV MUL DUP4 MSTORE SWAP2 PUSH1 0x20 ADD SWAP2 PUSH2 0x429 JUMP JUMPDEST DUP3 ADD SWAP2 SWAP1 PUSH0 MSTORE PUSH1 0x20 PUSH0 KECCAK256 SWAP1 JUMPDEST DUP2 SLOAD DUP2 MSTORE SWAP1 PUSH1 0x1 ADD SWAP1 PUSH1 0x20 ADD DUP1 DUP4 GT PUSH2 0x40C JUMPI DUP3 SWAP1 SUB PUSH1 0x1F AND DUP3 ADD SWAP2 JUMPDEST POP POP POP POP POP SWAP1 DUP1 PUSH1 0x1 ADD SLOAD SWAP1 DUP1 PUSH1 0x2 ADD PUSH0 SWAP1 SLOAD SWAP1 PUSH2 0x100 EXP SWAP1 DIV PUSH20 0xFFFFFFFFFFFFFFFFFFFFFFFFFFFFFFFFFFFFFFFF AND SWAP1 DUP1 PUSH1 0x2 ADD PUSH1 0x14 SWAP1 SLOAD SWAP1 PUSH2 0x100 EXP SWAP1 DIV PUSH1 0xFF AND SWAP1 DUP1 PUSH1 0x3 ADD SLOAD SWAP1 POP DUP6 JUMP JUMPDEST PUSH1 0x4 SLOAD DUP2 JUMP JUMPDEST PUSH1 0x1 PUSH0 SWAP1 SLOAD SWAP1 PUSH2 0x100 EXP SWAP1 DIV PUSH20 0xFFFFFFFFFFFFFFFFFFFFFFFFFFFFFFFFFFFFFFFF AND PUSH20 0xFFFFFFFFFFFFFFFFFFFFFFFFFFFFFFFFFFFFFFFF AND CALLER PUSH20 0xFFFFFFFFFFFFFFFFFFFFFFFFFFFFFFFFFFFFFFFF AND EQ PUSH2 0x4D5 JUMPI PUSH0 DUP1 REVERT JUMPDEST PUSH0 DUP1 DUP1 SLOAD SWAP1 POP SWAP1 POP PUSH0 DUP1 PUSH1 0x1 DUP2 PUSH1 0x1 DUP2 SLOAD ADD DUP1 DUP3 SSTORE DUP1 SWAP2 POP POP SUB SWAP1 PUSH0 MSTORE PUSH1 0x20 PUSH0 KECCAK256 SWAP1 POP POP DUP5 DUP2 DUP4 DUP2 SLOAD DUP2 LT PUSH2 0x50D JUMPI PUSH2 0x50C PUSH2 0xBF6 JUMP JUMPDEST JUMPDEST SWAP1 PUSH0 MSTORE PUSH1 0x20 PUSH0 KECCAK256 SWAP1 PUSH1 0x5 MUL ADD PUSH0 ADD SWAP1 DUP2 PUSH2 0x527 SWAP2 SWAP1 PUSH2 0xEA7 JUMP JUMPDEST POP DUP4 DUP2 DUP4 DUP2 SLOAD DUP2 LT PUSH2 0x53C JUMPI PUSH2 0x53B PUSH2 0xBF6 JUMP JUMPDEST JUMPDEST SWAP1 PUSH0 MSTORE PUSH1 0x20 PUSH0 KECCAK256 SWAP1 PUSH1 0x5 MUL ADD PUSH1 0x1 ADD DUP2 SWAP1 SSTORE POP DUP3 DUP2 DUP4 DUP2 SLOAD DUP2 LT PUSH2 0x563 JUMPI PUSH2 0x562 PUSH2 0xBF6 JUMP JUMPDEST JUMPDEST SWAP1 PUSH0 MSTORE PUSH1 0x20 PUSH0 KECCAK256 SWAP1 PUSH1 0x5 MUL ADD PUSH1 0x2 ADD PUSH0 PUSH2 0x100 EXP DUP2 SLOAD DUP2 PUSH20 0xFFFFFFFFFFFFFFFFFFFFFFFFFFFFFFFFFFFFFFFF MUL NOT AND SWAP1 DUP4 PUSH20 0xFFFFFFFFFFFFFFFFFFFFFFFFFFFFFFFFFFFFFFFF AND MUL OR SWAP1 SSTORE POP PUSH0 DUP2 DUP4 DUP2 SLOAD DUP2 LT PUSH2 0x5C3 JUMPI PUSH2 0x5C2 PUSH2 0xBF6 JUMP JUMPDEST JUMPDEST SWAP1 PUSH0 MSTORE PUSH1 0x20 PUSH0 KECCAK256 SWAP1 PUSH1 0x5 MUL ADD PUSH1 0x2 ADD PUSH1 0x14 PUSH2 0x100 EXP DUP2 SLOAD DUP2 PUSH1 0xFF MUL NOT AND SWAP1 DUP4 ISZERO ISZERO MUL OR SWAP1 SSTORE POP PUSH0 DUP2 DUP4 DUP2 SLOAD DUP2 LT PUSH2 0x5FD JUMPI PUSH2 0x5FC PUSH2 0xBF6 JUMP JUMPDEST JUMPDEST SWAP1 PUSH0 MSTORE PUSH1 0x20 PUSH0 KECCAK256 SWAP1 PUSH1 0x5 MUL ADD PUSH1 0x3 ADD DUP2 SWAP1 SSTORE POP POP POP POP POP POP JUMP JUMPDEST PUSH1 0x2 SLOAD DUP2 JUMP JUMPDEST PUSH1 0x2 SLOAD CALLVALUE GT PUSH2 0x62A JUMPI PUSH0 DUP1 REVERT JUMPDEST PUSH1 0x1 PUSH1 0x3 PUSH0 CALLER PUSH20 0xFFFFFFFFFFFFFFFFFFFFFFFFFFFFFFFFFFFFFFFF AND PUSH20 0xFFFFFFFFFFFFFFFFFFFFFFFFFFFFFFFFFFFFFFFF AND DUP2 MSTORE PUSH1 0x20 ADD SWAP1 DUP2 MSTORE PUSH1 0x20 ADD PUSH0 KECCAK256 PUSH0 PUSH2 0x100 EXP DUP2 SLOAD DUP2 PUSH1 0xFF MUL NOT AND SWAP1 DUP4 ISZERO ISZERO MUL OR SWAP1 SSTORE POP PUSH1 0x4 PUSH0 DUP2 SLOAD DUP1 SWAP3 SWAP2 SWAP1 PUSH2 0x691 SWAP1 PUSH2 0xF76 JUMP JUMPDEST SWAP2 SWAP1 POP SSTORE POP JUMP JUMPDEST PUSH0 DUP1 DUP3 DUP2 SLOAD DUP2 LT PUSH2 0x6AC JUMPI PUSH2 0x6AB PUSH2 0xBF6 JUMP JUMPDEST JUMPDEST SWAP1 PUSH0 MSTORE PUSH1 0x20 PUSH0 KECCAK256 SWAP1 PUSH1 0x5 MUL ADD SWAP1 POP PUSH1 0x3 PUSH0 CALLER PUSH20 0xFFFFFFFFFFFFFFFFFFFFFFFFFFFFFFFFFFFFFFFF AND PUSH20 0xFFFFFFFFFFFFFFFFFFFFFFFFFFFFFFFFFFFFFFFF AND DUP2 MSTORE PUSH1 0x20 ADD SWAP1 DUP2 MSTORE PUSH1 0x20 ADD PUSH0 KECCAK256 PUSH0 SWAP1 SLOAD SWAP1 PUSH2 0x100 EXP SWAP1 DIV PUSH1 0xFF AND PUSH2 0x70C JUMPI PUSH0 DUP1 REVERT JUMPDEST DUP1 PUSH1 0x4 ADD PUSH0 CALLER PUSH20 0xFFFFFFFFFFFFFFFFFFFFFFFFFFFFFFFFFFFFFFFF AND PUSH20 0xFFFFFFFFFFFFFFFFFFFFFFFFFFFFFFFFFFFFFFFF AND DUP2 MSTORE PUSH1 0x20 ADD SWAP1 DUP2 MSTORE PUSH1 0x20 ADD PUSH0 KECCAK256 PUSH0 SWAP1 SLOAD SWAP1 PUSH2 0x100 EXP SWAP1 DIV PUSH1 0xFF AND ISZERO PUSH2 0x761 JUMPI PUSH0 DUP1 REVERT JUMPDEST PUSH1 0x1 DUP2 PUSH1 0x4 ADD PUSH0 CALLER PUSH20 0xFFFFFFFFFFFFFFFFFFFFFFFFFFFFFFFFFFFFFFFF AND PUSH20 0xFFFFFFFFFFFFFFFFFFFFFFFFFFFFFFFFFFFFFFFF AND DUP2 MSTORE PUSH1 0x20 ADD SWAP1 DUP2 MSTORE PUSH1 0x20 ADD PUSH0 KECCAK256 PUSH0 PUSH2 0x100 EXP DUP2 SLOAD DUP2 PUSH1 0xFF MUL NOT AND SWAP1 DUP4 ISZERO ISZERO MUL OR SWAP1 SSTORE POP DUP1 PUSH1 0x3 ADD PUSH0 DUP2 SLOAD DUP1 SWAP3 SWAP2 SWAP1 PUSH2 0x7CC SWAP1 PUSH2 0xF76 JUMP JUMPDEST SWAP2 SWAP1 POP SSTORE POP POP POP JUMP JUMPDEST PUSH0 PUSH1 0x40 MLOAD SWAP1 POP SWAP1 JUMP JUMPDEST PUSH0 DUP1 REVERT JUMPDEST PUSH0 DUP1 REVERT JUMPDEST PUSH0 DUP2 SWAP1 POP SWAP2 SWAP1 POP JUMP JUMPDEST PUSH2 0x7F8 DUP2 PUSH2 0x7E6 JUMP JUMPDEST DUP2 EQ PUSH2 0x802 JUMPI PUSH0 DUP1 REVERT JUMPDEST POP JUMP JUMPDEST PUSH0 DUP2 CALLDATALOAD SWAP1 POP PUSH2 0x813 DUP2 PUSH2 0x7EF JUMP JUMPDEST SWAP3 SWAP2 POP POP JUMP JUMPDEST PUSH0 PUSH1 0x20 DUP3 DUP5 SUB SLT ISZERO PUSH2 0x82E JUMPI PUSH2 0x82D PUSH2 0x7DE JUMP JUMPDEST JUMPDEST PUSH0 PUSH2 0x83B DUP5 DUP3 DUP6 ADD PUSH2 0x805 JUMP JUMPDEST SWAP2 POP POP SWAP3 SWAP2 POP POP JUMP JUMPDEST PUSH0 PUSH20 0xFFFFFFFFFFFFFFFFFFFFFFFFFFFFFFFFFFFFFFFF DUP3 AND SWAP1 POP SWAP2 SWAP1 POP JUMP JUMPDEST PUSH0 PUSH2 0x86D DUP3 PUSH2 0x844 JUMP JUMPDEST SWAP1 POP SWAP2 SWAP1 POP JUMP JUMPDEST PUSH2 0x87D DUP2 PUSH2 0x863 JUMP JUMPDEST DUP2 EQ PUSH2 0x887 JUMPI PUSH0 DUP1 REVERT JUMPDEST POP JUMP JUMPDEST PUSH0 DUP2 CALLDATALOAD SWAP1 POP PUSH2 0x898 DUP2 PUSH2 0x874 JUMP JUMPDEST SWAP3 SWAP2 POP POP JUMP JUMPDEST PUSH0 PUSH1 0x20 DUP3 DUP5 SUB SLT ISZERO PUSH2 0x8B3 JUMPI PUSH2 0x8B2 PUSH2 0x7DE JUMP JUMPDEST JUMPDEST PUSH0 PUSH2 0x8C0 DUP5 DUP3 DUP6 ADD PUSH2 0x88A JUMP JUMPDEST SWAP2 POP POP SWAP3 SWAP2 POP POP JUMP JUMPDEST PUSH0 DUP2 ISZERO ISZERO SWAP1 POP SWAP2 SWAP1 POP JUMP JUMPDEST PUSH2 0x8DD DUP2 PUSH2 0x8C9 JUMP JUMPDEST DUP3 MSTORE POP POP JUMP JUMPDEST PUSH0 PUSH1 0x20 DUP3 ADD SWAP1 POP PUSH2 0x8F6 PUSH0 DUP4 ADD DUP5 PUSH2 0x8D4 JUMP JUMPDEST SWAP3 SWAP2 POP POP JUMP JUMPDEST PUSH2 0x905 DUP2 PUSH2 0x863 JUMP JUMPDEST DUP3 MSTORE POP POP JUMP JUMPDEST PUSH0 PUSH1 0x20 DUP3 ADD SWAP1 POP PUSH2 0x91E PUSH0 DUP4 ADD DUP5 PUSH2 0x8FC JUMP JUMPDEST SWAP3 SWAP2 POP POP JUMP JUMPDEST PUSH0 DUP2 MLOAD SWAP1 POP SWAP2 SWAP1 POP JUMP JUMPDEST PUSH0 DUP3 DUP3 MSTORE PUSH1 0x20 DUP3 ADD SWAP1 POP SWAP3 SWAP2 POP POP JUMP JUMPDEST DUP3 DUP2 DUP4 MCOPY PUSH0 DUP4 DUP4 ADD MSTORE POP POP POP JUMP JUMPDEST PUSH0 PUSH1 0x1F NOT PUSH1 0x1F DUP4 ADD AND SWAP1 POP SWAP2 SWAP1 POP JUMP JUMPDEST PUSH0 PUSH2 0x966 DUP3 PUSH2 0x924 JUMP JUMPDEST PUSH2 0x970 DUP2 DUP6 PUSH2 0x92E JUMP JUMPDEST SWAP4 POP PUSH2 0x980 DUP2 DUP6 PUSH1 0x20 DUP7 ADD PUSH2 0x93E JUMP JUMPDEST PUSH2 0x989 DUP2 PUSH2 0x94C JUMP JUMPDEST DUP5 ADD SWAP2 POP POP SWAP3 SWAP2 POP POP JUMP JUMPDEST PUSH2 0x99D DUP2 PUSH2 0x7E6 JUMP JUMPDEST DUP3 MSTORE POP POP JUMP JUMPDEST PUSH0 PUSH2 0x9AD DUP3 PUSH2 0x844 JUMP JUMPDEST SWAP1 POP SWAP2 SWAP1 POP JUMP JUMPDEST PUSH2 0x9BD DUP2 PUSH2 0x9A3 JUMP JUMPDEST DUP3 MSTORE POP POP JUMP JUMPDEST PUSH0 PUSH1 0xA0 DUP3 ADD SWAP1 POP DUP2 DUP2 SUB PUSH0 DUP4 ADD MSTORE PUSH2 0x9DB DUP2 DUP9 PUSH2 0x95C JUMP JUMPDEST SWAP1 POP PUSH2 0x9EA PUSH1 0x20 DUP4 ADD DUP8 PUSH2 0x994 JUMP JUMPDEST PUSH2 0x9F7 PUSH1 0x40 DUP4 ADD DUP7 PUSH2 0x9B4 JUMP JUMPDEST PUSH2 0xA04 PUSH1 0x60 DUP4 ADD DUP6 PUSH2 0x8D4 JUMP JUMPDEST PUSH2 0xA11 PUSH1 0x80 DUP4 ADD DUP5 PUSH2 0x994 JUMP JUMPDEST SWAP7 SWAP6 POP POP POP POP POP POP JUMP JUMPDEST PUSH0 PUSH1 0x20 DUP3 ADD SWAP1 POP PUSH2 0xA2E PUSH0 DUP4 ADD DUP5 PUSH2 0x994 JUMP JUMPDEST SWAP3 SWAP2 POP POP JUMP JUMPDEST PUSH0 DUP1 REVERT JUMPDEST PUSH0 DUP1 REVERT JUMPDEST PUSH32 0x4E487B7100000000000000000000000000000000000000000000000000000000 PUSH0 MSTORE PUSH1 0x41 PUSH1 0x4 MSTORE PUSH1 0x24 PUSH0 REVERT JUMPDEST PUSH2 0xA72 DUP3 PUSH2 0x94C JUMP JUMPDEST DUP2 ADD DUP2 DUP2 LT PUSH8 0xFFFFFFFFFFFFFFFF DUP3 GT OR ISZERO PUSH2 0xA91 JUMPI PUSH2 0xA90 PUSH2 0xA3C JUMP JUMPDEST JUMPDEST DUP1 PUSH1 0x40 MSTORE POP POP POP JUMP JUMPDEST PUSH0 PUSH2 0xAA3 PUSH2 0x7D5 JUMP JUMPDEST SWAP1 POP PUSH2 0xAAF DUP3 DUP3 PUSH2 0xA69 JUMP JUMPDEST SWAP2 SWAP1 POP JUMP JUMPDEST PUSH0 PUSH8 0xFFFFFFFFFFFFFFFF DUP3 GT ISZERO PUSH2 0xACE JUMPI PUSH2 0xACD PUSH2 0xA3C JUMP JUMPDEST JUMPDEST PUSH2 0xAD7 DUP3 PUSH2 0x94C JUMP JUMPDEST SWAP1 POP PUSH1 0x20 DUP2 ADD SWAP1 POP SWAP2 SWAP1 POP JUMP JUMPDEST DUP3 DUP2 DUP4 CALLDATACOPY PUSH0 DUP4 DUP4 ADD MSTORE POP POP POP JUMP JUMPDEST PUSH0 PUSH2 0xB04 PUSH2 0xAFF DUP5 PUSH2 0xAB4 JUMP JUMPDEST PUSH2 0xA9A JUMP JUMPDEST SWAP1 POP DUP3 DUP2 MSTORE PUSH1 0x20 DUP2 ADD DUP5 DUP5 DUP5 ADD GT ISZERO PUSH2 0xB20 JUMPI PUSH2 0xB1F PUSH2 0xA38 JUMP JUMPDEST JUMPDEST PUSH2 0xB2B DUP5 DUP3 DUP6 PUSH2 0xAE4 JUMP JUMPDEST POP SWAP4 SWAP3 POP POP POP JUMP JUMPDEST PUSH0 DUP3 PUSH1 0x1F DUP4 ADD SLT PUSH2 0xB47 JUMPI PUSH2 0xB46 PUSH2 0xA34 JUMP JUMPDEST JUMPDEST DUP2 CALLDATALOAD PUSH2 0xB57 DUP5 DUP3 PUSH1 0x20 DUP7 ADD PUSH2 0xAF2 JUMP JUMPDEST SWAP2 POP POP SWAP3 SWAP2 POP POP JUMP JUMPDEST PUSH2 0xB69 DUP2 PUSH2 0x9A3 JUMP JUMPDEST DUP2 EQ PUSH2 0xB73 JUMPI PUSH0 DUP1 REVERT JUMPDEST POP JUMP JUMPDEST PUSH0 DUP2 CALLDATALOAD SWAP1 POP PUSH2 0xB84 DUP2 PUSH2 0xB60 JUMP JUMPDEST SWAP3 SWAP2 POP POP JUMP JUMPDEST PUSH0 DUP1 PUSH0 PUSH1 0x60 DUP5 DUP7 SUB SLT ISZERO PUSH2 0xBA1 JUMPI PUSH2 0xBA0 PUSH2 0x7DE JUMP JUMPDEST JUMPDEST PUSH0 DUP5 ADD CALLDATALOAD PUSH8 0xFFFFFFFFFFFFFFFF DUP2 GT ISZERO PUSH2 0xBBE JUMPI PUSH2 0xBBD PUSH2 0x7E2 JUMP JUMPDEST JUMPDEST PUSH2 0xBCA DUP7 DUP3 DUP8 ADD PUSH2 0xB33 JUMP JUMPDEST SWAP4 POP POP PUSH1 0x20 PUSH2 0xBDB DUP7 DUP3 DUP8 ADD PUSH2 0x805 JUMP JUMPDEST SWAP3 POP POP PUSH1 0x40 PUSH2 0xBEC DUP7 DUP3 DUP8 ADD PUSH2 0xB76 JUMP JUMPDEST SWAP2 POP POP SWAP3 POP SWAP3 POP SWAP3 JUMP JUMPDEST PUSH32 0x4E487B7100000000000000000000000000000000000000000000000000000000 PUSH0 MSTORE PUSH1 0x32 PUSH1 0x4 MSTORE PUSH1 0x24 PUSH0 REVERT JUMPDEST PUSH32 0x4E487B7100000000000000000000000000000000000000000000000000000000 PUSH0 MSTORE PUSH1 0x12 PUSH1 0x4 MSTORE PUSH1 0x24 PUSH0 REVERT JUMPDEST PUSH32 0x4E487B7100000000000000000000000000000000000000000000000000000000 PUSH0 MSTORE PUSH1 0x11 PUSH1 0x4 MSTORE PUSH1 0x24 PUSH0 REVERT JUMPDEST PUSH0 PUSH2 0xC87 DUP3 PUSH2 0x7E6 JUMP JUMPDEST SWAP2 POP PUSH2 0xC92 DUP4 PUSH2 0x7E6 JUMP JUMPDEST SWAP3 POP DUP3 PUSH2 0xCA2 JUMPI PUSH2 0xCA1 PUSH2 0xC23 JUMP JUMPDEST JUMPDEST DUP3 DUP3 DIV SWAP1 POP SWAP3 SWAP2 POP POP JUMP JUMPDEST PUSH32 0x4E487B7100000000000000000000000000000000000000000000000000000000 PUSH0 MSTORE PUSH1 0x22 PUSH1 0x4 MSTORE PUSH1 0x24 PUSH0 REVERT JUMPDEST PUSH0 PUSH1 0x2 DUP3 DIV SWAP1 POP PUSH1 0x1 DUP3 AND DUP1 PUSH2 0xCF1 JUMPI PUSH1 0x7F DUP3 AND SWAP2 POP JUMPDEST PUSH1 0x20 DUP3 LT DUP2 SUB PUSH2 0xD04 JUMPI PUSH2 0xD03 PUSH2 0xCAD JUMP JUMPDEST JUMPDEST POP SWAP2 SWAP1 POP JUMP JUMPDEST PUSH0 DUP2 SWAP1 POP DUP2 PUSH0 MSTORE PUSH1 0x20 PUSH0 KECCAK256 SWAP1 POP SWAP2 SWAP1 POP JUMP JUMPDEST PUSH0 PUSH1 0x20 PUSH1 0x1F DUP4 ADD DIV SWAP1 POP SWAP2 SWAP1 POP JUMP JUMPDEST PUSH0 DUP3 DUP3 SHL SWAP1 POP SWAP3 SWAP2 POP POP JUMP JUMPDEST PUSH0 PUSH1 0x8 DUP4 MUL PUSH2 0xD66 PUSH32 0xFFFFFFFFFFFFFFFFFFFFFFFFFFFFFFFFFFFFFFFFFFFFFFFFFFFFFFFFFFFFFFFF DUP3 PUSH2 0xD2B JUMP JUMPDEST PUSH2 0xD70 DUP7 DUP4 PUSH2 0xD2B JUMP JUMPDEST SWAP6 POP DUP1 NOT DUP5 AND SWAP4 POP DUP1 DUP7 AND DUP5 OR SWAP3 POP POP POP SWAP4 SWAP3 POP POP POP JUMP JUMPDEST PUSH0 DUP2 SWAP1 POP SWAP2 SWAP1 POP JUMP JUMPDEST PUSH0 PUSH2 0xDAB PUSH2 0xDA6 PUSH2 0xDA1 DUP5 PUSH2 0x7E6 JUMP JUMPDEST PUSH2 0xD88 JUMP JUMPDEST PUSH2 0x7E6 JUMP JUMPDEST SWAP1 POP SWAP2 SWAP1 POP JUMP JUMPDEST PUSH0 DUP2 SWAP1 POP SWAP2 SWAP1 POP JUMP JUMPDEST PUSH2 0xDC4 DUP4 PUSH2 0xD91 JUMP JUMPDEST PUSH2 0xDD8 PUSH2 0xDD0 DUP3 PUSH2 0xDB2 JUMP JUMPDEST DUP5 DUP5 SLOAD PUSH2 0xD37 JUMP JUMPDEST DUP3 SSTORE POP POP POP POP JUMP JUMPDEST PUSH0 SWAP1 JUMP JUMPDEST PUSH2 0xDEC PUSH2 0xDE0 JUMP JUMPDEST PUSH2 0xDF7 DUP2 DUP5 DUP5 PUSH2 0xDBB JUMP JUMPDEST POP POP POP JUMP JUMPDEST JUMPDEST DUP2 DUP2 LT ISZERO PUSH2 0xE1A JUMPI PUSH2 0xE0F PUSH0 DUP3 PUSH2 0xDE4 JUMP JUMPDEST PUSH1 0x1 DUP2 ADD SWAP1 POP PUSH2 0xDFD JUMP JUMPDEST POP POP JUMP JUMPDEST PUSH1 0x1F DUP3 GT ISZERO PUSH2 0xE5F JUMPI PUSH2 0xE30 DUP2 PUSH2 0xD0A JUMP JUMPDEST PUSH2 0xE39 DUP5 PUSH2 0xD1C JUMP JUMPDEST DUP2 ADD PUSH1 0x20 DUP6 LT ISZERO PUSH2 0xE48 JUMPI DUP2 SWAP1 POP JUMPDEST PUSH2 0xE5C PUSH2 0xE54 DUP6 PUSH2 0xD1C JUMP JUMPDEST DUP4 ADD DUP3 PUSH2 0xDFC JUMP JUMPDEST POP POP JUMPDEST POP POP POP JUMP JUMPDEST PUSH0 DUP3 DUP3 SHR SWAP1 POP SWAP3 SWAP2 POP POP JUMP JUMPDEST PUSH0 PUSH2 0xE7F PUSH0 NOT DUP5 PUSH1 0x8 MUL PUSH2 0xE64 JUMP JUMPDEST NOT DUP1 DUP4 AND SWAP2 POP POP SWAP3 SWAP2 POP POP JUMP JUMPDEST PUSH0 PUSH2 0xE97 DUP4 DUP4 PUSH2 0xE70 JUMP JUMPDEST SWAP2 POP DUP3 PUSH1 0x2 MUL DUP3 OR SWAP1 POP SWAP3 SWAP2 POP POP JUMP JUMPDEST PUSH2 0xEB0 DUP3 PUSH2 0x924 JUMP JUMPDEST PUSH8 0xFFFFFFFFFFFFFFFF DUP2 GT ISZERO PUSH2 0xEC9 JUMPI PUSH2 0xEC8 PUSH2 0xA3C JUMP JUMPDEST JUMPDEST PUSH2 0xED3 DUP3 SLOAD PUSH2 0xCDA JUMP JUMPDEST PUSH2 0xEDE DUP3 DUP3 DUP6 PUSH2 0xE1E JUMP JUMPDEST PUSH0 PUSH1 0x20 SWAP1 POP PUSH1 0x1F DUP4 GT PUSH1 0x1 DUP2 EQ PUSH2 0xF0F JUMPI PUSH0 DUP5 ISZERO PUSH2 0xEFD JUMPI DUP3 DUP8 ADD MLOAD SWAP1 POP JUMPDEST PUSH2 0xF07 DUP6 DUP3 PUSH2 0xE8C JUMP JUMPDEST DUP7 SSTORE POP PUSH2 0xF6E JUMP JUMPDEST PUSH1 0x1F NOT DUP5 AND PUSH2 0xF1D DUP7 PUSH2 0xD0A JUMP JUMPDEST PUSH0 JUMPDEST DUP3 DUP2 LT ISZERO PUSH2 0xF44 JUMPI DUP5 DUP10 ADD MLOAD DUP3 SSTORE PUSH1 0x1 DUP3 ADD SWAP2 POP PUSH1 0x20 DUP6 ADD SWAP5 POP PUSH1 0x20 DUP2 ADD SWAP1 POP PUSH2 0xF1F JUMP JUMPDEST DUP7 DUP4 LT ISZERO PUSH2 0xF61 JUMPI DUP5 DUP10 ADD MLOAD PUSH2 0xF5D PUSH1 0x1F DUP10 AND DUP3 PUSH2 0xE70 JUMP JUMPDEST DUP4 SSTORE POP JUMPDEST PUSH1 0x1 PUSH1 0x2 DUP9 MUL ADD DUP9 SSTORE POP POP POP JUMPDEST POP POP POP POP POP POP JUMP JUMPDEST PUSH0 PUSH2 0xF80 DUP3 PUSH2 0x7E6 JUMP JUMPDEST SWAP2 POP PUSH32 0xFFFFFFFFFFFFFFFFFFFFFFFFFFFFFFFFFFFFFFFFFFFFFFFFFFFFFFFFFFFFFFFF DUP3 SUB PUSH2 0xFB2 JUMPI PUSH2 0xFB1 PUSH2 0xC50 JUMP JUMPDEST JUMPDEST PUSH1 0x1 DUP3 ADD SWAP1 POP SWAP2 SWAP1 POP JUMP INVALID LOG2 PUSH5 0x6970667358 0x22 SLT KECCAK256 0xF9 0x1F 0xAA 0xD DUP4 DUP4 0xAE 0xC7 0xF SWAP1 BLOCKHASH 0xD0 0x4D SWAP16 0xBA SHR SWAP4 PUSH9 0xC5E17685BBD57ABEED 0xB6 0xAD 0x1F 0xAD SHR PUSH5 0x736F6C6343 STOP ADDMOD NOT STOP CALLER "},"gasEstimates":{"creation":{"codeDepositCost":"816600","executionCost":"infinite","totalCost":"infinite"},"external":{"approveRequest(uint256)":"infinite","approvers(address)":"2856","approversCount()":"2425","contribute()":"51014","createRequest(string,uint256,address)":"infinite","finalizeRequest(uint256)":"infinite","manager()":"2553","minimumContribution()":"2469","requests(uint256)":"infinite"}},"methodIdentifiers":{"approveRequest(uint256)":"d7d1bbdb","approvers(address)":"0a144391","approversCount()":"82fde093","contribute()":"d7bb99ba","createRequest(string,uint256,address)":"8a9cfd55","finalizeRequest(uint256)":"03441006","manager()":"481c6a75","minimumContribution()":"937e09b1","requests(uint256)":"81d12c58"}},"storageLayout":{"storage":[{"astId":58,"contract":"Crowdfunding.sol:Crowdfunding","label":"requests","offset":0,"slot":"0","type":"t_array(t_struct(Request)54_storage)dyn_storage"},{"astId":60,"contract":"Crowdfunding.sol:Crowdfunding","label":"manager","offset":0,"slot":"1","type":"t_address"},{"astId":62,"contract":"Crowdfunding.sol:Crowdfunding","label":"minimumContribution","offset":0,"slot":"2","type":"t_uint256"},{"astId":66,"contract":"Crowdfunding.sol:Crowdfunding","label":"approvers","offset":0,"slot":"3","type":"t_mapping(t_address,t_bool)"},{"astId":68,"contract":"Crowdfunding.sol:Crowdfunding","label":"approversCount","offset":0,"slot":"4","type":"t_uint256"}],"types":{"t_address":{"encoding":"inplace","label":"address","numberOfBytes":"20"},"t_address_payable":{"encoding":"inplace","label":"address payable","numberOfBytes":"20"},"t_array(t_struct(Request)54_storage)dyn_storage":{"base":"t_struct(Request)54_storage","encoding":"dynamic_array","label":"struct Crowdfunding.Request[]","numberOfBytes":"32"},"t_bool":{"encoding":"inplace","label":"bool","numberOfBytes":"1"},"t_mapping(t_address,t_bool)":{"encoding":"mapping","key":"t_address","label":"mapping(address => bool)","numberOfBytes":"32","value":"t_bool"},"t_string_storage":{"encoding":"bytes","label":"string","numberOfBytes":"32"},"t_struct(Request)54_storage":{"encoding":"inplace","label":"struct Crowdfunding.Request","members":[{"astId":41,"contract":"Crowdfunding.sol:Crowdfunding","label":"description","offset":0,"slot":"0","type":"t_string_storage"},{"astId":43,"contract":"Crowdfunding.sol:Crowdfunding","label":"value","offset":0,"slot":"1","type":"t_uint256"},{"astId":45,"contract":"Crowdfunding.sol:Crowdfunding","label":"recipient","offset":0,"slot":"2","type":"t_address_payable"},{"astId":47,"contract":"Crowdfunding.sol:Crowdfunding","label":"complete","offset":20,"slot":"2","type":"t_bool"},{"astId":49,"contract":"Crowdfunding.sol:Crowdfunding","label":"approvalCount","offset":0,"slot":"3","type":"t_uint256"},{"astId":53,"contract":"Crowdfunding.sol:Crowdfunding","label":"approvals","offset":0,"slot":"4","type":"t_mapping(t_address,t_bool)"}],"numberOfBytes":"160"},"t_uint256":{"encoding":"inplace","label":"uint256","numberOfBytes":"32"}}},"userdoc":{"kind":"user","methods":{},"version":1}}