{
  "abi": [
    {
      "inputs": [
        {
          "internalType": "uint256",
          "name": "minimumContribution",
          "type": "uint256"
        }
      ],
      "name": "createCrowdfunding",
      "outputs": [],
      "stateMutability": "nonpayable",
      "type": "function"
    },
    {
      "inputs": [
        {
          "internalType": "uint256",
          "name": "",
          "type": "uint256"
        }
      ],
      "name": "deployedCrowdfundings",
      "outputs": [
        {
          "internalType": "address",
          "name": "",
          "type": "address"
        }
      ],
      "stateMutability": "view",
      "type": "function"
    },
    {
      "inputs": [],
      "name": "getDeployedCrowdfundings",
      "outputs": [
        {
          "internalType": "address[]",
          "name": "",
          "type": "address[]"
        }
      ],
      "stateMutability": "view",
      "type": "function"
    }
  ],
  "devdoc": {
    "kind": "dev",
    "methods": {},
    "version": 1
  },
  "evm": {
    "assembly": "    /* \"Crowdfunding.sol\":61:491  contract CrowdfundingFactory{... */\n  mstore(0x40, 0x80)\n  callvalue\n  dup1\n  iszero\n  tag_1\n  jumpi\n  0x00\n  dup1\n  revert\ntag_1:\n  pop\n  dataSize(sub_0)\n  dup1\n  dataOffset(sub_0)\n  0x00\n  codecopy\n  0x00\n  return\nstop\n\nsub_0: assembly {\n        /* \"Crowdfunding.sol\":61:491  contract CrowdfundingFactory{... */\n      mstore(0x40, 0x80)\n      callvalue\n      dup1\n      iszero\n      tag_1\n      jumpi\n      0x00\n      dup1\n      revert\n    tag_1:\n      pop\n      jumpi(tag_2, lt(calldatasize, 0x04))\n      shr(0xe0, calldataload(0x00))\n      dup1\n      0xb25c43db\n      eq\n      tag_3\n      jumpi\n      dup1\n      0xcb641dec\n      eq\n      tag_4\n      jumpi\n      dup1\n      0xf42f58f8\n      eq\n      tag_5\n      jumpi\n    tag_2:\n      0x00\n      dup1\n      revert\n        /* \"Crowdfunding.sol\":96:134  address[] public deployedCrowdfundings */\n    tag_3:\n      tag_6\n      0x04\n      dup1\n      calldatasize\n      sub\n      dup2\n      add\n      swap1\n      tag_7\n      swap2\n      swap1\n      tag_8\n      jump\t// in\n    tag_7:\n      tag_9\n      jump\t// in\n    tag_6:\n      mload(0x40)\n      tag_10\n      swap2\n      swap1\n      tag_11\n      jump\t// in\n    tag_10:\n      mload(0x40)\n      dup1\n      swap2\n      sub\n      swap1\n      return\n        /* \"Crowdfunding.sol\":143:361  function createCrowdfunding(uint minimumContribution) public {... */\n    tag_4:\n      tag_12\n      0x04\n      dup1\n      calldatasize\n      sub\n      dup2\n      add\n      swap1\n      tag_13\n      swap2\n      swap1\n      tag_8\n      jump\t// in\n    tag_13:\n      tag_14\n      jump\t// in\n    tag_12:\n      stop\n        /* \"Crowdfunding.sol\":367:488  function getDeployedCrowdfundings() public view returns (address[] memory){... */\n    tag_5:\n      tag_15\n      tag_16\n      jump\t// in\n    tag_15:\n      mload(0x40)\n      tag_17\n      swap2\n      swap1\n      tag_18\n      jump\t// in\n    tag_17:\n      mload(0x40)\n      dup1\n      swap2\n      sub\n      swap1\n      return\n        /* \"Crowdfunding.sol\":96:134  address[] public deployedCrowdfundings */\n    tag_9:\n      0x00\n      dup2\n      dup2\n      sload\n      dup2\n      lt\n      tag_19\n      jumpi\n      0x00\n      dup1\n      revert\n    tag_19:\n      swap1\n      0x00\n      mstore\n      keccak256(0x00, 0x20)\n      add\n      0x00\n      swap2\n      pop\n      sload\n      swap1\n      0x0100\n      exp\n      swap1\n      div\n      0xffffffffffffffffffffffffffffffffffffffff\n      and\n      dup2\n      jump\t// out\n        /* \"Crowdfunding.sol\":143:361  function createCrowdfunding(uint minimumContribution) public {... */\n    tag_14:\n        /* \"Crowdfunding.sol\":215:238  address newCrowdfunding */\n      0x00\n        /* \"Crowdfunding.sol\":266:285  minimumContribution */\n      dup2\n        /* \"Crowdfunding.sol\":287:297  msg.sender */\n      caller\n        /* \"Crowdfunding.sol\":249:298  new Crowdfunding(minimumContribution, msg.sender) */\n      mload(0x40)\n      tag_22\n      swap1\n      tag_23\n      jump\t// in\n    tag_22:\n      tag_24\n      swap3\n      swap2\n      swap1\n      tag_25\n      jump\t// in\n    tag_24:\n      mload(0x40)\n      dup1\n      swap2\n      sub\n      swap1\n      0x00\n      create\n      dup1\n      iszero\n      dup1\n      iszero\n      tag_26\n      jumpi\n      returndatasize\n      0x00\n      dup1\n      returndatacopy\n      revert(0x00, returndatasize)\n    tag_26:\n      pop\n        /* \"Crowdfunding.sol\":215:299  address newCrowdfunding = address(new Crowdfunding(minimumContribution, msg.sender)) */\n      swap1\n      pop\n        /* \"Crowdfunding.sol\":310:331  deployedCrowdfundings */\n      0x00\n        /* \"Crowdfunding.sol\":337:352  newCrowdfunding */\n      dup2\n        /* \"Crowdfunding.sol\":310:353  deployedCrowdfundings.push(newCrowdfunding) */\n      swap1\n      dup1\n      0x01\n      dup2\n      sload\n      add\n      dup1\n      dup3\n      sstore\n      dup1\n      swap2\n      pop\n      pop\n      0x01\n      swap1\n      sub\n      swap1\n      0x00\n      mstore\n      keccak256(0x00, 0x20)\n      add\n      0x00\n      swap1\n      swap2\n      swap1\n      swap2\n      swap1\n      swap2\n      0x0100\n      exp\n      dup2\n      sload\n      dup2\n      0xffffffffffffffffffffffffffffffffffffffff\n      mul\n      not\n      and\n      swap1\n      dup4\n      0xffffffffffffffffffffffffffffffffffffffff\n      and\n      mul\n      or\n      swap1\n      sstore\n      pop\n        /* \"Crowdfunding.sol\":204:361  {... */\n      pop\n        /* \"Crowdfunding.sol\":143:361  function createCrowdfunding(uint minimumContribution) public {... */\n      pop\n      jump\t// out\n        /* \"Crowdfunding.sol\":367:488  function getDeployedCrowdfundings() public view returns (address[] memory){... */\n    tag_16:\n        /* \"Crowdfunding.sol\":424:440  address[] memory */\n      0x60\n        /* \"Crowdfunding.sol\":459:480  deployedCrowdfundings */\n      0x00\n        /* \"Crowdfunding.sol\":452:480  return deployedCrowdfundings */\n      dup1\n      sload\n      dup1\n      0x20\n      mul\n      0x20\n      add\n      mload(0x40)\n      swap1\n      dup2\n      add\n      0x40\n      mstore\n      dup1\n      swap3\n      swap2\n      swap1\n      dup2\n      dup2\n      mstore\n      0x20\n      add\n      dup3\n      dup1\n      sload\n      dup1\n      iszero\n      tag_29\n      jumpi\n      0x20\n      mul\n      dup3\n      add\n      swap2\n      swap1\n      0x00\n      mstore\n      keccak256(0x00, 0x20)\n      swap1\n    tag_30:\n      dup2\n      0x00\n      swap1\n      sload\n      swap1\n      0x0100\n      exp\n      swap1\n      div\n      0xffffffffffffffffffffffffffffffffffffffff\n      and\n      0xffffffffffffffffffffffffffffffffffffffff\n      and\n      dup2\n      mstore\n      0x20\n      add\n      swap1\n      0x01\n      add\n      swap1\n      dup1\n      dup4\n      gt\n      tag_30\n      jumpi\n    tag_29:\n      pop\n      pop\n      pop\n      pop\n      pop\n      swap1\n      pop\n        /* \"Crowdfunding.sol\":367:488  function getDeployedCrowdfundings() public view returns (address[] memory){... */\n      swap1\n      jump\t// out\n    tag_23:\n      dataSize(sub_0)\n      dup1\n      dataOffset(sub_0)\n      dup4\n      codecopy\n      add\n      swap1\n      jump\t// out\n        /* \"#utility.yul\":88:205   */\n    tag_32:\n        /* \"#utility.yul\":197:198   */\n      0x00\n        /* \"#utility.yul\":194:195   */\n      dup1\n        /* \"#utility.yul\":187:199   */\n      revert\n        /* \"#utility.yul\":334:411   */\n    tag_34:\n        /* \"#utility.yul\":371:378   */\n      0x00\n        /* \"#utility.yul\":400:405   */\n      dup2\n        /* \"#utility.yul\":389:405   */\n      swap1\n      pop\n        /* \"#utility.yul\":334:411   */\n      swap2\n      swap1\n      pop\n      jump\t// out\n        /* \"#utility.yul\":417:539   */\n    tag_35:\n        /* \"#utility.yul\":490:514   */\n      tag_54\n        /* \"#utility.yul\":508:513   */\n      dup2\n        /* \"#utility.yul\":490:514   */\n      tag_34\n      jump\t// in\n    tag_54:\n        /* \"#utility.yul\":483:488   */\n      dup2\n        /* \"#utility.yul\":480:515   */\n      eq\n        /* \"#utility.yul\":470:533   */\n      tag_55\n      jumpi\n        /* \"#utility.yul\":529:530   */\n      0x00\n        /* \"#utility.yul\":526:527   */\n      dup1\n        /* \"#utility.yul\":519:531   */\n      revert\n        /* \"#utility.yul\":470:533   */\n    tag_55:\n        /* \"#utility.yul\":417:539   */\n      pop\n      jump\t// out\n        /* \"#utility.yul\":545:684   */\n    tag_36:\n        /* \"#utility.yul\":591:596   */\n      0x00\n        /* \"#utility.yul\":629:635   */\n      dup2\n        /* \"#utility.yul\":616:636   */\n      calldataload\n        /* \"#utility.yul\":607:636   */\n      swap1\n      pop\n        /* \"#utility.yul\":645:678   */\n      tag_57\n        /* \"#utility.yul\":672:677   */\n      dup2\n        /* \"#utility.yul\":645:678   */\n      tag_35\n      jump\t// in\n    tag_57:\n        /* \"#utility.yul\":545:684   */\n      swap3\n      swap2\n      pop\n      pop\n      jump\t// out\n        /* \"#utility.yul\":690:1019   */\n    tag_8:\n        /* \"#utility.yul\":749:755   */\n      0x00\n        /* \"#utility.yul\":798:800   */\n      0x20\n        /* \"#utility.yul\":786:795   */\n      dup3\n        /* \"#utility.yul\":777:784   */\n      dup5\n        /* \"#utility.yul\":773:796   */\n      sub\n        /* \"#utility.yul\":769:801   */\n      slt\n        /* \"#utility.yul\":766:885   */\n      iszero\n      tag_59\n      jumpi\n        /* \"#utility.yul\":804:883   */\n      tag_60\n      tag_32\n      jump\t// in\n    tag_60:\n        /* \"#utility.yul\":766:885   */\n    tag_59:\n        /* \"#utility.yul\":924:925   */\n      0x00\n        /* \"#utility.yul\":949:1002   */\n      tag_61\n        /* \"#utility.yul\":994:1001   */\n      dup5\n        /* \"#utility.yul\":985:991   */\n      dup3\n        /* \"#utility.yul\":974:983   */\n      dup6\n        /* \"#utility.yul\":970:992   */\n      add\n        /* \"#utility.yul\":949:1002   */\n      tag_36\n      jump\t// in\n    tag_61:\n        /* \"#utility.yul\":939:1002   */\n      swap2\n      pop\n        /* \"#utility.yul\":895:1012   */\n      pop\n        /* \"#utility.yul\":690:1019   */\n      swap3\n      swap2\n      pop\n      pop\n      jump\t// out\n        /* \"#utility.yul\":1025:1151   */\n    tag_37:\n        /* \"#utility.yul\":1062:1069   */\n      0x00\n        /* \"#utility.yul\":1102:1144   */\n      0xffffffffffffffffffffffffffffffffffffffff\n        /* \"#utility.yul\":1095:1100   */\n      dup3\n        /* \"#utility.yul\":1091:1145   */\n      and\n        /* \"#utility.yul\":1080:1145   */\n      swap1\n      pop\n        /* \"#utility.yul\":1025:1151   */\n      swap2\n      swap1\n      pop\n      jump\t// out\n        /* \"#utility.yul\":1157:1253   */\n    tag_38:\n        /* \"#utility.yul\":1194:1201   */\n      0x00\n        /* \"#utility.yul\":1223:1247   */\n      tag_64\n        /* \"#utility.yul\":1241:1246   */\n      dup3\n        /* \"#utility.yul\":1223:1247   */\n      tag_37\n      jump\t// in\n    tag_64:\n        /* \"#utility.yul\":1212:1247   */\n      swap1\n      pop\n        /* \"#utility.yul\":1157:1253   */\n      swap2\n      swap1\n      pop\n      jump\t// out\n        /* \"#utility.yul\":1259:1377   */\n    tag_39:\n        /* \"#utility.yul\":1346:1370   */\n      tag_66\n        /* \"#utility.yul\":1364:1369   */\n      dup2\n        /* \"#utility.yul\":1346:1370   */\n      tag_38\n      jump\t// in\n    tag_66:\n        /* \"#utility.yul\":1341:1344   */\n      dup3\n        /* \"#utility.yul\":1334:1371   */\n      mstore\n        /* \"#utility.yul\":1259:1377   */\n      pop\n      pop\n      jump\t// out\n        /* \"#utility.yul\":1383:1605   */\n    tag_11:\n        /* \"#utility.yul\":1476:1480   */\n      0x00\n        /* \"#utility.yul\":1514:1516   */\n      0x20\n        /* \"#utility.yul\":1503:1512   */\n      dup3\n        /* \"#utility.yul\":1499:1517   */\n      add\n        /* \"#utility.yul\":1491:1517   */\n      swap1\n      pop\n        /* \"#utility.yul\":1527:1598   */\n      tag_68\n        /* \"#utility.yul\":1595:1596   */\n      0x00\n        /* \"#utility.yul\":1584:1593   */\n      dup4\n        /* \"#utility.yul\":1580:1597   */\n      add\n        /* \"#utility.yul\":1571:1577   */\n      dup5\n        /* \"#utility.yul\":1527:1598   */\n      tag_39\n      jump\t// in\n    tag_68:\n        /* \"#utility.yul\":1383:1605   */\n      swap3\n      swap2\n      pop\n      pop\n      jump\t// out\n        /* \"#utility.yul\":1611:1725   */\n    tag_40:\n        /* \"#utility.yul\":1678:1684   */\n      0x00\n        /* \"#utility.yul\":1712:1717   */\n      dup2\n        /* \"#utility.yul\":1706:1718   */\n      mload\n        /* \"#utility.yul\":1696:1718   */\n      swap1\n      pop\n        /* \"#utility.yul\":1611:1725   */\n      swap2\n      swap1\n      pop\n      jump\t// out\n        /* \"#utility.yul\":1731:1915   */\n    tag_41:\n        /* \"#utility.yul\":1830:1841   */\n      0x00\n        /* \"#utility.yul\":1864:1870   */\n      dup3\n        /* \"#utility.yul\":1859:1862   */\n      dup3\n        /* \"#utility.yul\":1852:1871   */\n      mstore\n        /* \"#utility.yul\":1904:1908   */\n      0x20\n        /* \"#utility.yul\":1899:1902   */\n      dup3\n        /* \"#utility.yul\":1895:1909   */\n      add\n        /* \"#utility.yul\":1880:1909   */\n      swap1\n      pop\n        /* \"#utility.yul\":1731:1915   */\n      swap3\n      swap2\n      pop\n      pop\n      jump\t// out\n        /* \"#utility.yul\":1921:2053   */\n    tag_42:\n        /* \"#utility.yul\":1988:1992   */\n      0x00\n        /* \"#utility.yul\":2011:2014   */\n      dup2\n        /* \"#utility.yul\":2003:2014   */\n      swap1\n      pop\n        /* \"#utility.yul\":2041:2045   */\n      0x20\n        /* \"#utility.yul\":2036:2039   */\n      dup3\n        /* \"#utility.yul\":2032:2046   */\n      add\n        /* \"#utility.yul\":2024:2046   */\n      swap1\n      pop\n        /* \"#utility.yul\":1921:2053   */\n      swap2\n      swap1\n      pop\n      jump\t// out\n        /* \"#utility.yul\":2059:2167   */\n    tag_43:\n        /* \"#utility.yul\":2136:2160   */\n      tag_73\n        /* \"#utility.yul\":2154:2159   */\n      dup2\n        /* \"#utility.yul\":2136:2160   */\n      tag_38\n      jump\t// in\n    tag_73:\n        /* \"#utility.yul\":2131:2134   */\n      dup3\n        /* \"#utility.yul\":2124:2161   */\n      mstore\n        /* \"#utility.yul\":2059:2167   */\n      pop\n      pop\n      jump\t// out\n        /* \"#utility.yul\":2173:2352   */\n    tag_44:\n        /* \"#utility.yul\":2242:2252   */\n      0x00\n        /* \"#utility.yul\":2263:2309   */\n      tag_75\n        /* \"#utility.yul\":2305:2308   */\n      dup4\n        /* \"#utility.yul\":2297:2303   */\n      dup4\n        /* \"#utility.yul\":2263:2309   */\n      tag_43\n      jump\t// in\n    tag_75:\n        /* \"#utility.yul\":2341:2345   */\n      0x20\n        /* \"#utility.yul\":2336:2339   */\n      dup4\n        /* \"#utility.yul\":2332:2346   */\n      add\n        /* \"#utility.yul\":2318:2346   */\n      swap1\n      pop\n        /* \"#utility.yul\":2173:2352   */\n      swap3\n      swap2\n      pop\n      pop\n      jump\t// out\n        /* \"#utility.yul\":2358:2471   */\n    tag_45:\n        /* \"#utility.yul\":2428:2432   */\n      0x00\n        /* \"#utility.yul\":2460:2464   */\n      0x20\n        /* \"#utility.yul\":2455:2458   */\n      dup3\n        /* \"#utility.yul\":2451:2465   */\n      add\n        /* \"#utility.yul\":2443:2465   */\n      swap1\n      pop\n        /* \"#utility.yul\":2358:2471   */\n      swap2\n      swap1\n      pop\n      jump\t// out\n        /* \"#utility.yul\":2507:3239   */\n    tag_46:\n        /* \"#utility.yul\":2626:2629   */\n      0x00\n        /* \"#utility.yul\":2655:2709   */\n      tag_78\n        /* \"#utility.yul\":2703:2708   */\n      dup3\n        /* \"#utility.yul\":2655:2709   */\n      tag_40\n      jump\t// in\n    tag_78:\n        /* \"#utility.yul\":2725:2811   */\n      tag_79\n        /* \"#utility.yul\":2804:2810   */\n      dup2\n        /* \"#utility.yul\":2799:2802   */\n      dup6\n        /* \"#utility.yul\":2725:2811   */\n      tag_41\n      jump\t// in\n    tag_79:\n        /* \"#utility.yul\":2718:2811   */\n      swap4\n      pop\n        /* \"#utility.yul\":2835:2891   */\n      tag_80\n        /* \"#utility.yul\":2885:2890   */\n      dup4\n        /* \"#utility.yul\":2835:2891   */\n      tag_42\n      jump\t// in\n    tag_80:\n        /* \"#utility.yul\":2914:2921   */\n      dup1\n        /* \"#utility.yul\":2945:2946   */\n      0x00\n        /* \"#utility.yul\":2930:3214   */\n    tag_81:\n        /* \"#utility.yul\":2955:2961   */\n      dup4\n        /* \"#utility.yul\":2952:2953   */\n      dup2\n        /* \"#utility.yul\":2949:2962   */\n      lt\n        /* \"#utility.yul\":2930:3214   */\n      iszero\n      tag_83\n      jumpi\n        /* \"#utility.yul\":3031:3037   */\n      dup2\n        /* \"#utility.yul\":3025:3038   */\n      mload\n        /* \"#utility.yul\":3058:3121   */\n      tag_84\n        /* \"#utility.yul\":3117:3120   */\n      dup9\n        /* \"#utility.yul\":3102:3115   */\n      dup3\n        /* \"#utility.yul\":3058:3121   */\n      tag_44\n      jump\t// in\n    tag_84:\n        /* \"#utility.yul\":3051:3121   */\n      swap8\n      pop\n        /* \"#utility.yul\":3144:3204   */\n      tag_85\n        /* \"#utility.yul\":3197:3203   */\n      dup4\n        /* \"#utility.yul\":3144:3204   */\n      tag_45\n      jump\t// in\n    tag_85:\n        /* \"#utility.yul\":3134:3204   */\n      swap3\n      pop\n        /* \"#utility.yul\":2990:3214   */\n      pop\n        /* \"#utility.yul\":2977:2978   */\n      0x01\n        /* \"#utility.yul\":2974:2975   */\n      dup2\n        /* \"#utility.yul\":2970:2979   */\n      add\n        /* \"#utility.yul\":2965:2979   */\n      swap1\n      pop\n        /* \"#utility.yul\":2930:3214   */\n      jump(tag_81)\n    tag_83:\n        /* \"#utility.yul\":2934:2948   */\n      pop\n        /* \"#utility.yul\":3230:3233   */\n      dup6\n        /* \"#utility.yul\":3223:3233   */\n      swap4\n      pop\n        /* \"#utility.yul\":2631:3239   */\n      pop\n      pop\n      pop\n        /* \"#utility.yul\":2507:3239   */\n      swap3\n      swap2\n      pop\n      pop\n      jump\t// out\n        /* \"#utility.yul\":3245:3618   */\n    tag_18:\n        /* \"#utility.yul\":3388:3392   */\n      0x00\n        /* \"#utility.yul\":3426:3428   */\n      0x20\n        /* \"#utility.yul\":3415:3424   */\n      dup3\n        /* \"#utility.yul\":3411:3429   */\n      add\n        /* \"#utility.yul\":3403:3429   */\n      swap1\n      pop\n        /* \"#utility.yul\":3475:3484   */\n      dup2\n        /* \"#utility.yul\":3469:3473   */\n      dup2\n        /* \"#utility.yul\":3465:3485   */\n      sub\n        /* \"#utility.yul\":3461:3462   */\n      0x00\n        /* \"#utility.yul\":3450:3459   */\n      dup4\n        /* \"#utility.yul\":3446:3463   */\n      add\n        /* \"#utility.yul\":3439:3486   */\n      mstore\n        /* \"#utility.yul\":3503:3611   */\n      tag_87\n        /* \"#utility.yul\":3606:3610   */\n      dup2\n        /* \"#utility.yul\":3597:3603   */\n      dup5\n        /* \"#utility.yul\":3503:3611   */\n      tag_46\n      jump\t// in\n    tag_87:\n        /* \"#utility.yul\":3495:3611   */\n      swap1\n      pop\n        /* \"#utility.yul\":3245:3618   */\n      swap3\n      swap2\n      pop\n      pop\n      jump\t// out\n        /* \"#utility.yul\":3624:3742   */\n    tag_47:\n        /* \"#utility.yul\":3711:3735   */\n      tag_89\n        /* \"#utility.yul\":3729:3734   */\n      dup2\n        /* \"#utility.yul\":3711:3735   */\n      tag_34\n      jump\t// in\n    tag_89:\n        /* \"#utility.yul\":3706:3709   */\n      dup3\n        /* \"#utility.yul\":3699:3736   */\n      mstore\n        /* \"#utility.yul\":3624:3742   */\n      pop\n      pop\n      jump\t// out\n        /* \"#utility.yul\":3748:4080   */\n    tag_25:\n        /* \"#utility.yul\":3869:3873   */\n      0x00\n        /* \"#utility.yul\":3907:3909   */\n      0x40\n        /* \"#utility.yul\":3896:3905   */\n      dup3\n        /* \"#utility.yul\":3892:3910   */\n      add\n        /* \"#utility.yul\":3884:3910   */\n      swap1\n      pop\n        /* \"#utility.yul\":3920:3991   */\n      tag_91\n        /* \"#utility.yul\":3988:3989   */\n      0x00\n        /* \"#utility.yul\":3977:3986   */\n      dup4\n        /* \"#utility.yul\":3973:3990   */\n      add\n        /* \"#utility.yul\":3964:3970   */\n      dup6\n        /* \"#utility.yul\":3920:3991   */\n      tag_47\n      jump\t// in\n    tag_91:\n        /* \"#utility.yul\":4001:4073   */\n      tag_92\n        /* \"#utility.yul\":4069:4071   */\n      0x20\n        /* \"#utility.yul\":4058:4067   */\n      dup4\n        /* \"#utility.yul\":4054:4072   */\n      add\n        /* \"#utility.yul\":4045:4051   */\n      dup5\n        /* \"#utility.yul\":4001:4073   */\n      tag_39\n      jump\t// in\n    tag_92:\n        /* \"#utility.yul\":3748:4080   */\n      swap4\n      swap3\n      pop\n      pop\n      pop\n      jump\t// out\n    stop\n\n    sub_0: assembly {\n            /* \"Crowdfunding.sol\":495:3331  contract Crowdfunding {... */\n          mstore(0x40, 0x80)\n            /* \"Crowdfunding.sol\":1025:1147  constructor(uint256 minimum, address creator) {... */\n          callvalue\n          dup1\n          iszero\n          tag_1\n          jumpi\n          0x00\n          dup1\n          revert\n        tag_1:\n          pop\n          mload(0x40)\n          sub(codesize, bytecodeSize)\n          dup1\n          bytecodeSize\n          dup4\n          codecopy\n          dup2\n          dup2\n          add\n          0x40\n          mstore\n          dup2\n          add\n          swap1\n          tag_2\n          swap2\n          swap1\n          tag_3\n          jump\t// in\n        tag_2:\n            /* \"Crowdfunding.sol\":1092:1099  creator */\n          dup1\n            /* \"Crowdfunding.sol\":1082:1089  manager */\n          0x01\n          0x00\n            /* \"Crowdfunding.sol\":1082:1099  manager = creator */\n          0x0100\n          exp\n          dup2\n          sload\n          dup2\n          0xffffffffffffffffffffffffffffffffffffffff\n          mul\n          not\n          and\n          swap1\n          dup4\n          0xffffffffffffffffffffffffffffffffffffffff\n          and\n          mul\n          or\n          swap1\n          sstore\n          pop\n            /* \"Crowdfunding.sol\":1132:1139  minimum */\n          dup2\n            /* \"Crowdfunding.sol\":1110:1129  minimumContribution */\n          0x02\n            /* \"Crowdfunding.sol\":1110:1139  minimumContribution = minimum */\n          dup2\n          swap1\n          sstore\n          pop\n            /* \"Crowdfunding.sol\":1025:1147  constructor(uint256 minimum, address creator) {... */\n          pop\n          pop\n            /* \"Crowdfunding.sol\":495:3331  contract Crowdfunding {... */\n          jump(tag_6)\n            /* \"#utility.yul\":88:205   */\n        tag_8:\n            /* \"#utility.yul\":197:198   */\n          0x00\n            /* \"#utility.yul\":194:195   */\n          dup1\n            /* \"#utility.yul\":187:199   */\n          revert\n            /* \"#utility.yul\":334:411   */\n        tag_10:\n            /* \"#utility.yul\":371:378   */\n          0x00\n            /* \"#utility.yul\":400:405   */\n          dup2\n            /* \"#utility.yul\":389:405   */\n          swap1\n          pop\n            /* \"#utility.yul\":334:411   */\n          swap2\n          swap1\n          pop\n          jump\t// out\n            /* \"#utility.yul\":417:539   */\n        tag_11:\n            /* \"#utility.yul\":490:514   */\n          tag_23\n            /* \"#utility.yul\":508:513   */\n          dup2\n            /* \"#utility.yul\":490:514   */\n          tag_10\n          jump\t// in\n        tag_23:\n            /* \"#utility.yul\":483:488   */\n          dup2\n            /* \"#utility.yul\":480:515   */\n          eq\n            /* \"#utility.yul\":470:533   */\n          tag_24\n          jumpi\n            /* \"#utility.yul\":529:530   */\n          0x00\n            /* \"#utility.yul\":526:527   */\n          dup1\n            /* \"#utility.yul\":519:531   */\n          revert\n            /* \"#utility.yul\":470:533   */\n        tag_24:\n            /* \"#utility.yul\":417:539   */\n          pop\n          jump\t// out\n            /* \"#utility.yul\":545:688   */\n        tag_12:\n            /* \"#utility.yul\":602:607   */\n          0x00\n            /* \"#utility.yul\":633:639   */\n          dup2\n            /* \"#utility.yul\":627:640   */\n          mload\n            /* \"#utility.yul\":618:640   */\n          swap1\n          pop\n            /* \"#utility.yul\":649:682   */\n          tag_26\n            /* \"#utility.yul\":676:681   */\n          dup2\n            /* \"#utility.yul\":649:682   */\n          tag_11\n          jump\t// in\n        tag_26:\n            /* \"#utility.yul\":545:688   */\n          swap3\n          swap2\n          pop\n          pop\n          jump\t// out\n            /* \"#utility.yul\":694:820   */\n        tag_13:\n            /* \"#utility.yul\":731:738   */\n          0x00\n            /* \"#utility.yul\":771:813   */\n          0xffffffffffffffffffffffffffffffffffffffff\n            /* \"#utility.yul\":764:769   */\n          dup3\n            /* \"#utility.yul\":760:814   */\n          and\n            /* \"#utility.yul\":749:814   */\n          swap1\n          pop\n            /* \"#utility.yul\":694:820   */\n          swap2\n          swap1\n          pop\n          jump\t// out\n            /* \"#utility.yul\":826:922   */\n        tag_14:\n            /* \"#utility.yul\":863:870   */\n          0x00\n            /* \"#utility.yul\":892:916   */\n          tag_29\n            /* \"#utility.yul\":910:915   */\n          dup3\n            /* \"#utility.yul\":892:916   */\n          tag_13\n          jump\t// in\n        tag_29:\n            /* \"#utility.yul\":881:916   */\n          swap1\n          pop\n            /* \"#utility.yul\":826:922   */\n          swap2\n          swap1\n          pop\n          jump\t// out\n            /* \"#utility.yul\":928:1050   */\n        tag_15:\n            /* \"#utility.yul\":1001:1025   */\n          tag_31\n            /* \"#utility.yul\":1019:1024   */\n          dup2\n            /* \"#utility.yul\":1001:1025   */\n          tag_14\n          jump\t// in\n        tag_31:\n            /* \"#utility.yul\":994:999   */\n          dup2\n            /* \"#utility.yul\":991:1026   */\n          eq\n            /* \"#utility.yul\":981:1044   */\n          tag_32\n          jumpi\n            /* \"#utility.yul\":1040:1041   */\n          0x00\n            /* \"#utility.yul\":1037:1038   */\n          dup1\n            /* \"#utility.yul\":1030:1042   */\n          revert\n            /* \"#utility.yul\":981:1044   */\n        tag_32:\n            /* \"#utility.yul\":928:1050   */\n          pop\n          jump\t// out\n            /* \"#utility.yul\":1056:1199   */\n        tag_16:\n            /* \"#utility.yul\":1113:1118   */\n          0x00\n            /* \"#utility.yul\":1144:1150   */\n          dup2\n            /* \"#utility.yul\":1138:1151   */\n          mload\n            /* \"#utility.yul\":1129:1151   */\n          swap1\n          pop\n            /* \"#utility.yul\":1160:1193   */\n          tag_34\n            /* \"#utility.yul\":1187:1192   */\n          dup2\n            /* \"#utility.yul\":1160:1193   */\n          tag_15\n          jump\t// in\n        tag_34:\n            /* \"#utility.yul\":1056:1199   */\n          swap3\n          swap2\n          pop\n          pop\n          jump\t// out\n            /* \"#utility.yul\":1205:1712   */\n        tag_3:\n            /* \"#utility.yul\":1284:1290   */\n          0x00\n            /* \"#utility.yul\":1292:1298   */\n          dup1\n            /* \"#utility.yul\":1341:1343   */\n          0x40\n            /* \"#utility.yul\":1329:1338   */\n          dup4\n            /* \"#utility.yul\":1320:1327   */\n          dup6\n            /* \"#utility.yul\":1316:1339   */\n          sub\n            /* \"#utility.yul\":1312:1344   */\n          slt\n            /* \"#utility.yul\":1309:1428   */\n          iszero\n          tag_36\n          jumpi\n            /* \"#utility.yul\":1347:1426   */\n          tag_37\n          tag_8\n          jump\t// in\n        tag_37:\n            /* \"#utility.yul\":1309:1428   */\n        tag_36:\n            /* \"#utility.yul\":1467:1468   */\n          0x00\n            /* \"#utility.yul\":1492:1556   */\n          tag_38\n            /* \"#utility.yul\":1548:1555   */\n          dup6\n            /* \"#utility.yul\":1539:1545   */\n          dup3\n            /* \"#utility.yul\":1528:1537   */\n          dup7\n            /* \"#utility.yul\":1524:1546   */\n          add\n            /* \"#utility.yul\":1492:1556   */\n          tag_12\n          jump\t// in\n        tag_38:\n            /* \"#utility.yul\":1482:1556   */\n          swap3\n          pop\n            /* \"#utility.yul\":1438:1566   */\n          pop\n            /* \"#utility.yul\":1605:1607   */\n          0x20\n            /* \"#utility.yul\":1631:1695   */\n          tag_39\n            /* \"#utility.yul\":1687:1694   */\n          dup6\n            /* \"#utility.yul\":1678:1684   */\n          dup3\n            /* \"#utility.yul\":1667:1676   */\n          dup7\n            /* \"#utility.yul\":1663:1685   */\n          add\n            /* \"#utility.yul\":1631:1695   */\n          tag_16\n          jump\t// in\n        tag_39:\n            /* \"#utility.yul\":1621:1695   */\n          swap2\n          pop\n            /* \"#utility.yul\":1576:1705   */\n          pop\n            /* \"#utility.yul\":1205:1712   */\n          swap3\n          pop\n          swap3\n          swap1\n          pop\n          jump\t// out\n            /* \"Crowdfunding.sol\":495:3331  contract Crowdfunding {... */\n        tag_6:\n          dataSize(sub_0)\n          dup1\n          dataOffset(sub_0)\n          0x00\n          codecopy\n          0x00\n          return\n        stop\n\n        sub_0: assembly {\n                /* \"Crowdfunding.sol\":495:3331  contract Crowdfunding {... */\n              mstore(0x40, 0x80)\n              jumpi(tag_1, lt(calldatasize, 0x04))\n              shr(0xe0, calldataload(0x00))\n              dup1\n              0x81d12c58\n              gt\n              tag_13\n              jumpi\n              dup1\n              0x81d12c58\n              eq\n              tag_7\n              jumpi\n              dup1\n              0x82fde093\n              eq\n              tag_8\n              jumpi\n              dup1\n              0x8a9cfd55\n              eq\n              tag_9\n              jumpi\n              dup1\n              0x937e09b1\n              eq\n              tag_10\n              jumpi\n              dup1\n              0xd7bb99ba\n              eq\n              tag_11\n              jumpi\n              dup1\n              0xd7d1bbdb\n              eq\n              tag_12\n              jumpi\n              jump(tag_1)\n            tag_13:\n              dup1\n              0x03441006\n              eq\n              tag_2\n              jumpi\n              dup1\n              0x0a144391\n              eq\n              tag_3\n              jumpi\n              dup1\n              0x3410452a\n              eq\n              tag_4\n              jumpi\n              dup1\n              0x4051ddac\n              eq\n              tag_5\n              jumpi\n              dup1\n              0x481c6a75\n              eq\n              tag_6\n              jumpi\n            tag_1:\n              0x00\n              dup1\n              revert\n                /* \"Crowdfunding.sol\":2536:2943  function finalizeRequest(uint256 i) public onlyToManager {... */\n            tag_2:\n              callvalue\n              dup1\n              iszero\n              tag_14\n              jumpi\n              0x00\n              dup1\n              revert\n            tag_14:\n              pop\n              tag_15\n              0x04\n              dup1\n              calldatasize\n              sub\n              dup2\n              add\n              swap1\n              tag_16\n              swap2\n              swap1\n              tag_17\n              jump\t// in\n            tag_16:\n              tag_18\n              jump\t// in\n            tag_15:\n              stop\n                /* \"Crowdfunding.sol\":847:889  mapping (address => bool) public approvers */\n            tag_3:\n              callvalue\n              dup1\n              iszero\n              tag_19\n              jumpi\n              0x00\n              dup1\n              revert\n            tag_19:\n              pop\n              tag_20\n              0x04\n              dup1\n              calldatasize\n              sub\n              dup2\n              add\n              swap1\n              tag_21\n              swap2\n              swap1\n              tag_22\n              jump\t// in\n            tag_21:\n              tag_23\n              jump\t// in\n            tag_20:\n              mload(0x40)\n              tag_24\n              swap2\n              swap1\n              tag_25\n              jump\t// in\n            tag_24:\n              mload(0x40)\n              dup1\n              swap2\n              sub\n              swap1\n              return\n                /* \"Crowdfunding.sol\":3231:3328  function getRequestsCount () public view returns (uint) {... */\n            tag_4:\n              callvalue\n              dup1\n              iszero\n              tag_26\n              jumpi\n              0x00\n              dup1\n              revert\n            tag_26:\n              pop\n              tag_27\n              tag_28\n              jump\t// in\n            tag_27:\n              mload(0x40)\n              tag_29\n              swap2\n              swap1\n              tag_30\n              jump\t// in\n            tag_29:\n              mload(0x40)\n              dup1\n              swap2\n              sub\n              swap1\n              return\n                /* \"Crowdfunding.sol\":2951:3223  function getSummary() public view returns (... */\n            tag_5:\n              callvalue\n              dup1\n              iszero\n              tag_31\n              jumpi\n              0x00\n              dup1\n              revert\n            tag_31:\n              pop\n              tag_32\n              tag_33\n              jump\t// in\n            tag_32:\n              mload(0x40)\n              tag_34\n              swap6\n              swap5\n              swap4\n              swap3\n              swap2\n              swap1\n              tag_35\n              jump\t// in\n            tag_34:\n              mload(0x40)\n              dup1\n              swap2\n              sub\n              swap1\n              return\n                /* \"Crowdfunding.sol\":777:799  address public manager */\n            tag_6:\n              callvalue\n              dup1\n              iszero\n              tag_36\n              jumpi\n              0x00\n              dup1\n              revert\n            tag_36:\n              pop\n              tag_37\n              tag_38\n              jump\t// in\n            tag_37:\n              mload(0x40)\n              tag_39\n              swap2\n              swap1\n              tag_40\n              jump\t// in\n            tag_39:\n              mload(0x40)\n              dup1\n              swap2\n              sub\n              swap1\n              return\n                /* \"Crowdfunding.sol\":745:770  Request[] public requests */\n            tag_7:\n              callvalue\n              dup1\n              iszero\n              tag_41\n              jumpi\n              0x00\n              dup1\n              revert\n            tag_41:\n              pop\n              tag_42\n              0x04\n              dup1\n              calldatasize\n              sub\n              dup2\n              add\n              swap1\n              tag_43\n              swap2\n              swap1\n              tag_17\n              jump\t// in\n            tag_43:\n              tag_44\n              jump\t// in\n            tag_42:\n              mload(0x40)\n              tag_45\n              swap6\n              swap5\n              swap4\n              swap3\n              swap2\n              swap1\n              tag_46\n              jump\t// in\n            tag_45:\n              mload(0x40)\n              dup1\n              swap2\n              sub\n              swap1\n              return\n                /* \"Crowdfunding.sol\":896:922  uint public approversCount */\n            tag_8:\n              callvalue\n              dup1\n              iszero\n              tag_47\n              jumpi\n              0x00\n              dup1\n              revert\n            tag_47:\n              pop\n              tag_48\n              tag_49\n              jump\t// in\n            tag_48:\n              mload(0x40)\n              tag_50\n              swap2\n              swap1\n              tag_30\n              jump\t// in\n            tag_50:\n              mload(0x40)\n              dup1\n              swap2\n              sub\n              swap1\n              return\n                /* \"Crowdfunding.sol\":1327:2240  function createRequest(... */\n            tag_9:\n              callvalue\n              dup1\n              iszero\n              tag_51\n              jumpi\n              0x00\n              dup1\n              revert\n            tag_51:\n              pop\n              tag_52\n              0x04\n              dup1\n              calldatasize\n              sub\n              dup2\n              add\n              swap1\n              tag_53\n              swap2\n              swap1\n              tag_54\n              jump\t// in\n            tag_53:\n              tag_55\n              jump\t// in\n            tag_52:\n              stop\n                /* \"Crowdfunding.sol\":806:840  uint256 public minimumContribution */\n            tag_10:\n              callvalue\n              dup1\n              iszero\n              tag_56\n              jumpi\n              0x00\n              dup1\n              revert\n            tag_56:\n              pop\n              tag_57\n              tag_58\n              jump\t// in\n            tag_57:\n              mload(0x40)\n              tag_59\n              swap2\n              swap1\n              tag_30\n              jump\t// in\n            tag_59:\n              mload(0x40)\n              dup1\n              swap2\n              sub\n              swap1\n              return\n                /* \"Crowdfunding.sol\":1155:1319  function contribute() public payable {... */\n            tag_11:\n              tag_60\n              tag_61\n              jump\t// in\n            tag_60:\n              stop\n                /* \"Crowdfunding.sol\":2248:2528  function approveRequest(uint256 index) public {... */\n            tag_12:\n              callvalue\n              dup1\n              iszero\n              tag_62\n              jumpi\n              0x00\n              dup1\n              revert\n            tag_62:\n              pop\n              tag_63\n              0x04\n              dup1\n              calldatasize\n              sub\n              dup2\n              add\n              swap1\n              tag_64\n              swap2\n              swap1\n              tag_17\n              jump\t// in\n            tag_64:\n              tag_65\n              jump\t// in\n            tag_63:\n              stop\n                /* \"Crowdfunding.sol\":2536:2943  function finalizeRequest(uint256 i) public onlyToManager {... */\n            tag_18:\n                /* \"Crowdfunding.sol\":989:996  manager */\n              0x01\n              0x00\n              swap1\n              sload\n              swap1\n              0x0100\n              exp\n              swap1\n              div\n              0xffffffffffffffffffffffffffffffffffffffff\n              and\n                /* \"Crowdfunding.sol\":975:996  msg.sender == manager */\n              0xffffffffffffffffffffffffffffffffffffffff\n              and\n                /* \"Crowdfunding.sol\":975:985  msg.sender */\n              caller\n                /* \"Crowdfunding.sol\":975:996  msg.sender == manager */\n              0xffffffffffffffffffffffffffffffffffffffff\n              and\n              eq\n                /* \"Crowdfunding.sol\":967:997  require(msg.sender == manager) */\n              tag_67\n              jumpi\n              0x00\n              dup1\n              revert\n            tag_67:\n                /* \"Crowdfunding.sol\":2604:2627  Request storage request */\n              0x00\n                /* \"Crowdfunding.sol\":2630:2638  requests */\n              dup1\n                /* \"Crowdfunding.sol\":2639:2640  i */\n              dup3\n                /* \"Crowdfunding.sol\":2630:2641  requests[i] */\n              dup2\n              sload\n              dup2\n              lt\n              tag_69\n              jumpi\n              tag_70\n              tag_71\n              jump\t// in\n            tag_70:\n            tag_69:\n              swap1\n              0x00\n              mstore\n              keccak256(0x00, 0x20)\n              swap1\n              0x05\n              mul\n              add\n                /* \"Crowdfunding.sol\":2604:2641  Request storage request = requests[i] */\n              swap1\n              pop\n                /* \"Crowdfunding.sol\":2807:2808  2 */\n              0x02\n                /* \"Crowdfunding.sol\":2790:2804  approversCount */\n              sload(0x04)\n                /* \"Crowdfunding.sol\":2790:2808  approversCount / 2 */\n              tag_73\n              swap2\n              swap1\n              tag_74\n              jump\t// in\n            tag_73:\n                /* \"Crowdfunding.sol\":2765:2772  request */\n              dup2\n                /* \"Crowdfunding.sol\":2765:2786  request.approvalCount */\n              0x03\n              add\n              sload\n                /* \"Crowdfunding.sol\":2765:2809  request.approvalCount > (approversCount / 2) */\n              gt\n                /* \"Crowdfunding.sol\":2757:2810  require(request.approvalCount > (approversCount / 2)) */\n              tag_75\n              jumpi\n              0x00\n              dup1\n              revert\n            tag_75:\n                /* \"Crowdfunding.sol\":2830:2837  request */\n              dup1\n                /* \"Crowdfunding.sol\":2830:2846  request.complete */\n              0x02\n              add\n              0x14\n              swap1\n              sload\n              swap1\n              0x0100\n              exp\n              swap1\n              div\n              0xff\n              and\n                /* \"Crowdfunding.sol\":2829:2846  !request.complete */\n              iszero\n                /* \"Crowdfunding.sol\":2821:2847  require(!request.complete) */\n              tag_76\n              jumpi\n              0x00\n              dup1\n              revert\n            tag_76:\n                /* \"Crowdfunding.sol\":2860:2867  request */\n              dup1\n                /* \"Crowdfunding.sol\":2860:2877  request.recipient */\n              0x02\n              add\n              0x00\n              swap1\n              sload\n              swap1\n              0x0100\n              exp\n              swap1\n              div\n              0xffffffffffffffffffffffffffffffffffffffff\n              and\n                /* \"Crowdfunding.sol\":2860:2886  request.recipient.transfer */\n              0xffffffffffffffffffffffffffffffffffffffff\n              and\n                /* \"Crowdfunding.sol\":2860:2901  request.recipient.transfer(request.value) */\n              0x08fc\n                /* \"Crowdfunding.sol\":2887:2894  request */\n              dup3\n                /* \"Crowdfunding.sol\":2887:2900  request.value */\n              0x01\n              add\n              sload\n                /* \"Crowdfunding.sol\":2860:2901  request.recipient.transfer(request.value) */\n              swap1\n              dup2\n              iszero\n              mul\n              swap1\n              mload(0x40)\n              0x00\n              mload(0x40)\n              dup1\n              dup4\n              sub\n              dup2\n              dup6\n              dup9\n              dup9\n              call\n              swap4\n              pop\n              pop\n              pop\n              pop\n              iszero\n              dup1\n              iszero\n              tag_78\n              jumpi\n              returndatasize\n              0x00\n              dup1\n              returndatacopy\n              revert(0x00, returndatasize)\n            tag_78:\n              pop\n                /* \"Crowdfunding.sol\":2931:2935  true */\n              0x01\n                /* \"Crowdfunding.sol\":2912:2919  request */\n              dup2\n                /* \"Crowdfunding.sol\":2912:2928  request.complete */\n              0x02\n              add\n              0x14\n                /* \"Crowdfunding.sol\":2912:2935  request.complete = true */\n              0x0100\n              exp\n              dup2\n              sload\n              dup2\n              0xff\n              mul\n              not\n              and\n              swap1\n              dup4\n              iszero\n              iszero\n              mul\n              or\n              swap1\n              sstore\n              pop\n                /* \"Crowdfunding.sol\":2593:2943  {... */\n              pop\n                /* \"Crowdfunding.sol\":2536:2943  function finalizeRequest(uint256 i) public onlyToManager {... */\n              pop\n              jump\t// out\n                /* \"Crowdfunding.sol\":847:889  mapping (address => bool) public approvers */\n            tag_23:\n              mstore(0x20, 0x03)\n              dup1\n              0x00\n              mstore\n              keccak256(0x00, 0x40)\n              0x00\n              swap2\n              pop\n              sload\n              swap1\n              0x0100\n              exp\n              swap1\n              div\n              0xff\n              and\n              dup2\n              jump\t// out\n                /* \"Crowdfunding.sol\":3231:3328  function getRequestsCount () public view returns (uint) {... */\n            tag_28:\n                /* \"Crowdfunding.sol\":3281:3285  uint */\n              0x00\n                /* \"Crowdfunding.sol\":3305:3313  requests */\n              dup1\n                /* \"Crowdfunding.sol\":3305:3320  requests.length */\n              dup1\n              sload\n              swap1\n              pop\n                /* \"Crowdfunding.sol\":3298:3320  return requests.length */\n              swap1\n              pop\n                /* \"Crowdfunding.sol\":3231:3328  function getRequestsCount () public view returns (uint) {... */\n              swap1\n              jump\t// out\n                /* \"Crowdfunding.sol\":2951:3223  function getSummary() public view returns (... */\n            tag_33:\n                /* \"Crowdfunding.sol\":3000:3004  uint */\n              0x00\n                /* \"Crowdfunding.sol\":3006:3010  uint */\n              dup1\n                /* \"Crowdfunding.sol\":3012:3016  uint */\n              0x00\n                /* \"Crowdfunding.sol\":3018:3022  uint */\n              dup1\n                /* \"Crowdfunding.sol\":3024:3031  address */\n              0x00\n                /* \"Crowdfunding.sol\":3068:3087  minimumContribution */\n              sload(0x02)\n                /* \"Crowdfunding.sol\":3102:3123  address(this).balance */\n              selfbalance\n                /* \"Crowdfunding.sol\":3138:3146  requests */\n              0x00\n                /* \"Crowdfunding.sol\":3138:3153  requests.length */\n              dup1\n              sload\n              swap1\n              pop\n                /* \"Crowdfunding.sol\":3168:3182  approversCount */\n              sload(0x04)\n                /* \"Crowdfunding.sol\":3197:3204  manager */\n              0x01\n              0x00\n              swap1\n              sload\n              swap1\n              0x0100\n              exp\n              swap1\n              div\n              0xffffffffffffffffffffffffffffffffffffffff\n              and\n                /* \"Crowdfunding.sol\":3046:3215  return (... */\n              swap5\n              pop\n              swap5\n              pop\n              swap5\n              pop\n              swap5\n              pop\n              swap5\n              pop\n                /* \"Crowdfunding.sol\":2951:3223  function getSummary() public view returns (... */\n              swap1\n              swap2\n              swap3\n              swap4\n              swap5\n              jump\t// out\n                /* \"Crowdfunding.sol\":777:799  address public manager */\n            tag_38:\n              0x01\n              0x00\n              swap1\n              sload\n              swap1\n              0x0100\n              exp\n              swap1\n              div\n              0xffffffffffffffffffffffffffffffffffffffff\n              and\n              dup2\n              jump\t// out\n                /* \"Crowdfunding.sol\":745:770  Request[] public requests */\n            tag_44:\n              0x00\n              dup2\n              dup2\n              sload\n              dup2\n              lt\n              tag_81\n              jumpi\n              0x00\n              dup1\n              revert\n            tag_81:\n              swap1\n              0x00\n              mstore\n              keccak256(0x00, 0x20)\n              swap1\n              0x05\n              mul\n              add\n              0x00\n              swap2\n              pop\n              swap1\n              pop\n              dup1\n              0x00\n              add\n              dup1\n              sload\n              tag_83\n              swap1\n              tag_84\n              jump\t// in\n            tag_83:\n              dup1\n              0x1f\n              add\n              0x20\n              dup1\n              swap2\n              div\n              mul\n              0x20\n              add\n              mload(0x40)\n              swap1\n              dup2\n              add\n              0x40\n              mstore\n              dup1\n              swap3\n              swap2\n              swap1\n              dup2\n              dup2\n              mstore\n              0x20\n              add\n              dup3\n              dup1\n              sload\n              tag_85\n              swap1\n              tag_84\n              jump\t// in\n            tag_85:\n              dup1\n              iszero\n              tag_86\n              jumpi\n              dup1\n              0x1f\n              lt\n              tag_87\n              jumpi\n              0x0100\n              dup1\n              dup4\n              sload\n              div\n              mul\n              dup4\n              mstore\n              swap2\n              0x20\n              add\n              swap2\n              jump(tag_86)\n            tag_87:\n              dup3\n              add\n              swap2\n              swap1\n              0x00\n              mstore\n              keccak256(0x00, 0x20)\n              swap1\n            tag_88:\n              dup2\n              sload\n              dup2\n              mstore\n              swap1\n              0x01\n              add\n              swap1\n              0x20\n              add\n              dup1\n              dup4\n              gt\n              tag_88\n              jumpi\n              dup3\n              swap1\n              sub\n              0x1f\n              and\n              dup3\n              add\n              swap2\n            tag_86:\n              pop\n              pop\n              pop\n              pop\n              pop\n              swap1\n              dup1\n              0x01\n              add\n              sload\n              swap1\n              dup1\n              0x02\n              add\n              0x00\n              swap1\n              sload\n              swap1\n              0x0100\n              exp\n              swap1\n              div\n              0xffffffffffffffffffffffffffffffffffffffff\n              and\n              swap1\n              dup1\n              0x02\n              add\n              0x14\n              swap1\n              sload\n              swap1\n              0x0100\n              exp\n              swap1\n              div\n              0xff\n              and\n              swap1\n              dup1\n              0x03\n              add\n              sload\n              swap1\n              pop\n              dup6\n              jump\t// out\n                /* \"Crowdfunding.sol\":896:922  uint public approversCount */\n            tag_49:\n              sload(0x04)\n              dup2\n              jump\t// out\n                /* \"Crowdfunding.sol\":1327:2240  function createRequest(... */\n            tag_55:\n                /* \"Crowdfunding.sol\":989:996  manager */\n              0x01\n              0x00\n              swap1\n              sload\n              swap1\n              0x0100\n              exp\n              swap1\n              div\n              0xffffffffffffffffffffffffffffffffffffffff\n              and\n                /* \"Crowdfunding.sol\":975:996  msg.sender == manager */\n              0xffffffffffffffffffffffffffffffffffffffff\n              and\n                /* \"Crowdfunding.sol\":975:985  msg.sender */\n              caller\n                /* \"Crowdfunding.sol\":975:996  msg.sender == manager */\n              0xffffffffffffffffffffffffffffffffffffffff\n              and\n              eq\n                /* \"Crowdfunding.sol\":967:997  require(msg.sender == manager) */\n              tag_90\n              jumpi\n              0x00\n              dup1\n              revert\n            tag_90:\n                /* \"Crowdfunding.sol\":1900:1914  uint256 _index */\n              0x00\n                /* \"Crowdfunding.sol\":1917:1925  requests */\n              dup1\n                /* \"Crowdfunding.sol\":1917:1932  requests.length */\n              dup1\n              sload\n              swap1\n              pop\n                /* \"Crowdfunding.sol\":1900:1932  uint256 _index = requests.length */\n              swap1\n              pop\n                /* \"Crowdfunding.sol\":1943:1962  Request[] storage r */\n              0x00\n                /* \"Crowdfunding.sol\":1984:1985  r */\n              dup1\n                /* \"Crowdfunding.sol\":1984:1992  r.push() */\n              0x01\n              dup2\n              0x01\n              dup2\n              sload\n              add\n              dup1\n              dup3\n              sstore\n              dup1\n              swap2\n              pop\n              pop\n              sub\n              swap1\n              0x00\n              mstore\n              keccak256(0x00, 0x20)\n              swap1\n              pop\n              pop\n                /* \"Crowdfunding.sol\":2029:2040  description */\n              dup5\n                /* \"Crowdfunding.sol\":2005:2006  r */\n              dup2\n                /* \"Crowdfunding.sol\":2007:2013  _index */\n              dup4\n                /* \"Crowdfunding.sol\":2005:2014  r[_index] */\n              dup2\n              sload\n              dup2\n              lt\n              tag_93\n              jumpi\n              tag_94\n              tag_71\n              jump\t// in\n            tag_94:\n            tag_93:\n              swap1\n              0x00\n              mstore\n              keccak256(0x00, 0x20)\n              swap1\n              0x05\n              mul\n              add\n                /* \"Crowdfunding.sol\":2005:2026  r[_index].description */\n              0x00\n              add\n                /* \"Crowdfunding.sol\":2005:2040  r[_index].description = description */\n              swap1\n              dup2\n              tag_96\n              swap2\n              swap1\n              tag_97\n              jump\t// in\n            tag_96:\n              pop\n                /* \"Crowdfunding.sol\":2069:2074  value */\n              dup4\n                /* \"Crowdfunding.sol\":2051:2052  r */\n              dup2\n                /* \"Crowdfunding.sol\":2053:2059  _index */\n              dup4\n                /* \"Crowdfunding.sol\":2051:2060  r[_index] */\n              dup2\n              sload\n              dup2\n              lt\n              tag_98\n              jumpi\n              tag_99\n              tag_71\n              jump\t// in\n            tag_99:\n            tag_98:\n              swap1\n              0x00\n              mstore\n              keccak256(0x00, 0x20)\n              swap1\n              0x05\n              mul\n              add\n                /* \"Crowdfunding.sol\":2051:2066  r[_index].value */\n              0x01\n              add\n                /* \"Crowdfunding.sol\":2051:2074  r[_index].value = value */\n              dup2\n              swap1\n              sstore\n              pop\n                /* \"Crowdfunding.sol\":2107:2116  recipient */\n              dup3\n                /* \"Crowdfunding.sol\":2085:2086  r */\n              dup2\n                /* \"Crowdfunding.sol\":2087:2093  _index */\n              dup4\n                /* \"Crowdfunding.sol\":2085:2094  r[_index] */\n              dup2\n              sload\n              dup2\n              lt\n              tag_101\n              jumpi\n              tag_102\n              tag_71\n              jump\t// in\n            tag_102:\n            tag_101:\n              swap1\n              0x00\n              mstore\n              keccak256(0x00, 0x20)\n              swap1\n              0x05\n              mul\n              add\n                /* \"Crowdfunding.sol\":2085:2104  r[_index].recipient */\n              0x02\n              add\n              0x00\n                /* \"Crowdfunding.sol\":2085:2116  r[_index].recipient = recipient */\n              0x0100\n              exp\n              dup2\n              sload\n              dup2\n              0xffffffffffffffffffffffffffffffffffffffff\n              mul\n              not\n              and\n              swap1\n              dup4\n              0xffffffffffffffffffffffffffffffffffffffff\n              and\n              mul\n              or\n              swap1\n              sstore\n              pop\n                /* \"Crowdfunding.sol\":2148:2153  false */\n              0x00\n                /* \"Crowdfunding.sol\":2127:2128  r */\n              dup2\n                /* \"Crowdfunding.sol\":2129:2135  _index */\n              dup4\n                /* \"Crowdfunding.sol\":2127:2136  r[_index] */\n              dup2\n              sload\n              dup2\n              lt\n              tag_104\n              jumpi\n              tag_105\n              tag_71\n              jump\t// in\n            tag_105:\n            tag_104:\n              swap1\n              0x00\n              mstore\n              keccak256(0x00, 0x20)\n              swap1\n              0x05\n              mul\n              add\n                /* \"Crowdfunding.sol\":2127:2145  r[_index].complete */\n              0x02\n              add\n              0x14\n                /* \"Crowdfunding.sol\":2127:2153  r[_index].complete = false */\n              0x0100\n              exp\n              dup2\n              sload\n              dup2\n              0xff\n              mul\n              not\n              and\n              swap1\n              dup4\n              iszero\n              iszero\n              mul\n              or\n              swap1\n              sstore\n              pop\n                /* \"Crowdfunding.sol\":2190:2191  0 */\n              0x00\n                /* \"Crowdfunding.sol\":2164:2165  r */\n              dup2\n                /* \"Crowdfunding.sol\":2166:2172  _index */\n              dup4\n                /* \"Crowdfunding.sol\":2164:2173  r[_index] */\n              dup2\n              sload\n              dup2\n              lt\n              tag_107\n              jumpi\n              tag_108\n              tag_71\n              jump\t// in\n            tag_108:\n            tag_107:\n              swap1\n              0x00\n              mstore\n              keccak256(0x00, 0x20)\n              swap1\n              0x05\n              mul\n              add\n                /* \"Crowdfunding.sol\":2164:2187  r[_index].approvalCount */\n              0x03\n              add\n                /* \"Crowdfunding.sol\":2164:2191  r[_index].approvalCount = 0 */\n              dup2\n              swap1\n              sstore\n              pop\n                /* \"Crowdfunding.sol\":1474:2240  {... */\n              pop\n              pop\n                /* \"Crowdfunding.sol\":1327:2240  function createRequest(... */\n              pop\n              pop\n              pop\n              jump\t// out\n                /* \"Crowdfunding.sol\":806:840  uint256 public minimumContribution */\n            tag_58:\n              sload(0x02)\n              dup2\n              jump\t// out\n                /* \"Crowdfunding.sol\":1155:1319  function contribute() public payable {... */\n            tag_61:\n                /* \"Crowdfunding.sol\":1223:1242  minimumContribution */\n              sload(0x02)\n                /* \"Crowdfunding.sol\":1211:1220  msg.value */\n              callvalue\n                /* \"Crowdfunding.sol\":1211:1242  msg.value > minimumContribution */\n              gt\n                /* \"Crowdfunding.sol\":1203:1243  require(msg.value > minimumContribution) */\n              tag_111\n              jumpi\n              0x00\n              dup1\n              revert\n            tag_111:\n                /* \"Crowdfunding.sol\":1280:1284  true */\n              0x01\n                /* \"Crowdfunding.sol\":1256:1265  approvers */\n              0x03\n                /* \"Crowdfunding.sol\":1256:1277  approvers[msg.sender] */\n              0x00\n                /* \"Crowdfunding.sol\":1266:1276  msg.sender */\n              caller\n                /* \"Crowdfunding.sol\":1256:1277  approvers[msg.sender] */\n              0xffffffffffffffffffffffffffffffffffffffff\n              and\n              0xffffffffffffffffffffffffffffffffffffffff\n              and\n              dup2\n              mstore\n              0x20\n              add\n              swap1\n              dup2\n              mstore\n              0x20\n              add\n              0x00\n              keccak256\n              0x00\n                /* \"Crowdfunding.sol\":1256:1284  approvers[msg.sender] = true */\n              0x0100\n              exp\n              dup2\n              sload\n              dup2\n              0xff\n              mul\n              not\n              and\n              swap1\n              dup4\n              iszero\n              iszero\n              mul\n              or\n              swap1\n              sstore\n              pop\n                /* \"Crowdfunding.sol\":1295:1309  approversCount */\n              0x04\n              0x00\n                /* \"Crowdfunding.sol\":1295:1311  approversCount++ */\n              dup2\n              sload\n              dup1\n              swap3\n              swap2\n              swap1\n              tag_112\n              swap1\n              tag_113\n              jump\t// in\n            tag_112:\n              swap2\n              swap1\n              pop\n              sstore\n              pop\n                /* \"Crowdfunding.sol\":1155:1319  function contribute() public payable {... */\n              jump\t// out\n                /* \"Crowdfunding.sol\":2248:2528  function approveRequest(uint256 index) public {... */\n            tag_65:\n                /* \"Crowdfunding.sol\":2305:2328  Request storage request */\n              0x00\n                /* \"Crowdfunding.sol\":2331:2339  requests */\n              dup1\n                /* \"Crowdfunding.sol\":2340:2345  index */\n              dup3\n                /* \"Crowdfunding.sol\":2331:2346  requests[index] */\n              dup2\n              sload\n              dup2\n              lt\n              tag_115\n              jumpi\n              tag_116\n              tag_71\n              jump\t// in\n            tag_116:\n            tag_115:\n              swap1\n              0x00\n              mstore\n              keccak256(0x00, 0x20)\n              swap1\n              0x05\n              mul\n              add\n                /* \"Crowdfunding.sol\":2305:2346  Request storage request = requests[index] */\n              swap1\n              pop\n                /* \"Crowdfunding.sol\":2365:2374  approvers */\n              0x03\n                /* \"Crowdfunding.sol\":2365:2386  approvers[msg.sender] */\n              0x00\n                /* \"Crowdfunding.sol\":2375:2385  msg.sender */\n              caller\n                /* \"Crowdfunding.sol\":2365:2386  approvers[msg.sender] */\n              0xffffffffffffffffffffffffffffffffffffffff\n              and\n              0xffffffffffffffffffffffffffffffffffffffff\n              and\n              dup2\n              mstore\n              0x20\n              add\n              swap1\n              dup2\n              mstore\n              0x20\n              add\n              0x00\n              keccak256\n              0x00\n              swap1\n              sload\n              swap1\n              0x0100\n              exp\n              swap1\n              div\n              0xff\n              and\n                /* \"Crowdfunding.sol\":2357:2387  require(approvers[msg.sender]) */\n              tag_118\n              jumpi\n              0x00\n              dup1\n              revert\n            tag_118:\n                /* \"Crowdfunding.sol\":2407:2414  request */\n              dup1\n                /* \"Crowdfunding.sol\":2407:2424  request.approvals */\n              0x04\n              add\n                /* \"Crowdfunding.sol\":2407:2436  request.approvals[msg.sender] */\n              0x00\n                /* \"Crowdfunding.sol\":2425:2435  msg.sender */\n              caller\n                /* \"Crowdfunding.sol\":2407:2436  request.approvals[msg.sender] */\n              0xffffffffffffffffffffffffffffffffffffffff\n              and\n              0xffffffffffffffffffffffffffffffffffffffff\n              and\n              dup2\n              mstore\n              0x20\n              add\n              swap1\n              dup2\n              mstore\n              0x20\n              add\n              0x00\n              keccak256\n              0x00\n              swap1\n              sload\n              swap1\n              0x0100\n              exp\n              swap1\n              div\n              0xff\n              and\n                /* \"Crowdfunding.sol\":2406:2436  !request.approvals[msg.sender] */\n              iszero\n                /* \"Crowdfunding.sol\":2398:2437  require(!request.approvals[msg.sender]) */\n              tag_119\n              jumpi\n              0x00\n              dup1\n              revert\n            tag_119:\n                /* \"Crowdfunding.sol\":2482:2486  true */\n              0x01\n                /* \"Crowdfunding.sol\":2450:2457  request */\n              dup2\n                /* \"Crowdfunding.sol\":2450:2467  request.approvals */\n              0x04\n              add\n                /* \"Crowdfunding.sol\":2450:2479  request.approvals[msg.sender] */\n              0x00\n                /* \"Crowdfunding.sol\":2468:2478  msg.sender */\n              caller\n                /* \"Crowdfunding.sol\":2450:2479  request.approvals[msg.sender] */\n              0xffffffffffffffffffffffffffffffffffffffff\n              and\n              0xffffffffffffffffffffffffffffffffffffffff\n              and\n              dup2\n              mstore\n              0x20\n              add\n              swap1\n              dup2\n              mstore\n              0x20\n              add\n              0x00\n              keccak256\n              0x00\n                /* \"Crowdfunding.sol\":2450:2486  request.approvals[msg.sender] = true */\n              0x0100\n              exp\n              dup2\n              sload\n              dup2\n              0xff\n              mul\n              not\n              and\n              swap1\n              dup4\n              iszero\n              iszero\n              mul\n              or\n              swap1\n              sstore\n              pop\n                /* \"Crowdfunding.sol\":2497:2504  request */\n              dup1\n                /* \"Crowdfunding.sol\":2497:2518  request.approvalCount */\n              0x03\n              add\n              0x00\n                /* \"Crowdfunding.sol\":2497:2520  request.approvalCount++ */\n              dup2\n              sload\n              dup1\n              swap3\n              swap2\n              swap1\n              tag_120\n              swap1\n              tag_113\n              jump\t// in\n            tag_120:\n              swap2\n              swap1\n              pop\n              sstore\n              pop\n                /* \"Crowdfunding.sol\":2294:2528  {... */\n              pop\n                /* \"Crowdfunding.sol\":2248:2528  function approveRequest(uint256 index) public {... */\n              pop\n              jump\t// out\n                /* \"#utility.yul\":7:82   */\n            tag_121:\n                /* \"#utility.yul\":40:46   */\n              0x00\n                /* \"#utility.yul\":73:75   */\n              0x40\n                /* \"#utility.yul\":67:76   */\n              mload\n                /* \"#utility.yul\":57:76   */\n              swap1\n              pop\n                /* \"#utility.yul\":7:82   */\n              swap1\n              jump\t// out\n                /* \"#utility.yul\":88:205   */\n            tag_122:\n                /* \"#utility.yul\":197:198   */\n              0x00\n                /* \"#utility.yul\":194:195   */\n              dup1\n                /* \"#utility.yul\":187:199   */\n              revert\n                /* \"#utility.yul\":211:328   */\n            tag_123:\n                /* \"#utility.yul\":320:321   */\n              0x00\n                /* \"#utility.yul\":317:318   */\n              dup1\n                /* \"#utility.yul\":310:322   */\n              revert\n                /* \"#utility.yul\":334:411   */\n            tag_124:\n                /* \"#utility.yul\":371:378   */\n              0x00\n                /* \"#utility.yul\":400:405   */\n              dup2\n                /* \"#utility.yul\":389:405   */\n              swap1\n              pop\n                /* \"#utility.yul\":334:411   */\n              swap2\n              swap1\n              pop\n              jump\t// out\n                /* \"#utility.yul\":417:539   */\n            tag_125:\n                /* \"#utility.yul\":490:514   */\n              tag_177\n                /* \"#utility.yul\":508:513   */\n              dup2\n                /* \"#utility.yul\":490:514   */\n              tag_124\n              jump\t// in\n            tag_177:\n                /* \"#utility.yul\":483:488   */\n              dup2\n                /* \"#utility.yul\":480:515   */\n              eq\n                /* \"#utility.yul\":470:533   */\n              tag_178\n              jumpi\n                /* \"#utility.yul\":529:530   */\n              0x00\n                /* \"#utility.yul\":526:527   */\n              dup1\n                /* \"#utility.yul\":519:531   */\n              revert\n                /* \"#utility.yul\":470:533   */\n            tag_178:\n                /* \"#utility.yul\":417:539   */\n              pop\n              jump\t// out\n                /* \"#utility.yul\":545:684   */\n            tag_126:\n                /* \"#utility.yul\":591:596   */\n              0x00\n                /* \"#utility.yul\":629:635   */\n              dup2\n                /* \"#utility.yul\":616:636   */\n              calldataload\n                /* \"#utility.yul\":607:636   */\n              swap1\n              pop\n                /* \"#utility.yul\":645:678   */\n              tag_180\n                /* \"#utility.yul\":672:677   */\n              dup2\n                /* \"#utility.yul\":645:678   */\n              tag_125\n              jump\t// in\n            tag_180:\n                /* \"#utility.yul\":545:684   */\n              swap3\n              swap2\n              pop\n              pop\n              jump\t// out\n                /* \"#utility.yul\":690:1019   */\n            tag_17:\n                /* \"#utility.yul\":749:755   */\n              0x00\n                /* \"#utility.yul\":798:800   */\n              0x20\n                /* \"#utility.yul\":786:795   */\n              dup3\n                /* \"#utility.yul\":777:784   */\n              dup5\n                /* \"#utility.yul\":773:796   */\n              sub\n                /* \"#utility.yul\":769:801   */\n              slt\n                /* \"#utility.yul\":766:885   */\n              iszero\n              tag_182\n              jumpi\n                /* \"#utility.yul\":804:883   */\n              tag_183\n              tag_122\n              jump\t// in\n            tag_183:\n                /* \"#utility.yul\":766:885   */\n            tag_182:\n                /* \"#utility.yul\":924:925   */\n              0x00\n                /* \"#utility.yul\":949:1002   */\n              tag_184\n                /* \"#utility.yul\":994:1001   */\n              dup5\n                /* \"#utility.yul\":985:991   */\n              dup3\n                /* \"#utility.yul\":974:983   */\n              dup6\n                /* \"#utility.yul\":970:992   */\n              add\n                /* \"#utility.yul\":949:1002   */\n              tag_126\n              jump\t// in\n            tag_184:\n                /* \"#utility.yul\":939:1002   */\n              swap2\n              pop\n                /* \"#utility.yul\":895:1012   */\n              pop\n                /* \"#utility.yul\":690:1019   */\n              swap3\n              swap2\n              pop\n              pop\n              jump\t// out\n                /* \"#utility.yul\":1025:1151   */\n            tag_127:\n                /* \"#utility.yul\":1062:1069   */\n              0x00\n                /* \"#utility.yul\":1102:1144   */\n              0xffffffffffffffffffffffffffffffffffffffff\n                /* \"#utility.yul\":1095:1100   */\n              dup3\n                /* \"#utility.yul\":1091:1145   */\n              and\n                /* \"#utility.yul\":1080:1145   */\n              swap1\n              pop\n                /* \"#utility.yul\":1025:1151   */\n              swap2\n              swap1\n              pop\n              jump\t// out\n                /* \"#utility.yul\":1157:1253   */\n            tag_128:\n                /* \"#utility.yul\":1194:1201   */\n              0x00\n                /* \"#utility.yul\":1223:1247   */\n              tag_187\n                /* \"#utility.yul\":1241:1246   */\n              dup3\n                /* \"#utility.yul\":1223:1247   */\n              tag_127\n              jump\t// in\n            tag_187:\n                /* \"#utility.yul\":1212:1247   */\n              swap1\n              pop\n                /* \"#utility.yul\":1157:1253   */\n              swap2\n              swap1\n              pop\n              jump\t// out\n                /* \"#utility.yul\":1259:1381   */\n            tag_129:\n                /* \"#utility.yul\":1332:1356   */\n              tag_189\n                /* \"#utility.yul\":1350:1355   */\n              dup2\n                /* \"#utility.yul\":1332:1356   */\n              tag_128\n              jump\t// in\n            tag_189:\n                /* \"#utility.yul\":1325:1330   */\n              dup2\n                /* \"#utility.yul\":1322:1357   */\n              eq\n                /* \"#utility.yul\":1312:1375   */\n              tag_190\n              jumpi\n                /* \"#utility.yul\":1371:1372   */\n              0x00\n                /* \"#utility.yul\":1368:1369   */\n              dup1\n                /* \"#utility.yul\":1361:1373   */\n              revert\n                /* \"#utility.yul\":1312:1375   */\n            tag_190:\n                /* \"#utility.yul\":1259:1381   */\n              pop\n              jump\t// out\n                /* \"#utility.yul\":1387:1526   */\n            tag_130:\n                /* \"#utility.yul\":1433:1438   */\n              0x00\n                /* \"#utility.yul\":1471:1477   */\n              dup2\n                /* \"#utility.yul\":1458:1478   */\n              calldataload\n                /* \"#utility.yul\":1449:1478   */\n              swap1\n              pop\n                /* \"#utility.yul\":1487:1520   */\n              tag_192\n                /* \"#utility.yul\":1514:1519   */\n              dup2\n                /* \"#utility.yul\":1487:1520   */\n              tag_129\n              jump\t// in\n            tag_192:\n                /* \"#utility.yul\":1387:1526   */\n              swap3\n              swap2\n              pop\n              pop\n              jump\t// out\n                /* \"#utility.yul\":1532:1861   */\n            tag_22:\n                /* \"#utility.yul\":1591:1597   */\n              0x00\n                /* \"#utility.yul\":1640:1642   */\n              0x20\n                /* \"#utility.yul\":1628:1637   */\n              dup3\n                /* \"#utility.yul\":1619:1626   */\n              dup5\n                /* \"#utility.yul\":1615:1638   */\n              sub\n                /* \"#utility.yul\":1611:1643   */\n              slt\n                /* \"#utility.yul\":1608:1727   */\n              iszero\n              tag_194\n              jumpi\n                /* \"#utility.yul\":1646:1725   */\n              tag_195\n              tag_122\n              jump\t// in\n            tag_195:\n                /* \"#utility.yul\":1608:1727   */\n            tag_194:\n                /* \"#utility.yul\":1766:1767   */\n              0x00\n                /* \"#utility.yul\":1791:1844   */\n              tag_196\n                /* \"#utility.yul\":1836:1843   */\n              dup5\n                /* \"#utility.yul\":1827:1833   */\n              dup3\n                /* \"#utility.yul\":1816:1825   */\n              dup6\n                /* \"#utility.yul\":1812:1834   */\n              add\n                /* \"#utility.yul\":1791:1844   */\n              tag_130\n              jump\t// in\n            tag_196:\n                /* \"#utility.yul\":1781:1844   */\n              swap2\n              pop\n                /* \"#utility.yul\":1737:1854   */\n              pop\n                /* \"#utility.yul\":1532:1861   */\n              swap3\n              swap2\n              pop\n              pop\n              jump\t// out\n                /* \"#utility.yul\":1867:1957   */\n            tag_131:\n                /* \"#utility.yul\":1901:1908   */\n              0x00\n                /* \"#utility.yul\":1944:1949   */\n              dup2\n                /* \"#utility.yul\":1937:1950   */\n              iszero\n                /* \"#utility.yul\":1930:1951   */\n              iszero\n                /* \"#utility.yul\":1919:1951   */\n              swap1\n              pop\n                /* \"#utility.yul\":1867:1957   */\n              swap2\n              swap1\n              pop\n              jump\t// out\n                /* \"#utility.yul\":1963:2072   */\n            tag_132:\n                /* \"#utility.yul\":2044:2065   */\n              tag_199\n                /* \"#utility.yul\":2059:2064   */\n              dup2\n                /* \"#utility.yul\":2044:2065   */\n              tag_131\n              jump\t// in\n            tag_199:\n                /* \"#utility.yul\":2039:2042   */\n              dup3\n                /* \"#utility.yul\":2032:2066   */\n              mstore\n                /* \"#utility.yul\":1963:2072   */\n              pop\n              pop\n              jump\t// out\n                /* \"#utility.yul\":2078:2288   */\n            tag_25:\n                /* \"#utility.yul\":2165:2169   */\n              0x00\n                /* \"#utility.yul\":2203:2205   */\n              0x20\n                /* \"#utility.yul\":2192:2201   */\n              dup3\n                /* \"#utility.yul\":2188:2206   */\n              add\n                /* \"#utility.yul\":2180:2206   */\n              swap1\n              pop\n                /* \"#utility.yul\":2216:2281   */\n              tag_201\n                /* \"#utility.yul\":2278:2279   */\n              0x00\n                /* \"#utility.yul\":2267:2276   */\n              dup4\n                /* \"#utility.yul\":2263:2280   */\n              add\n                /* \"#utility.yul\":2254:2260   */\n              dup5\n                /* \"#utility.yul\":2216:2281   */\n              tag_132\n              jump\t// in\n            tag_201:\n                /* \"#utility.yul\":2078:2288   */\n              swap3\n              swap2\n              pop\n              pop\n              jump\t// out\n                /* \"#utility.yul\":2294:2412   */\n            tag_133:\n                /* \"#utility.yul\":2381:2405   */\n              tag_203\n                /* \"#utility.yul\":2399:2404   */\n              dup2\n                /* \"#utility.yul\":2381:2405   */\n              tag_124\n              jump\t// in\n            tag_203:\n                /* \"#utility.yul\":2376:2379   */\n              dup3\n                /* \"#utility.yul\":2369:2406   */\n              mstore\n                /* \"#utility.yul\":2294:2412   */\n              pop\n              pop\n              jump\t// out\n                /* \"#utility.yul\":2418:2640   */\n            tag_30:\n                /* \"#utility.yul\":2511:2515   */\n              0x00\n                /* \"#utility.yul\":2549:2551   */\n              0x20\n                /* \"#utility.yul\":2538:2547   */\n              dup3\n                /* \"#utility.yul\":2534:2552   */\n              add\n                /* \"#utility.yul\":2526:2552   */\n              swap1\n              pop\n                /* \"#utility.yul\":2562:2633   */\n              tag_205\n                /* \"#utility.yul\":2630:2631   */\n              0x00\n                /* \"#utility.yul\":2619:2628   */\n              dup4\n                /* \"#utility.yul\":2615:2632   */\n              add\n                /* \"#utility.yul\":2606:2612   */\n              dup5\n                /* \"#utility.yul\":2562:2633   */\n              tag_133\n              jump\t// in\n            tag_205:\n                /* \"#utility.yul\":2418:2640   */\n              swap3\n              swap2\n              pop\n              pop\n              jump\t// out\n                /* \"#utility.yul\":2646:2764   */\n            tag_134:\n                /* \"#utility.yul\":2733:2757   */\n              tag_207\n                /* \"#utility.yul\":2751:2756   */\n              dup2\n                /* \"#utility.yul\":2733:2757   */\n              tag_128\n              jump\t// in\n            tag_207:\n                /* \"#utility.yul\":2728:2731   */\n              dup3\n                /* \"#utility.yul\":2721:2758   */\n              mstore\n                /* \"#utility.yul\":2646:2764   */\n              pop\n              pop\n              jump\t// out\n                /* \"#utility.yul\":2770:3434   */\n            tag_35:\n                /* \"#utility.yul\":2975:2979   */\n              0x00\n                /* \"#utility.yul\":3013:3016   */\n              0xa0\n                /* \"#utility.yul\":3002:3011   */\n              dup3\n                /* \"#utility.yul\":2998:3017   */\n              add\n                /* \"#utility.yul\":2990:3017   */\n              swap1\n              pop\n                /* \"#utility.yul\":3027:3098   */\n              tag_209\n                /* \"#utility.yul\":3095:3096   */\n              0x00\n                /* \"#utility.yul\":3084:3093   */\n              dup4\n                /* \"#utility.yul\":3080:3097   */\n              add\n                /* \"#utility.yul\":3071:3077   */\n              dup9\n                /* \"#utility.yul\":3027:3098   */\n              tag_133\n              jump\t// in\n            tag_209:\n                /* \"#utility.yul\":3108:3180   */\n              tag_210\n                /* \"#utility.yul\":3176:3178   */\n              0x20\n                /* \"#utility.yul\":3165:3174   */\n              dup4\n                /* \"#utility.yul\":3161:3179   */\n              add\n                /* \"#utility.yul\":3152:3158   */\n              dup8\n                /* \"#utility.yul\":3108:3180   */\n              tag_133\n              jump\t// in\n            tag_210:\n                /* \"#utility.yul\":3190:3262   */\n              tag_211\n                /* \"#utility.yul\":3258:3260   */\n              0x40\n                /* \"#utility.yul\":3247:3256   */\n              dup4\n                /* \"#utility.yul\":3243:3261   */\n              add\n                /* \"#utility.yul\":3234:3240   */\n              dup7\n                /* \"#utility.yul\":3190:3262   */\n              tag_133\n              jump\t// in\n            tag_211:\n                /* \"#utility.yul\":3272:3344   */\n              tag_212\n                /* \"#utility.yul\":3340:3342   */\n              0x60\n                /* \"#utility.yul\":3329:3338   */\n              dup4\n                /* \"#utility.yul\":3325:3343   */\n              add\n                /* \"#utility.yul\":3316:3322   */\n              dup6\n                /* \"#utility.yul\":3272:3344   */\n              tag_133\n              jump\t// in\n            tag_212:\n                /* \"#utility.yul\":3354:3427   */\n              tag_213\n                /* \"#utility.yul\":3422:3425   */\n              0x80\n                /* \"#utility.yul\":3411:3420   */\n              dup4\n                /* \"#utility.yul\":3407:3426   */\n              add\n                /* \"#utility.yul\":3398:3404   */\n              dup5\n                /* \"#utility.yul\":3354:3427   */\n              tag_134\n              jump\t// in\n            tag_213:\n                /* \"#utility.yul\":2770:3434   */\n              swap7\n              swap6\n              pop\n              pop\n              pop\n              pop\n              pop\n              pop\n              jump\t// out\n                /* \"#utility.yul\":3440:3662   */\n            tag_40:\n                /* \"#utility.yul\":3533:3537   */\n              0x00\n                /* \"#utility.yul\":3571:3573   */\n              0x20\n                /* \"#utility.yul\":3560:3569   */\n              dup3\n                /* \"#utility.yul\":3556:3574   */\n              add\n                /* \"#utility.yul\":3548:3574   */\n              swap1\n              pop\n                /* \"#utility.yul\":3584:3655   */\n              tag_215\n                /* \"#utility.yul\":3652:3653   */\n              0x00\n                /* \"#utility.yul\":3641:3650   */\n              dup4\n                /* \"#utility.yul\":3637:3654   */\n              add\n                /* \"#utility.yul\":3628:3634   */\n              dup5\n                /* \"#utility.yul\":3584:3655   */\n              tag_134\n              jump\t// in\n            tag_215:\n                /* \"#utility.yul\":3440:3662   */\n              swap3\n              swap2\n              pop\n              pop\n              jump\t// out\n                /* \"#utility.yul\":3668:3767   */\n            tag_135:\n                /* \"#utility.yul\":3720:3726   */\n              0x00\n                /* \"#utility.yul\":3754:3759   */\n              dup2\n                /* \"#utility.yul\":3748:3760   */\n              mload\n                /* \"#utility.yul\":3738:3760   */\n              swap1\n              pop\n                /* \"#utility.yul\":3668:3767   */\n              swap2\n              swap1\n              pop\n              jump\t// out\n                /* \"#utility.yul\":3773:3942   */\n            tag_136:\n                /* \"#utility.yul\":3857:3868   */\n              0x00\n                /* \"#utility.yul\":3891:3897   */\n              dup3\n                /* \"#utility.yul\":3886:3889   */\n              dup3\n                /* \"#utility.yul\":3879:3898   */\n              mstore\n                /* \"#utility.yul\":3931:3935   */\n              0x20\n                /* \"#utility.yul\":3926:3929   */\n              dup3\n                /* \"#utility.yul\":3922:3936   */\n              add\n                /* \"#utility.yul\":3907:3936   */\n              swap1\n              pop\n                /* \"#utility.yul\":3773:3942   */\n              swap3\n              swap2\n              pop\n              pop\n              jump\t// out\n                /* \"#utility.yul\":3948:4087   */\n            tag_137:\n                /* \"#utility.yul\":4037:4043   */\n              dup3\n                /* \"#utility.yul\":4032:4035   */\n              dup2\n                /* \"#utility.yul\":4027:4030   */\n              dup4\n                /* \"#utility.yul\":4021:4044   */\n              mcopy\n                /* \"#utility.yul\":4078:4079   */\n              0x00\n                /* \"#utility.yul\":4069:4075   */\n              dup4\n                /* \"#utility.yul\":4064:4067   */\n              dup4\n                /* \"#utility.yul\":4060:4076   */\n              add\n                /* \"#utility.yul\":4053:4080   */\n              mstore\n                /* \"#utility.yul\":3948:4087   */\n              pop\n              pop\n              pop\n              jump\t// out\n                /* \"#utility.yul\":4093:4195   */\n            tag_138:\n                /* \"#utility.yul\":4134:4140   */\n              0x00\n                /* \"#utility.yul\":4185:4187   */\n              0x1f\n                /* \"#utility.yul\":4181:4188   */\n              not\n                /* \"#utility.yul\":4176:4178   */\n              0x1f\n                /* \"#utility.yul\":4169:4174   */\n              dup4\n                /* \"#utility.yul\":4165:4179   */\n              add\n                /* \"#utility.yul\":4161:4189   */\n              and\n                /* \"#utility.yul\":4151:4189   */\n              swap1\n              pop\n                /* \"#utility.yul\":4093:4195   */\n              swap2\n              swap1\n              pop\n              jump\t// out\n                /* \"#utility.yul\":4201:4578   */\n            tag_139:\n                /* \"#utility.yul\":4289:4292   */\n              0x00\n                /* \"#utility.yul\":4317:4356   */\n              tag_221\n                /* \"#utility.yul\":4350:4355   */\n              dup3\n                /* \"#utility.yul\":4317:4356   */\n              tag_135\n              jump\t// in\n            tag_221:\n                /* \"#utility.yul\":4372:4443   */\n              tag_222\n                /* \"#utility.yul\":4436:4442   */\n              dup2\n                /* \"#utility.yul\":4431:4434   */\n              dup6\n                /* \"#utility.yul\":4372:4443   */\n              tag_136\n              jump\t// in\n            tag_222:\n                /* \"#utility.yul\":4365:4443   */\n              swap4\n              pop\n                /* \"#utility.yul\":4452:4517   */\n              tag_223\n                /* \"#utility.yul\":4510:4516   */\n              dup2\n                /* \"#utility.yul\":4505:4508   */\n              dup6\n                /* \"#utility.yul\":4498:4502   */\n              0x20\n                /* \"#utility.yul\":4491:4496   */\n              dup7\n                /* \"#utility.yul\":4487:4503   */\n              add\n                /* \"#utility.yul\":4452:4517   */\n              tag_137\n              jump\t// in\n            tag_223:\n                /* \"#utility.yul\":4542:4571   */\n              tag_224\n                /* \"#utility.yul\":4564:4570   */\n              dup2\n                /* \"#utility.yul\":4542:4571   */\n              tag_138\n              jump\t// in\n            tag_224:\n                /* \"#utility.yul\":4537:4540   */\n              dup5\n                /* \"#utility.yul\":4533:4572   */\n              add\n                /* \"#utility.yul\":4526:4572   */\n              swap2\n              pop\n                /* \"#utility.yul\":4293:4578   */\n              pop\n                /* \"#utility.yul\":4201:4578   */\n              swap3\n              swap2\n              pop\n              pop\n              jump\t// out\n                /* \"#utility.yul\":4584:4688   */\n            tag_140:\n                /* \"#utility.yul\":4629:4636   */\n              0x00\n                /* \"#utility.yul\":4658:4682   */\n              tag_226\n                /* \"#utility.yul\":4676:4681   */\n              dup3\n                /* \"#utility.yul\":4658:4682   */\n              tag_127\n              jump\t// in\n            tag_226:\n                /* \"#utility.yul\":4647:4682   */\n              swap1\n              pop\n                /* \"#utility.yul\":4584:4688   */\n              swap2\n              swap1\n              pop\n              jump\t// out\n                /* \"#utility.yul\":4694:4836   */\n            tag_141:\n                /* \"#utility.yul\":4797:4829   */\n              tag_228\n                /* \"#utility.yul\":4823:4828   */\n              dup2\n                /* \"#utility.yul\":4797:4829   */\n              tag_140\n              jump\t// in\n            tag_228:\n                /* \"#utility.yul\":4792:4795   */\n              dup3\n                /* \"#utility.yul\":4785:4830   */\n              mstore\n                /* \"#utility.yul\":4694:4836   */\n              pop\n              pop\n              jump\t// out\n                /* \"#utility.yul\":4842:5617   */\n            tag_46:\n                /* \"#utility.yul\":5077:5081   */\n              0x00\n                /* \"#utility.yul\":5115:5118   */\n              0xa0\n                /* \"#utility.yul\":5104:5113   */\n              dup3\n                /* \"#utility.yul\":5100:5119   */\n              add\n                /* \"#utility.yul\":5092:5119   */\n              swap1\n              pop\n                /* \"#utility.yul\":5165:5174   */\n              dup2\n                /* \"#utility.yul\":5159:5163   */\n              dup2\n                /* \"#utility.yul\":5155:5175   */\n              sub\n                /* \"#utility.yul\":5151:5152   */\n              0x00\n                /* \"#utility.yul\":5140:5149   */\n              dup4\n                /* \"#utility.yul\":5136:5153   */\n              add\n                /* \"#utility.yul\":5129:5176   */\n              mstore\n                /* \"#utility.yul\":5193:5271   */\n              tag_230\n                /* \"#utility.yul\":5266:5270   */\n              dup2\n                /* \"#utility.yul\":5257:5263   */\n              dup9\n                /* \"#utility.yul\":5193:5271   */\n              tag_139\n              jump\t// in\n            tag_230:\n                /* \"#utility.yul\":5185:5271   */\n              swap1\n              pop\n                /* \"#utility.yul\":5281:5353   */\n              tag_231\n                /* \"#utility.yul\":5349:5351   */\n              0x20\n                /* \"#utility.yul\":5338:5347   */\n              dup4\n                /* \"#utility.yul\":5334:5352   */\n              add\n                /* \"#utility.yul\":5325:5331   */\n              dup8\n                /* \"#utility.yul\":5281:5353   */\n              tag_133\n              jump\t// in\n            tag_231:\n                /* \"#utility.yul\":5363:5451   */\n              tag_232\n                /* \"#utility.yul\":5447:5449   */\n              0x40\n                /* \"#utility.yul\":5436:5445   */\n              dup4\n                /* \"#utility.yul\":5432:5450   */\n              add\n                /* \"#utility.yul\":5423:5429   */\n              dup7\n                /* \"#utility.yul\":5363:5451   */\n              tag_141\n              jump\t// in\n            tag_232:\n                /* \"#utility.yul\":5461:5527   */\n              tag_233\n                /* \"#utility.yul\":5523:5525   */\n              0x60\n                /* \"#utility.yul\":5512:5521   */\n              dup4\n                /* \"#utility.yul\":5508:5526   */\n              add\n                /* \"#utility.yul\":5499:5505   */\n              dup6\n                /* \"#utility.yul\":5461:5527   */\n              tag_132\n              jump\t// in\n            tag_233:\n                /* \"#utility.yul\":5537:5610   */\n              tag_234\n                /* \"#utility.yul\":5605:5608   */\n              0x80\n                /* \"#utility.yul\":5594:5603   */\n              dup4\n                /* \"#utility.yul\":5590:5609   */\n              add\n                /* \"#utility.yul\":5581:5587   */\n              dup5\n                /* \"#utility.yul\":5537:5610   */\n              tag_133\n              jump\t// in\n            tag_234:\n                /* \"#utility.yul\":4842:5617   */\n              swap7\n              swap6\n              pop\n              pop\n              pop\n              pop\n              pop\n              pop\n              jump\t// out\n                /* \"#utility.yul\":5623:5740   */\n            tag_142:\n                /* \"#utility.yul\":5732:5733   */\n              0x00\n                /* \"#utility.yul\":5729:5730   */\n              dup1\n                /* \"#utility.yul\":5722:5734   */\n              revert\n                /* \"#utility.yul\":5746:5863   */\n            tag_143:\n                /* \"#utility.yul\":5855:5856   */\n              0x00\n                /* \"#utility.yul\":5852:5853   */\n              dup1\n                /* \"#utility.yul\":5845:5857   */\n              revert\n                /* \"#utility.yul\":5869:6049   */\n            tag_144:\n                /* \"#utility.yul\":5917:5994   */\n              0x4e487b7100000000000000000000000000000000000000000000000000000000\n                /* \"#utility.yul\":5914:5915   */\n              0x00\n                /* \"#utility.yul\":5907:5995   */\n              mstore\n                /* \"#utility.yul\":6014:6018   */\n              0x41\n                /* \"#utility.yul\":6011:6012   */\n              0x04\n                /* \"#utility.yul\":6004:6019   */\n              mstore\n                /* \"#utility.yul\":6038:6042   */\n              0x24\n                /* \"#utility.yul\":6035:6036   */\n              0x00\n                /* \"#utility.yul\":6028:6043   */\n              revert\n                /* \"#utility.yul\":6055:6336   */\n            tag_145:\n                /* \"#utility.yul\":6138:6165   */\n              tag_239\n                /* \"#utility.yul\":6160:6164   */\n              dup3\n                /* \"#utility.yul\":6138:6165   */\n              tag_138\n              jump\t// in\n            tag_239:\n                /* \"#utility.yul\":6130:6136   */\n              dup2\n                /* \"#utility.yul\":6126:6166   */\n              add\n                /* \"#utility.yul\":6268:6274   */\n              dup2\n                /* \"#utility.yul\":6256:6266   */\n              dup2\n                /* \"#utility.yul\":6253:6275   */\n              lt\n                /* \"#utility.yul\":6232:6250   */\n              0xffffffffffffffff\n                /* \"#utility.yul\":6220:6230   */\n              dup3\n                /* \"#utility.yul\":6217:6251   */\n              gt\n                /* \"#utility.yul\":6214:6276   */\n              or\n                /* \"#utility.yul\":6211:6299   */\n              iszero\n              tag_240\n              jumpi\n                /* \"#utility.yul\":6279:6297   */\n              tag_241\n              tag_144\n              jump\t// in\n            tag_241:\n                /* \"#utility.yul\":6211:6299   */\n            tag_240:\n                /* \"#utility.yul\":6319:6329   */\n              dup1\n                /* \"#utility.yul\":6315:6317   */\n              0x40\n                /* \"#utility.yul\":6308:6330   */\n              mstore\n                /* \"#utility.yul\":6098:6336   */\n              pop\n                /* \"#utility.yul\":6055:6336   */\n              pop\n              pop\n              jump\t// out\n                /* \"#utility.yul\":6342:6471   */\n            tag_146:\n                /* \"#utility.yul\":6376:6382   */\n              0x00\n                /* \"#utility.yul\":6403:6423   */\n              tag_243\n              tag_121\n              jump\t// in\n            tag_243:\n                /* \"#utility.yul\":6393:6423   */\n              swap1\n              pop\n                /* \"#utility.yul\":6432:6465   */\n              tag_244\n                /* \"#utility.yul\":6460:6464   */\n              dup3\n                /* \"#utility.yul\":6452:6458   */\n              dup3\n                /* \"#utility.yul\":6432:6465   */\n              tag_145\n              jump\t// in\n            tag_244:\n                /* \"#utility.yul\":6342:6471   */\n              swap2\n              swap1\n              pop\n              jump\t// out\n                /* \"#utility.yul\":6477:6785   */\n            tag_147:\n                /* \"#utility.yul\":6539:6543   */\n              0x00\n                /* \"#utility.yul\":6629:6647   */\n              0xffffffffffffffff\n                /* \"#utility.yul\":6621:6627   */\n              dup3\n                /* \"#utility.yul\":6618:6648   */\n              gt\n                /* \"#utility.yul\":6615:6671   */\n              iszero\n              tag_246\n              jumpi\n                /* \"#utility.yul\":6651:6669   */\n              tag_247\n              tag_144\n              jump\t// in\n            tag_247:\n                /* \"#utility.yul\":6615:6671   */\n            tag_246:\n                /* \"#utility.yul\":6689:6718   */\n              tag_248\n                /* \"#utility.yul\":6711:6717   */\n              dup3\n                /* \"#utility.yul\":6689:6718   */\n              tag_138\n              jump\t// in\n            tag_248:\n                /* \"#utility.yul\":6681:6718   */\n              swap1\n              pop\n                /* \"#utility.yul\":6773:6777   */\n              0x20\n                /* \"#utility.yul\":6767:6771   */\n              dup2\n                /* \"#utility.yul\":6763:6778   */\n              add\n                /* \"#utility.yul\":6755:6778   */\n              swap1\n              pop\n                /* \"#utility.yul\":6477:6785   */\n              swap2\n              swap1\n              pop\n              jump\t// out\n                /* \"#utility.yul\":6791:6939   */\n            tag_148:\n                /* \"#utility.yul\":6889:6895   */\n              dup3\n                /* \"#utility.yul\":6884:6887   */\n              dup2\n                /* \"#utility.yul\":6879:6882   */\n              dup4\n                /* \"#utility.yul\":6866:6896   */\n              calldatacopy\n                /* \"#utility.yul\":6930:6931   */\n              0x00\n                /* \"#utility.yul\":6921:6927   */\n              dup4\n                /* \"#utility.yul\":6916:6919   */\n              dup4\n                /* \"#utility.yul\":6912:6928   */\n              add\n                /* \"#utility.yul\":6905:6932   */\n              mstore\n                /* \"#utility.yul\":6791:6939   */\n              pop\n              pop\n              pop\n              jump\t// out\n                /* \"#utility.yul\":6945:7370   */\n            tag_149:\n                /* \"#utility.yul\":7023:7028   */\n              0x00\n                /* \"#utility.yul\":7048:7114   */\n              tag_251\n                /* \"#utility.yul\":7064:7113   */\n              tag_252\n                /* \"#utility.yul\":7106:7112   */\n              dup5\n                /* \"#utility.yul\":7064:7113   */\n              tag_147\n              jump\t// in\n            tag_252:\n                /* \"#utility.yul\":7048:7114   */\n              tag_146\n              jump\t// in\n            tag_251:\n                /* \"#utility.yul\":7039:7114   */\n              swap1\n              pop\n                /* \"#utility.yul\":7137:7143   */\n              dup3\n                /* \"#utility.yul\":7130:7135   */\n              dup2\n                /* \"#utility.yul\":7123:7144   */\n              mstore\n                /* \"#utility.yul\":7175:7179   */\n              0x20\n                /* \"#utility.yul\":7168:7173   */\n              dup2\n                /* \"#utility.yul\":7164:7180   */\n              add\n                /* \"#utility.yul\":7213:7216   */\n              dup5\n                /* \"#utility.yul\":7204:7210   */\n              dup5\n                /* \"#utility.yul\":7199:7202   */\n              dup5\n                /* \"#utility.yul\":7195:7211   */\n              add\n                /* \"#utility.yul\":7192:7217   */\n              gt\n                /* \"#utility.yul\":7189:7301   */\n              iszero\n              tag_253\n              jumpi\n                /* \"#utility.yul\":7220:7299   */\n              tag_254\n              tag_143\n              jump\t// in\n            tag_254:\n                /* \"#utility.yul\":7189:7301   */\n            tag_253:\n                /* \"#utility.yul\":7310:7364   */\n              tag_255\n                /* \"#utility.yul\":7357:7363   */\n              dup5\n                /* \"#utility.yul\":7352:7355   */\n              dup3\n                /* \"#utility.yul\":7347:7350   */\n              dup6\n                /* \"#utility.yul\":7310:7364   */\n              tag_148\n              jump\t// in\n            tag_255:\n                /* \"#utility.yul\":7029:7370   */\n              pop\n                /* \"#utility.yul\":6945:7370   */\n              swap4\n              swap3\n              pop\n              pop\n              pop\n              jump\t// out\n                /* \"#utility.yul\":7390:7730   */\n            tag_150:\n                /* \"#utility.yul\":7446:7451   */\n              0x00\n                /* \"#utility.yul\":7495:7498   */\n              dup3\n                /* \"#utility.yul\":7488:7492   */\n              0x1f\n                /* \"#utility.yul\":7480:7486   */\n              dup4\n                /* \"#utility.yul\":7476:7493   */\n              add\n                /* \"#utility.yul\":7472:7499   */\n              slt\n                /* \"#utility.yul\":7462:7584   */\n              tag_257\n              jumpi\n                /* \"#utility.yul\":7503:7582   */\n              tag_258\n              tag_142\n              jump\t// in\n            tag_258:\n                /* \"#utility.yul\":7462:7584   */\n            tag_257:\n                /* \"#utility.yul\":7620:7626   */\n              dup2\n                /* \"#utility.yul\":7607:7627   */\n              calldataload\n                /* \"#utility.yul\":7645:7724   */\n              tag_259\n                /* \"#utility.yul\":7720:7723   */\n              dup5\n                /* \"#utility.yul\":7712:7718   */\n              dup3\n                /* \"#utility.yul\":7705:7709   */\n              0x20\n                /* \"#utility.yul\":7697:7703   */\n              dup7\n                /* \"#utility.yul\":7693:7710   */\n              add\n                /* \"#utility.yul\":7645:7724   */\n              tag_149\n              jump\t// in\n            tag_259:\n                /* \"#utility.yul\":7636:7724   */\n              swap2\n              pop\n                /* \"#utility.yul\":7452:7730   */\n              pop\n                /* \"#utility.yul\":7390:7730   */\n              swap3\n              swap2\n              pop\n              pop\n              jump\t// out\n                /* \"#utility.yul\":7736:7874   */\n            tag_151:\n                /* \"#utility.yul\":7817:7849   */\n              tag_261\n                /* \"#utility.yul\":7843:7848   */\n              dup2\n                /* \"#utility.yul\":7817:7849   */\n              tag_140\n              jump\t// in\n            tag_261:\n                /* \"#utility.yul\":7810:7815   */\n              dup2\n                /* \"#utility.yul\":7807:7850   */\n              eq\n                /* \"#utility.yul\":7797:7868   */\n              tag_262\n              jumpi\n                /* \"#utility.yul\":7864:7865   */\n              0x00\n                /* \"#utility.yul\":7861:7862   */\n              dup1\n                /* \"#utility.yul\":7854:7866   */\n              revert\n                /* \"#utility.yul\":7797:7868   */\n            tag_262:\n                /* \"#utility.yul\":7736:7874   */\n              pop\n              jump\t// out\n                /* \"#utility.yul\":7880:8035   */\n            tag_152:\n                /* \"#utility.yul\":7934:7939   */\n              0x00\n                /* \"#utility.yul\":7972:7978   */\n              dup2\n                /* \"#utility.yul\":7959:7979   */\n              calldataload\n                /* \"#utility.yul\":7950:7979   */\n              swap1\n              pop\n                /* \"#utility.yul\":7988:8029   */\n              tag_264\n                /* \"#utility.yul\":8023:8028   */\n              dup2\n                /* \"#utility.yul\":7988:8029   */\n              tag_151\n              jump\t// in\n            tag_264:\n                /* \"#utility.yul\":7880:8035   */\n              swap3\n              swap2\n              pop\n              pop\n              jump\t// out\n                /* \"#utility.yul\":8041:8856   */\n            tag_54:\n                /* \"#utility.yul\":8136:8142   */\n              0x00\n                /* \"#utility.yul\":8144:8150   */\n              dup1\n                /* \"#utility.yul\":8152:8158   */\n              0x00\n                /* \"#utility.yul\":8201:8203   */\n              0x60\n                /* \"#utility.yul\":8189:8198   */\n              dup5\n                /* \"#utility.yul\":8180:8187   */\n              dup7\n                /* \"#utility.yul\":8176:8199   */\n              sub\n                /* \"#utility.yul\":8172:8204   */\n              slt\n                /* \"#utility.yul\":8169:8288   */\n              iszero\n              tag_266\n              jumpi\n                /* \"#utility.yul\":8207:8286   */\n              tag_267\n              tag_122\n              jump\t// in\n            tag_267:\n                /* \"#utility.yul\":8169:8288   */\n            tag_266:\n                /* \"#utility.yul\":8355:8356   */\n              0x00\n                /* \"#utility.yul\":8344:8353   */\n              dup5\n                /* \"#utility.yul\":8340:8357   */\n              add\n                /* \"#utility.yul\":8327:8358   */\n              calldataload\n                /* \"#utility.yul\":8385:8403   */\n              0xffffffffffffffff\n                /* \"#utility.yul\":8377:8383   */\n              dup2\n                /* \"#utility.yul\":8374:8404   */\n              gt\n                /* \"#utility.yul\":8371:8488   */\n              iszero\n              tag_268\n              jumpi\n                /* \"#utility.yul\":8407:8486   */\n              tag_269\n              tag_123\n              jump\t// in\n            tag_269:\n                /* \"#utility.yul\":8371:8488   */\n            tag_268:\n                /* \"#utility.yul\":8512:8575   */\n              tag_270\n                /* \"#utility.yul\":8567:8574   */\n              dup7\n                /* \"#utility.yul\":8558:8564   */\n              dup3\n                /* \"#utility.yul\":8547:8556   */\n              dup8\n                /* \"#utility.yul\":8543:8565   */\n              add\n                /* \"#utility.yul\":8512:8575   */\n              tag_150\n              jump\t// in\n            tag_270:\n                /* \"#utility.yul\":8502:8575   */\n              swap4\n              pop\n                /* \"#utility.yul\":8298:8585   */\n              pop\n                /* \"#utility.yul\":8624:8626   */\n              0x20\n                /* \"#utility.yul\":8650:8703   */\n              tag_271\n                /* \"#utility.yul\":8695:8702   */\n              dup7\n                /* \"#utility.yul\":8686:8692   */\n              dup3\n                /* \"#utility.yul\":8675:8684   */\n              dup8\n                /* \"#utility.yul\":8671:8693   */\n              add\n                /* \"#utility.yul\":8650:8703   */\n              tag_126\n              jump\t// in\n            tag_271:\n                /* \"#utility.yul\":8640:8703   */\n              swap3\n              pop\n                /* \"#utility.yul\":8595:8713   */\n              pop\n                /* \"#utility.yul\":8752:8754   */\n              0x40\n                /* \"#utility.yul\":8778:8839   */\n              tag_272\n                /* \"#utility.yul\":8831:8838   */\n              dup7\n                /* \"#utility.yul\":8822:8828   */\n              dup3\n                /* \"#utility.yul\":8811:8820   */\n              dup8\n                /* \"#utility.yul\":8807:8829   */\n              add\n                /* \"#utility.yul\":8778:8839   */\n              tag_152\n              jump\t// in\n            tag_272:\n                /* \"#utility.yul\":8768:8839   */\n              swap2\n              pop\n                /* \"#utility.yul\":8723:8849   */\n              pop\n                /* \"#utility.yul\":8041:8856   */\n              swap3\n              pop\n              swap3\n              pop\n              swap3\n              jump\t// out\n                /* \"#utility.yul\":8862:9042   */\n            tag_71:\n                /* \"#utility.yul\":8910:8987   */\n              0x4e487b7100000000000000000000000000000000000000000000000000000000\n                /* \"#utility.yul\":8907:8908   */\n              0x00\n                /* \"#utility.yul\":8900:8988   */\n              mstore\n                /* \"#utility.yul\":9007:9011   */\n              0x32\n                /* \"#utility.yul\":9004:9005   */\n              0x04\n                /* \"#utility.yul\":8997:9012   */\n              mstore\n                /* \"#utility.yul\":9031:9035   */\n              0x24\n                /* \"#utility.yul\":9028:9029   */\n              0x00\n                /* \"#utility.yul\":9021:9036   */\n              revert\n                /* \"#utility.yul\":9048:9228   */\n            tag_153:\n                /* \"#utility.yul\":9096:9173   */\n              0x4e487b7100000000000000000000000000000000000000000000000000000000\n                /* \"#utility.yul\":9093:9094   */\n              0x00\n                /* \"#utility.yul\":9086:9174   */\n              mstore\n                /* \"#utility.yul\":9193:9197   */\n              0x12\n                /* \"#utility.yul\":9190:9191   */\n              0x04\n                /* \"#utility.yul\":9183:9198   */\n              mstore\n                /* \"#utility.yul\":9217:9221   */\n              0x24\n                /* \"#utility.yul\":9214:9215   */\n              0x00\n                /* \"#utility.yul\":9207:9222   */\n              revert\n                /* \"#utility.yul\":9234:9414   */\n            tag_154:\n                /* \"#utility.yul\":9282:9359   */\n              0x4e487b7100000000000000000000000000000000000000000000000000000000\n                /* \"#utility.yul\":9279:9280   */\n              0x00\n                /* \"#utility.yul\":9272:9360   */\n              mstore\n                /* \"#utility.yul\":9379:9383   */\n              0x11\n                /* \"#utility.yul\":9376:9377   */\n              0x04\n                /* \"#utility.yul\":9369:9384   */\n              mstore\n                /* \"#utility.yul\":9403:9407   */\n              0x24\n                /* \"#utility.yul\":9400:9401   */\n              0x00\n                /* \"#utility.yul\":9393:9408   */\n              revert\n                /* \"#utility.yul\":9420:9605   */\n            tag_74:\n                /* \"#utility.yul\":9460:9461   */\n              0x00\n                /* \"#utility.yul\":9477:9497   */\n              tag_277\n                /* \"#utility.yul\":9495:9496   */\n              dup3\n                /* \"#utility.yul\":9477:9497   */\n              tag_124\n              jump\t// in\n            tag_277:\n                /* \"#utility.yul\":9472:9497   */\n              swap2\n              pop\n                /* \"#utility.yul\":9511:9531   */\n              tag_278\n                /* \"#utility.yul\":9529:9530   */\n              dup4\n                /* \"#utility.yul\":9511:9531   */\n              tag_124\n              jump\t// in\n            tag_278:\n                /* \"#utility.yul\":9506:9531   */\n              swap3\n              pop\n                /* \"#utility.yul\":9550:9551   */\n              dup3\n                /* \"#utility.yul\":9540:9575   */\n              tag_279\n              jumpi\n                /* \"#utility.yul\":9555:9573   */\n              tag_280\n              tag_153\n              jump\t// in\n            tag_280:\n                /* \"#utility.yul\":9540:9575   */\n            tag_279:\n                /* \"#utility.yul\":9597:9598   */\n              dup3\n                /* \"#utility.yul\":9594:9595   */\n              dup3\n                /* \"#utility.yul\":9590:9599   */\n              div\n                /* \"#utility.yul\":9585:9599   */\n              swap1\n              pop\n                /* \"#utility.yul\":9420:9605   */\n              swap3\n              swap2\n              pop\n              pop\n              jump\t// out\n                /* \"#utility.yul\":9611:9791   */\n            tag_155:\n                /* \"#utility.yul\":9659:9736   */\n              0x4e487b7100000000000000000000000000000000000000000000000000000000\n                /* \"#utility.yul\":9656:9657   */\n              0x00\n                /* \"#utility.yul\":9649:9737   */\n              mstore\n                /* \"#utility.yul\":9756:9760   */\n              0x22\n                /* \"#utility.yul\":9753:9754   */\n              0x04\n                /* \"#utility.yul\":9746:9761   */\n              mstore\n                /* \"#utility.yul\":9780:9784   */\n              0x24\n                /* \"#utility.yul\":9777:9778   */\n              0x00\n                /* \"#utility.yul\":9770:9785   */\n              revert\n                /* \"#utility.yul\":9797:10117   */\n            tag_84:\n                /* \"#utility.yul\":9841:9847   */\n              0x00\n                /* \"#utility.yul\":9878:9879   */\n              0x02\n                /* \"#utility.yul\":9872:9876   */\n              dup3\n                /* \"#utility.yul\":9868:9880   */\n              div\n                /* \"#utility.yul\":9858:9880   */\n              swap1\n              pop\n                /* \"#utility.yul\":9925:9926   */\n              0x01\n                /* \"#utility.yul\":9919:9923   */\n              dup3\n                /* \"#utility.yul\":9915:9927   */\n              and\n                /* \"#utility.yul\":9946:9964   */\n              dup1\n                /* \"#utility.yul\":9936:10017   */\n              tag_283\n              jumpi\n                /* \"#utility.yul\":10002:10006   */\n              0x7f\n                /* \"#utility.yul\":9994:10000   */\n              dup3\n                /* \"#utility.yul\":9990:10007   */\n              and\n                /* \"#utility.yul\":9980:10007   */\n              swap2\n              pop\n                /* \"#utility.yul\":9936:10017   */\n            tag_283:\n                /* \"#utility.yul\":10064:10066   */\n              0x20\n                /* \"#utility.yul\":10056:10062   */\n              dup3\n                /* \"#utility.yul\":10053:10067   */\n              lt\n                /* \"#utility.yul\":10033:10051   */\n              dup2\n                /* \"#utility.yul\":10030:10068   */\n              sub\n                /* \"#utility.yul\":10027:10111   */\n              tag_284\n              jumpi\n                /* \"#utility.yul\":10083:10101   */\n              tag_285\n              tag_155\n              jump\t// in\n            tag_285:\n                /* \"#utility.yul\":10027:10111   */\n            tag_284:\n                /* \"#utility.yul\":9848:10117   */\n              pop\n                /* \"#utility.yul\":9797:10117   */\n              swap2\n              swap1\n              pop\n              jump\t// out\n                /* \"#utility.yul\":10123:10264   */\n            tag_156:\n                /* \"#utility.yul\":10172:10176   */\n              0x00\n                /* \"#utility.yul\":10195:10198   */\n              dup2\n                /* \"#utility.yul\":10187:10198   */\n              swap1\n              pop\n                /* \"#utility.yul\":10218:10221   */\n              dup2\n                /* \"#utility.yul\":10215:10216   */\n              0x00\n                /* \"#utility.yul\":10208:10222   */\n              mstore\n                /* \"#utility.yul\":10252:10256   */\n              0x20\n                /* \"#utility.yul\":10249:10250   */\n              0x00\n                /* \"#utility.yul\":10239:10257   */\n              keccak256\n                /* \"#utility.yul\":10231:10257   */\n              swap1\n              pop\n                /* \"#utility.yul\":10123:10264   */\n              swap2\n              swap1\n              pop\n              jump\t// out\n                /* \"#utility.yul\":10270:10363   */\n            tag_157:\n                /* \"#utility.yul\":10307:10313   */\n              0x00\n                /* \"#utility.yul\":10354:10356   */\n              0x20\n                /* \"#utility.yul\":10349:10351   */\n              0x1f\n                /* \"#utility.yul\":10342:10347   */\n              dup4\n                /* \"#utility.yul\":10338:10352   */\n              add\n                /* \"#utility.yul\":10334:10357   */\n              div\n                /* \"#utility.yul\":10324:10357   */\n              swap1\n              pop\n                /* \"#utility.yul\":10270:10363   */\n              swap2\n              swap1\n              pop\n              jump\t// out\n                /* \"#utility.yul\":10369:10476   */\n            tag_158:\n                /* \"#utility.yul\":10413:10421   */\n              0x00\n                /* \"#utility.yul\":10463:10468   */\n              dup3\n                /* \"#utility.yul\":10457:10461   */\n              dup3\n                /* \"#utility.yul\":10453:10469   */\n              shl\n                /* \"#utility.yul\":10432:10469   */\n              swap1\n              pop\n                /* \"#utility.yul\":10369:10476   */\n              swap3\n              swap2\n              pop\n              pop\n              jump\t// out\n                /* \"#utility.yul\":10482:10875   */\n            tag_159:\n                /* \"#utility.yul\":10551:10557   */\n              0x00\n                /* \"#utility.yul\":10601:10602   */\n              0x08\n                /* \"#utility.yul\":10589:10599   */\n              dup4\n                /* \"#utility.yul\":10585:10603   */\n              mul\n                /* \"#utility.yul\":10624:10721   */\n              tag_290\n                /* \"#utility.yul\":10654:10720   */\n              0xffffffffffffffffffffffffffffffffffffffffffffffffffffffffffffffff\n                /* \"#utility.yul\":10643:10652   */\n              dup3\n                /* \"#utility.yul\":10624:10721   */\n              tag_158\n              jump\t// in\n            tag_290:\n                /* \"#utility.yul\":10742:10781   */\n              tag_291\n                /* \"#utility.yul\":10772:10780   */\n              dup7\n                /* \"#utility.yul\":10761:10770   */\n              dup4\n                /* \"#utility.yul\":10742:10781   */\n              tag_158\n              jump\t// in\n            tag_291:\n                /* \"#utility.yul\":10730:10781   */\n              swap6\n              pop\n                /* \"#utility.yul\":10814:10818   */\n              dup1\n                /* \"#utility.yul\":10810:10819   */\n              not\n                /* \"#utility.yul\":10803:10808   */\n              dup5\n                /* \"#utility.yul\":10799:10820   */\n              and\n                /* \"#utility.yul\":10790:10820   */\n              swap4\n              pop\n                /* \"#utility.yul\":10863:10867   */\n              dup1\n                /* \"#utility.yul\":10853:10861   */\n              dup7\n                /* \"#utility.yul\":10849:10868   */\n              and\n                /* \"#utility.yul\":10842:10847   */\n              dup5\n                /* \"#utility.yul\":10839:10869   */\n              or\n                /* \"#utility.yul\":10829:10869   */\n              swap3\n              pop\n                /* \"#utility.yul\":10558:10875   */\n              pop\n              pop\n                /* \"#utility.yul\":10482:10875   */\n              swap4\n              swap3\n              pop\n              pop\n              pop\n              jump\t// out\n                /* \"#utility.yul\":10881:10941   */\n            tag_160:\n                /* \"#utility.yul\":10909:10912   */\n              0x00\n                /* \"#utility.yul\":10930:10935   */\n              dup2\n                /* \"#utility.yul\":10923:10935   */\n              swap1\n              pop\n                /* \"#utility.yul\":10881:10941   */\n              swap2\n              swap1\n              pop\n              jump\t// out\n                /* \"#utility.yul\":10947:11089   */\n            tag_161:\n                /* \"#utility.yul\":10997:11006   */\n              0x00\n                /* \"#utility.yul\":11030:11083   */\n              tag_294\n                /* \"#utility.yul\":11048:11082   */\n              tag_295\n                /* \"#utility.yul\":11057:11081   */\n              tag_296\n                /* \"#utility.yul\":11075:11080   */\n              dup5\n                /* \"#utility.yul\":11057:11081   */\n              tag_124\n              jump\t// in\n            tag_296:\n                /* \"#utility.yul\":11048:11082   */\n              tag_160\n              jump\t// in\n            tag_295:\n                /* \"#utility.yul\":11030:11083   */\n              tag_124\n              jump\t// in\n            tag_294:\n                /* \"#utility.yul\":11017:11083   */\n              swap1\n              pop\n                /* \"#utility.yul\":10947:11089   */\n              swap2\n              swap1\n              pop\n              jump\t// out\n                /* \"#utility.yul\":11095:11170   */\n            tag_162:\n                /* \"#utility.yul\":11138:11141   */\n              0x00\n                /* \"#utility.yul\":11159:11164   */\n              dup2\n                /* \"#utility.yul\":11152:11164   */\n              swap1\n              pop\n                /* \"#utility.yul\":11095:11170   */\n              swap2\n              swap1\n              pop\n              jump\t// out\n                /* \"#utility.yul\":11176:11445   */\n            tag_163:\n                /* \"#utility.yul\":11286:11325   */\n              tag_299\n                /* \"#utility.yul\":11317:11324   */\n              dup4\n                /* \"#utility.yul\":11286:11325   */\n              tag_161\n              jump\t// in\n            tag_299:\n                /* \"#utility.yul\":11347:11438   */\n              tag_300\n                /* \"#utility.yul\":11396:11437   */\n              tag_301\n                /* \"#utility.yul\":11420:11436   */\n              dup3\n                /* \"#utility.yul\":11396:11437   */\n              tag_162\n              jump\t// in\n            tag_301:\n                /* \"#utility.yul\":11388:11394   */\n              dup5\n                /* \"#utility.yul\":11381:11385   */\n              dup5\n                /* \"#utility.yul\":11375:11386   */\n              sload\n                /* \"#utility.yul\":11347:11438   */\n              tag_159\n              jump\t// in\n            tag_300:\n                /* \"#utility.yul\":11341:11345   */\n              dup3\n                /* \"#utility.yul\":11334:11439   */\n              sstore\n                /* \"#utility.yul\":11252:11445   */\n              pop\n                /* \"#utility.yul\":11176:11445   */\n              pop\n              pop\n              pop\n              jump\t// out\n                /* \"#utility.yul\":11451:11524   */\n            tag_164:\n                /* \"#utility.yul\":11496:11499   */\n              0x00\n                /* \"#utility.yul\":11451:11524   */\n              swap1\n              jump\t// out\n                /* \"#utility.yul\":11530:11719   */\n            tag_165:\n                /* \"#utility.yul\":11607:11639   */\n              tag_304\n              tag_164\n              jump\t// in\n            tag_304:\n                /* \"#utility.yul\":11648:11713   */\n              tag_305\n                /* \"#utility.yul\":11706:11712   */\n              dup2\n                /* \"#utility.yul\":11698:11704   */\n              dup5\n                /* \"#utility.yul\":11692:11696   */\n              dup5\n                /* \"#utility.yul\":11648:11713   */\n              tag_163\n              jump\t// in\n            tag_305:\n                /* \"#utility.yul\":11583:11719   */\n              pop\n                /* \"#utility.yul\":11530:11719   */\n              pop\n              pop\n              jump\t// out\n                /* \"#utility.yul\":11725:11911   */\n            tag_166:\n                /* \"#utility.yul\":11785:11905   */\n            tag_307:\n                /* \"#utility.yul\":11802:11805   */\n              dup2\n                /* \"#utility.yul\":11795:11800   */\n              dup2\n                /* \"#utility.yul\":11792:11806   */\n              lt\n                /* \"#utility.yul\":11785:11905   */\n              iszero\n              tag_309\n              jumpi\n                /* \"#utility.yul\":11856:11895   */\n              tag_310\n                /* \"#utility.yul\":11893:11894   */\n              0x00\n                /* \"#utility.yul\":11886:11891   */\n              dup3\n                /* \"#utility.yul\":11856:11895   */\n              tag_165\n              jump\t// in\n            tag_310:\n                /* \"#utility.yul\":11829:11830   */\n              0x01\n                /* \"#utility.yul\":11822:11827   */\n              dup2\n                /* \"#utility.yul\":11818:11831   */\n              add\n                /* \"#utility.yul\":11809:11831   */\n              swap1\n              pop\n                /* \"#utility.yul\":11785:11905   */\n              jump(tag_307)\n            tag_309:\n                /* \"#utility.yul\":11725:11911   */\n              pop\n              pop\n              jump\t// out\n                /* \"#utility.yul\":11917:12460   */\n            tag_167:\n                /* \"#utility.yul\":12018:12020   */\n              0x1f\n                /* \"#utility.yul\":12013:12016   */\n              dup3\n                /* \"#utility.yul\":12010:12021   */\n              gt\n                /* \"#utility.yul\":12007:12453   */\n              iszero\n              tag_312\n              jumpi\n                /* \"#utility.yul\":12052:12090   */\n              tag_313\n                /* \"#utility.yul\":12084:12089   */\n              dup2\n                /* \"#utility.yul\":12052:12090   */\n              tag_156\n              jump\t// in\n            tag_313:\n                /* \"#utility.yul\":12136:12165   */\n              tag_314\n                /* \"#utility.yul\":12154:12164   */\n              dup5\n                /* \"#utility.yul\":12136:12165   */\n              tag_157\n              jump\t// in\n            tag_314:\n                /* \"#utility.yul\":12126:12134   */\n              dup2\n                /* \"#utility.yul\":12122:12166   */\n              add\n                /* \"#utility.yul\":12319:12321   */\n              0x20\n                /* \"#utility.yul\":12307:12317   */\n              dup6\n                /* \"#utility.yul\":12304:12322   */\n              lt\n                /* \"#utility.yul\":12301:12350   */\n              iszero\n              tag_315\n              jumpi\n                /* \"#utility.yul\":12340:12348   */\n              dup2\n                /* \"#utility.yul\":12325:12348   */\n              swap1\n              pop\n                /* \"#utility.yul\":12301:12350   */\n            tag_315:\n                /* \"#utility.yul\":12363:12443   */\n              tag_316\n                /* \"#utility.yul\":12419:12441   */\n              tag_317\n                /* \"#utility.yul\":12437:12440   */\n              dup6\n                /* \"#utility.yul\":12419:12441   */\n              tag_157\n              jump\t// in\n            tag_317:\n                /* \"#utility.yul\":12409:12417   */\n              dup4\n                /* \"#utility.yul\":12405:12442   */\n              add\n                /* \"#utility.yul\":12392:12403   */\n              dup3\n                /* \"#utility.yul\":12363:12443   */\n              tag_166\n              jump\t// in\n            tag_316:\n                /* \"#utility.yul\":12022:12453   */\n              pop\n              pop\n                /* \"#utility.yul\":12007:12453   */\n            tag_312:\n                /* \"#utility.yul\":11917:12460   */\n              pop\n              pop\n              pop\n              jump\t// out\n                /* \"#utility.yul\":12466:12583   */\n            tag_168:\n                /* \"#utility.yul\":12520:12528   */\n              0x00\n                /* \"#utility.yul\":12570:12575   */\n              dup3\n                /* \"#utility.yul\":12564:12568   */\n              dup3\n                /* \"#utility.yul\":12560:12576   */\n              shr\n                /* \"#utility.yul\":12539:12576   */\n              swap1\n              pop\n                /* \"#utility.yul\":12466:12583   */\n              swap3\n              swap2\n              pop\n              pop\n              jump\t// out\n                /* \"#utility.yul\":12589:12758   */\n            tag_169:\n                /* \"#utility.yul\":12633:12639   */\n              0x00\n                /* \"#utility.yul\":12666:12717   */\n              tag_320\n                /* \"#utility.yul\":12714:12715   */\n              0x00\n                /* \"#utility.yul\":12710:12716   */\n              not\n                /* \"#utility.yul\":12702:12707   */\n              dup5\n                /* \"#utility.yul\":12699:12700   */\n              0x08\n                /* \"#utility.yul\":12695:12708   */\n              mul\n                /* \"#utility.yul\":12666:12717   */\n              tag_168\n              jump\t// in\n            tag_320:\n                /* \"#utility.yul\":12662:12718   */\n              not\n                /* \"#utility.yul\":12747:12751   */\n              dup1\n                /* \"#utility.yul\":12741:12745   */\n              dup4\n                /* \"#utility.yul\":12737:12752   */\n              and\n                /* \"#utility.yul\":12727:12752   */\n              swap2\n              pop\n                /* \"#utility.yul\":12640:12758   */\n              pop\n                /* \"#utility.yul\":12589:12758   */\n              swap3\n              swap2\n              pop\n              pop\n              jump\t// out\n                /* \"#utility.yul\":12763:13058   */\n            tag_170:\n                /* \"#utility.yul\":12839:12843   */\n              0x00\n                /* \"#utility.yul\":12985:13014   */\n              tag_322\n                /* \"#utility.yul\":13010:13013   */\n              dup4\n                /* \"#utility.yul\":13004:13008   */\n              dup4\n                /* \"#utility.yul\":12985:13014   */\n              tag_169\n              jump\t// in\n            tag_322:\n                /* \"#utility.yul\":12977:13014   */\n              swap2\n              pop\n                /* \"#utility.yul\":13047:13050   */\n              dup3\n                /* \"#utility.yul\":13044:13045   */\n              0x02\n                /* \"#utility.yul\":13040:13051   */\n              mul\n                /* \"#utility.yul\":13034:13038   */\n              dup3\n                /* \"#utility.yul\":13031:13052   */\n              or\n                /* \"#utility.yul\":13023:13052   */\n              swap1\n              pop\n                /* \"#utility.yul\":12763:13058   */\n              swap3\n              swap2\n              pop\n              pop\n              jump\t// out\n                /* \"#utility.yul\":13063:14458   */\n            tag_97:\n                /* \"#utility.yul\":13180:13217   */\n              tag_324\n                /* \"#utility.yul\":13213:13216   */\n              dup3\n                /* \"#utility.yul\":13180:13217   */\n              tag_135\n              jump\t// in\n            tag_324:\n                /* \"#utility.yul\":13282:13300   */\n              0xffffffffffffffff\n                /* \"#utility.yul\":13274:13280   */\n              dup2\n                /* \"#utility.yul\":13271:13301   */\n              gt\n                /* \"#utility.yul\":13268:13324   */\n              iszero\n              tag_325\n              jumpi\n                /* \"#utility.yul\":13304:13322   */\n              tag_326\n              tag_144\n              jump\t// in\n            tag_326:\n                /* \"#utility.yul\":13268:13324   */\n            tag_325:\n                /* \"#utility.yul\":13348:13386   */\n              tag_327\n                /* \"#utility.yul\":13380:13384   */\n              dup3\n                /* \"#utility.yul\":13374:13385   */\n              sload\n                /* \"#utility.yul\":13348:13386   */\n              tag_84\n              jump\t// in\n            tag_327:\n                /* \"#utility.yul\":13433:13500   */\n              tag_328\n                /* \"#utility.yul\":13493:13499   */\n              dup3\n                /* \"#utility.yul\":13485:13491   */\n              dup3\n                /* \"#utility.yul\":13479:13483   */\n              dup6\n                /* \"#utility.yul\":13433:13500   */\n              tag_167\n              jump\t// in\n            tag_328:\n                /* \"#utility.yul\":13527:13528   */\n              0x00\n                /* \"#utility.yul\":13551:13555   */\n              0x20\n                /* \"#utility.yul\":13538:13555   */\n              swap1\n              pop\n                /* \"#utility.yul\":13583:13585   */\n              0x1f\n                /* \"#utility.yul\":13575:13581   */\n              dup4\n                /* \"#utility.yul\":13572:13586   */\n              gt\n                /* \"#utility.yul\":13600:13601   */\n              0x01\n                /* \"#utility.yul\":13595:14213   */\n              dup2\n              eq\n              tag_330\n              jumpi\n                /* \"#utility.yul\":14257:14258   */\n              0x00\n                /* \"#utility.yul\":14274:14280   */\n              dup5\n                /* \"#utility.yul\":14271:14348   */\n              iszero\n              tag_331\n              jumpi\n                /* \"#utility.yul\":14323:14332   */\n              dup3\n                /* \"#utility.yul\":14318:14321   */\n              dup8\n                /* \"#utility.yul\":14314:14333   */\n              add\n                /* \"#utility.yul\":14308:14334   */\n              mload\n                /* \"#utility.yul\":14299:14334   */\n              swap1\n              pop\n                /* \"#utility.yul\":14271:14348   */\n            tag_331:\n                /* \"#utility.yul\":14374:14441   */\n              tag_332\n                /* \"#utility.yul\":14434:14440   */\n              dup6\n                /* \"#utility.yul\":14427:14432   */\n              dup3\n                /* \"#utility.yul\":14374:14441   */\n              tag_170\n              jump\t// in\n            tag_332:\n                /* \"#utility.yul\":14368:14372   */\n              dup7\n                /* \"#utility.yul\":14361:14442   */\n              sstore\n                /* \"#utility.yul\":14230:14452   */\n              pop\n                /* \"#utility.yul\":13565:14452   */\n              jump(tag_329)\n                /* \"#utility.yul\":13595:14213   */\n            tag_330:\n                /* \"#utility.yul\":13647:13651   */\n              0x1f\n                /* \"#utility.yul\":13643:13652   */\n              not\n                /* \"#utility.yul\":13635:13641   */\n              dup5\n                /* \"#utility.yul\":13631:13653   */\n              and\n                /* \"#utility.yul\":13681:13718   */\n              tag_333\n                /* \"#utility.yul\":13713:13717   */\n              dup7\n                /* \"#utility.yul\":13681:13718   */\n              tag_156\n              jump\t// in\n            tag_333:\n                /* \"#utility.yul\":13740:13741   */\n              0x00\n                /* \"#utility.yul\":13754:13962   */\n            tag_334:\n                /* \"#utility.yul\":13768:13775   */\n              dup3\n                /* \"#utility.yul\":13765:13766   */\n              dup2\n                /* \"#utility.yul\":13762:13776   */\n              lt\n                /* \"#utility.yul\":13754:13962   */\n              iszero\n              tag_336\n              jumpi\n                /* \"#utility.yul\":13847:13856   */\n              dup5\n                /* \"#utility.yul\":13842:13845   */\n              dup10\n                /* \"#utility.yul\":13838:13857   */\n              add\n                /* \"#utility.yul\":13832:13858   */\n              mload\n                /* \"#utility.yul\":13824:13830   */\n              dup3\n                /* \"#utility.yul\":13817:13859   */\n              sstore\n                /* \"#utility.yul\":13898:13899   */\n              0x01\n                /* \"#utility.yul\":13890:13896   */\n              dup3\n                /* \"#utility.yul\":13886:13900   */\n              add\n                /* \"#utility.yul\":13876:13900   */\n              swap2\n              pop\n                /* \"#utility.yul\":13945:13947   */\n              0x20\n                /* \"#utility.yul\":13934:13943   */\n              dup6\n                /* \"#utility.yul\":13930:13948   */\n              add\n                /* \"#utility.yul\":13917:13948   */\n              swap5\n              pop\n                /* \"#utility.yul\":13791:13795   */\n              0x20\n                /* \"#utility.yul\":13788:13789   */\n              dup2\n                /* \"#utility.yul\":13784:13796   */\n              add\n                /* \"#utility.yul\":13779:13796   */\n              swap1\n              pop\n                /* \"#utility.yul\":13754:13962   */\n              jump(tag_334)\n            tag_336:\n                /* \"#utility.yul\":13990:13996   */\n              dup7\n                /* \"#utility.yul\":13981:13988   */\n              dup4\n                /* \"#utility.yul\":13978:13997   */\n              lt\n                /* \"#utility.yul\":13975:14154   */\n              iszero\n              tag_337\n              jumpi\n                /* \"#utility.yul\":14048:14057   */\n              dup5\n                /* \"#utility.yul\":14043:14046   */\n              dup10\n                /* \"#utility.yul\":14039:14058   */\n              add\n                /* \"#utility.yul\":14033:14059   */\n              mload\n                /* \"#utility.yul\":14091:14139   */\n              tag_338\n                /* \"#utility.yul\":14133:14137   */\n              0x1f\n                /* \"#utility.yul\":14125:14131   */\n              dup10\n                /* \"#utility.yul\":14121:14138   */\n              and\n                /* \"#utility.yul\":14110:14119   */\n              dup3\n                /* \"#utility.yul\":14091:14139   */\n              tag_169\n              jump\t// in\n            tag_338:\n                /* \"#utility.yul\":14083:14089   */\n              dup4\n                /* \"#utility.yul\":14076:14140   */\n              sstore\n                /* \"#utility.yul\":13998:14154   */\n              pop\n                /* \"#utility.yul\":13975:14154   */\n            tag_337:\n                /* \"#utility.yul\":14200:14201   */\n              0x01\n                /* \"#utility.yul\":14196:14197   */\n              0x02\n                /* \"#utility.yul\":14188:14194   */\n              dup9\n                /* \"#utility.yul\":14184:14198   */\n              mul\n                /* \"#utility.yul\":14180:14202   */\n              add\n                /* \"#utility.yul\":14174:14178   */\n              dup9\n                /* \"#utility.yul\":14167:14203   */\n              sstore\n                /* \"#utility.yul\":13602:14213   */\n              pop\n              pop\n              pop\n                /* \"#utility.yul\":13565:14452   */\n            tag_329:\n              pop\n                /* \"#utility.yul\":13155:14458   */\n              pop\n              pop\n              pop\n                /* \"#utility.yul\":13063:14458   */\n              pop\n              pop\n              jump\t// out\n                /* \"#utility.yul\":14464:14697   */\n            tag_113:\n                /* \"#utility.yul\":14503:14506   */\n              0x00\n                /* \"#utility.yul\":14526:14550   */\n              tag_340\n                /* \"#utility.yul\":14544:14549   */\n              dup3\n                /* \"#utility.yul\":14526:14550   */\n              tag_124\n              jump\t// in\n            tag_340:\n                /* \"#utility.yul\":14517:14550   */\n              swap2\n              pop\n                /* \"#utility.yul\":14572:14638   */\n              0xffffffffffffffffffffffffffffffffffffffffffffffffffffffffffffffff\n                /* \"#utility.yul\":14565:14570   */\n              dup3\n                /* \"#utility.yul\":14562:14639   */\n              sub\n                /* \"#utility.yul\":14559:14662   */\n              tag_341\n              jumpi\n                /* \"#utility.yul\":14642:14660   */\n              tag_342\n              tag_154\n              jump\t// in\n            tag_342:\n                /* \"#utility.yul\":14559:14662   */\n            tag_341:\n                /* \"#utility.yul\":14689:14690   */\n              0x01\n                /* \"#utility.yul\":14682:14687   */\n              dup3\n                /* \"#utility.yul\":14678:14691   */\n              add\n                /* \"#utility.yul\":14671:14691   */\n              swap1\n              pop\n                /* \"#utility.yul\":14464:14697   */\n              swap2\n              swap1\n              pop\n              jump\t// out\n\n            auxdata: 0xa2646970667358221220083392b28ee87d3ef388f6907643585955efdeebfc7c546c7b29d2a5c0a29cfe64736f6c63430008190033\n        }\n    }\n\n    auxdata: 0xa2646970667358221220896b88cdded7f1a42d20ad26a825a27c5c21c68c1e4c9b01e8e82ed280817a5764736f6c63430008190033\n}\n",
    "bytecode": {
      "linkReferences": {},
      "object": "6080604052348015600e575f80fd5b506116708061001c5f395ff3fe608060405234801561000f575f80fd5b506004361061003f575f3560e01c8063b25c43db14610043578063cb641dec14610073578063f42f58f81461008f575b5f80fd5b61005d6004803603810190610058919061024e565b6100ad565b60405161006a91906102b8565b60405180910390f35b61008d6004803603810190610088919061024e565b6100e7565b005b610097610180565b6040516100a49190610388565b60405180910390f35b5f81815481106100bb575f80fd5b905f5260205f20015f915054906101000a900473ffffffffffffffffffffffffffffffffffffffff1681565b5f81336040516100f69061020a565b6101019291906103b7565b604051809103905ff08015801561011a573d5f803e3d5ffd5b5090505f81908060018154018082558091505060019003905f5260205f20015f9091909190916101000a81548173ffffffffffffffffffffffffffffffffffffffff021916908373ffffffffffffffffffffffffffffffffffffffff1602179055505050565b60605f80548060200260200160405190810160405280929190818152602001828054801561020057602002820191905f5260205f20905b815f9054906101000a900473ffffffffffffffffffffffffffffffffffffffff1673ffffffffffffffffffffffffffffffffffffffff16815260200190600101908083116101b7575b5050505050905090565b61125c806103df83390190565b5f80fd5b5f819050919050565b61022d8161021b565b8114610237575f80fd5b50565b5f8135905061024881610224565b92915050565b5f6020828403121561026357610262610217565b5b5f6102708482850161023a565b91505092915050565b5f73ffffffffffffffffffffffffffffffffffffffff82169050919050565b5f6102a282610279565b9050919050565b6102b281610298565b82525050565b5f6020820190506102cb5f8301846102a9565b92915050565b5f81519050919050565b5f82825260208201905092915050565b5f819050602082019050919050565b61030381610298565b82525050565b5f61031483836102fa565b60208301905092915050565b5f602082019050919050565b5f610336826102d1565b61034081856102db565b935061034b836102eb565b805f5b8381101561037b5781516103628882610309565b975061036d83610320565b92505060018101905061034e565b5085935050505092915050565b5f6020820190508181035f8301526103a0818461032c565b905092915050565b6103b18161021b565b82525050565b5f6040820190506103ca5f8301856103a8565b6103d760208301846102a9565b939250505056fe608060405234801561000f575f80fd5b5060405161125c38038061125c83398181016040528101906100319190610110565b8060015f6101000a81548173ffffffffffffffffffffffffffffffffffffffff021916908373ffffffffffffffffffffffffffffffffffffffff16021790555081600281905550505061014e565b5f80fd5b5f819050919050565b61009581610083565b811461009f575f80fd5b50565b5f815190506100b08161008c565b92915050565b5f73ffffffffffffffffffffffffffffffffffffffff82169050919050565b5f6100df826100b6565b9050919050565b6100ef816100d5565b81146100f9575f80fd5b50565b5f8151905061010a816100e6565b92915050565b5f80604083850312156101265761012561007f565b5b5f610133858286016100a2565b9250506020610144858286016100fc565b9150509250929050565b6111018061015b5f395ff3fe60806040526004361061009b575f3560e01c806381d12c581161006357806381d12c581461018557806382fde093146101c55780638a9cfd55146101ef578063937e09b114610217578063d7bb99ba14610241578063d7d1bbdb1461024b5761009b565b8063034410061461009f5780630a144391146100c75780633410452a146101035780634051ddac1461012d578063481c6a751461015b575b5f80fd5b3480156100aa575f80fd5b506100c560048036038101906100c091906108d6565b610273565b005b3480156100d2575f80fd5b506100ed60048036038101906100e8919061095b565b6103b1565b6040516100fa91906109a0565b60405180910390f35b34801561010e575f80fd5b506101176103ce565b60405161012491906109c8565b60405180910390f35b348015610138575f80fd5b506101416103d9565b6040516101529594939291906109f0565b60405180910390f35b348015610166575f80fd5b5061016f61041d565b60405161017c9190610a41565b60405180910390f35b348015610190575f80fd5b506101ab60048036038101906101a691906108d6565b610442565b6040516101bc959493929190610aea565b60405180910390f35b3480156101d0575f80fd5b506101d9610534565b6040516101e691906109c8565b60405180910390f35b3480156101fa575f80fd5b5061021560048036038101906102109190610c98565b61053a565b005b348015610222575f80fd5b5061022b6106d4565b60405161023891906109c8565b60405180910390f35b6102496106da565b005b348015610256575f80fd5b50610271600480360381019061026c91906108d6565b610755565b005b60015f9054906101000a900473ffffffffffffffffffffffffffffffffffffffff1673ffffffffffffffffffffffffffffffffffffffff163373ffffffffffffffffffffffffffffffffffffffff16146102cb575f80fd5b5f8082815481106102df576102de610d04565b5b905f5260205f209060050201905060026004546102fc9190610d8b565b81600301541161030a575f80fd5b8060020160149054906101000a900460ff1615610325575f80fd5b806002015f9054906101000a900473ffffffffffffffffffffffffffffffffffffffff1673ffffffffffffffffffffffffffffffffffffffff166108fc826001015490811502906040515f60405180830381858888f1935050505015801561038f573d5f803e3d5ffd5b5060018160020160146101000a81548160ff0219169083151502179055505050565b6003602052805f5260405f205f915054906101000a900460ff1681565b5f8080549050905090565b5f805f805f600254475f8054905060045460015f9054906101000a900473ffffffffffffffffffffffffffffffffffffffff16945094509450945094509091929394565b60015f9054906101000a900473ffffffffffffffffffffffffffffffffffffffff1681565b5f8181548110610450575f80fd5b905f5260205f2090600502015f91509050805f01805461046f90610de8565b80601f016020809104026020016040519081016040528092919081815260200182805461049b90610de8565b80156104e65780601f106104bd576101008083540402835291602001916104e6565b820191905f5260205f20905b8154815290600101906020018083116104c957829003601f168201915b505050505090806001015490806002015f9054906101000a900473ffffffffffffffffffffffffffffffffffffffff16908060020160149054906101000a900460ff16908060030154905085565b60045481565b60015f9054906101000a900473ffffffffffffffffffffffffffffffffffffffff1673ffffffffffffffffffffffffffffffffffffffff163373ffffffffffffffffffffffffffffffffffffffff1614610592575f80fd5b5f808054905090505f8060018160018154018082558091505003905f5260205f20905050848183815481106105ca576105c9610d04565b5b905f5260205f2090600502015f0190816105e49190610fb5565b50838183815481106105f9576105f8610d04565b5b905f5260205f20906005020160010181905550828183815481106106205761061f610d04565b5b905f5260205f2090600502016002015f6101000a81548173ffffffffffffffffffffffffffffffffffffffff021916908373ffffffffffffffffffffffffffffffffffffffff1602179055505f8183815481106106805761067f610d04565b5b905f5260205f20906005020160020160146101000a81548160ff0219169083151502179055505f8183815481106106ba576106b9610d04565b5b905f5260205f209060050201600301819055505050505050565b60025481565b60025434116106e7575f80fd5b600160035f3373ffffffffffffffffffffffffffffffffffffffff1673ffffffffffffffffffffffffffffffffffffffff1681526020019081526020015f205f6101000a81548160ff02191690831515021790555060045f81548092919061074e90611084565b9190505550565b5f80828154811061076957610768610d04565b5b905f5260205f209060050201905060035f3373ffffffffffffffffffffffffffffffffffffffff1673ffffffffffffffffffffffffffffffffffffffff1681526020019081526020015f205f9054906101000a900460ff166107c9575f80fd5b806004015f3373ffffffffffffffffffffffffffffffffffffffff1673ffffffffffffffffffffffffffffffffffffffff1681526020019081526020015f205f9054906101000a900460ff161561081e575f80fd5b6001816004015f3373ffffffffffffffffffffffffffffffffffffffff1673ffffffffffffffffffffffffffffffffffffffff1681526020019081526020015f205f6101000a81548160ff021916908315150217905550806003015f81548092919061088990611084565b91905055505050565b5f604051905090565b5f80fd5b5f80fd5b5f819050919050565b6108b5816108a3565b81146108bf575f80fd5b50565b5f813590506108d0816108ac565b92915050565b5f602082840312156108eb576108ea61089b565b5b5f6108f8848285016108c2565b91505092915050565b5f73ffffffffffffffffffffffffffffffffffffffff82169050919050565b5f61092a82610901565b9050919050565b61093a81610920565b8114610944575f80fd5b50565b5f8135905061095581610931565b92915050565b5f602082840312156109705761096f61089b565b5b5f61097d84828501610947565b91505092915050565b5f8115159050919050565b61099a81610986565b82525050565b5f6020820190506109b35f830184610991565b92915050565b6109c2816108a3565b82525050565b5f6020820190506109db5f8301846109b9565b92915050565b6109ea81610920565b82525050565b5f60a082019050610a035f8301886109b9565b610a1060208301876109b9565b610a1d60408301866109b9565b610a2a60608301856109b9565b610a3760808301846109e1565b9695505050505050565b5f602082019050610a545f8301846109e1565b92915050565b5f81519050919050565b5f82825260208201905092915050565b8281835e5f83830152505050565b5f601f19601f8301169050919050565b5f610a9c82610a5a565b610aa68185610a64565b9350610ab6818560208601610a74565b610abf81610a82565b840191505092915050565b5f610ad482610901565b9050919050565b610ae481610aca565b82525050565b5f60a0820190508181035f830152610b028188610a92565b9050610b1160208301876109b9565b610b1e6040830186610adb565b610b2b6060830185610991565b610b3860808301846109b9565b9695505050505050565b5f80fd5b5f80fd5b7f4e487b71000000000000000000000000000000000000000000000000000000005f52604160045260245ffd5b610b8082610a82565b810181811067ffffffffffffffff82111715610b9f57610b9e610b4a565b5b80604052505050565b5f610bb1610892565b9050610bbd8282610b77565b919050565b5f67ffffffffffffffff821115610bdc57610bdb610b4a565b5b610be582610a82565b9050602081019050919050565b828183375f83830152505050565b5f610c12610c0d84610bc2565b610ba8565b905082815260208101848484011115610c2e57610c2d610b46565b5b610c39848285610bf2565b509392505050565b5f82601f830112610c5557610c54610b42565b5b8135610c65848260208601610c00565b91505092915050565b610c7781610aca565b8114610c81575f80fd5b50565b5f81359050610c9281610c6e565b92915050565b5f805f60608486031215610caf57610cae61089b565b5b5f84013567ffffffffffffffff811115610ccc57610ccb61089f565b5b610cd886828701610c41565b9350506020610ce9868287016108c2565b9250506040610cfa86828701610c84565b9150509250925092565b7f4e487b71000000000000000000000000000000000000000000000000000000005f52603260045260245ffd5b7f4e487b71000000000000000000000000000000000000000000000000000000005f52601260045260245ffd5b7f4e487b71000000000000000000000000000000000000000000000000000000005f52601160045260245ffd5b5f610d95826108a3565b9150610da0836108a3565b925082610db057610daf610d31565b5b828204905092915050565b7f4e487b71000000000000000000000000000000000000000000000000000000005f52602260045260245ffd5b5f6002820490506001821680610dff57607f821691505b602082108103610e1257610e11610dbb565b5b50919050565b5f819050815f5260205f209050919050565b5f6020601f8301049050919050565b5f82821b905092915050565b5f60088302610e747fffffffffffffffffffffffffffffffffffffffffffffffffffffffffffffffff82610e39565b610e7e8683610e39565b95508019841693508086168417925050509392505050565b5f819050919050565b5f610eb9610eb4610eaf846108a3565b610e96565b6108a3565b9050919050565b5f819050919050565b610ed283610e9f565b610ee6610ede82610ec0565b848454610e45565b825550505050565b5f90565b610efa610eee565b610f05818484610ec9565b505050565b5b81811015610f2857610f1d5f82610ef2565b600181019050610f0b565b5050565b601f821115610f6d57610f3e81610e18565b610f4784610e2a565b81016020851015610f56578190505b610f6a610f6285610e2a565b830182610f0a565b50505b505050565b5f82821c905092915050565b5f610f8d5f1984600802610f72565b1980831691505092915050565b5f610fa58383610f7e565b9150826002028217905092915050565b610fbe82610a5a565b67ffffffffffffffff811115610fd757610fd6610b4a565b5b610fe18254610de8565b610fec828285610f2c565b5f60209050601f83116001811461101d575f841561100b578287015190505b6110158582610f9a565b86555061107c565b601f19841661102b86610e18565b5f5b828110156110525784890151825560018201915060208501945060208101905061102d565b8683101561106f578489015161106b601f891682610f7e565b8355505b6001600288020188555050505b505050505050565b5f61108e826108a3565b91507fffffffffffffffffffffffffffffffffffffffffffffffffffffffffffffffff82036110c0576110bf610d5e565b5b60018201905091905056fea2646970667358221220083392b28ee87d3ef388f6907643585955efdeebfc7c546c7b29d2a5c0a29cfe64736f6c63430008190033a2646970667358221220896b88cdded7f1a42d20ad26a825a27c5c21c68c1e4c9b01e8e82ed280817a5764736f6c63430008190033",
      "opcodes": "PUSH1 0x80 PUSH1 0x40 MSTORE CALLVALUE DUP1 ISZERO PUSH1 0xE JUMPI PUSH0 DUP1 REVERT JUMPDEST POP PUSH2 0x1670 DUP1 PUSH2 0x1C PUSH0 CODECOPY PUSH0 RETURN INVALID PUSH1 0x80 PUSH1 0x40 MSTORE CALLVALUE DUP1 ISZERO PUSH2 0xF JUMPI PUSH0 DUP1 REVERT JUMPDEST POP PUSH1 0x4 CALLDATASIZE LT PUSH2 0x3F JUMPI PUSH0 CALLDATALOAD PUSH1 0xE0 SHR DUP1 PUSH4 0xB25C43DB EQ PUSH2 0x43 JUMPI DUP1 PUSH4 0xCB641DEC EQ PUSH2 0x73 JUMPI DUP1 PUSH4 0xF42F58F8 EQ PUSH2 0x8F JUMPI JUMPDEST PUSH0 DUP1 REVERT JUMPDEST PUSH2 0x5D PUSH1 0x4 DUP1 CALLDATASIZE SUB DUP2 ADD SWAP1 PUSH2 0x58 SWAP2 SWAP1 PUSH2 0x24E JUMP JUMPDEST PUSH2 0xAD JUMP JUMPDEST PUSH1 0x40 MLOAD PUSH2 0x6A SWAP2 SWAP1 PUSH2 0x2B8 JUMP JUMPDEST PUSH1 0x40 MLOAD DUP1 SWAP2 SUB SWAP1 RETURN JUMPDEST PUSH2 0x8D PUSH1 0x4 DUP1 CALLDATASIZE SUB DUP2 ADD SWAP1 PUSH2 0x88 SWAP2 SWAP1 PUSH2 0x24E JUMP JUMPDEST PUSH2 0xE7 JUMP JUMPDEST STOP JUMPDEST PUSH2 0x97 PUSH2 0x180 JUMP JUMPDEST PUSH1 0x40 MLOAD PUSH2 0xA4 SWAP2 SWAP1 PUSH2 0x388 JUMP JUMPDEST PUSH1 0x40 MLOAD DUP1 SWAP2 SUB SWAP1 RETURN JUMPDEST PUSH0 DUP2 DUP2 SLOAD DUP2 LT PUSH2 0xBB JUMPI PUSH0 DUP1 REVERT JUMPDEST SWAP1 PUSH0 MSTORE PUSH1 0x20 PUSH0 KECCAK256 ADD PUSH0 SWAP2 POP SLOAD SWAP1 PUSH2 0x100 EXP SWAP1 DIV PUSH20 0xFFFFFFFFFFFFFFFFFFFFFFFFFFFFFFFFFFFFFFFF AND DUP2 JUMP JUMPDEST PUSH0 DUP2 CALLER PUSH1 0x40 MLOAD PUSH2 0xF6 SWAP1 PUSH2 0x20A JUMP JUMPDEST PUSH2 0x101 SWAP3 SWAP2 SWAP1 PUSH2 0x3B7 JUMP JUMPDEST PUSH1 0x40 MLOAD DUP1 SWAP2 SUB SWAP1 PUSH0 CREATE DUP1 ISZERO DUP1 ISZERO PUSH2 0x11A JUMPI RETURNDATASIZE PUSH0 DUP1 RETURNDATACOPY RETURNDATASIZE PUSH0 REVERT JUMPDEST POP SWAP1 POP PUSH0 DUP2 SWAP1 DUP1 PUSH1 0x1 DUP2 SLOAD ADD DUP1 DUP3 SSTORE DUP1 SWAP2 POP POP PUSH1 0x1 SWAP1 SUB SWAP1 PUSH0 MSTORE PUSH1 0x20 PUSH0 KECCAK256 ADD PUSH0 SWAP1 SWAP2 SWAP1 SWAP2 SWAP1 SWAP2 PUSH2 0x100 EXP DUP2 SLOAD DUP2 PUSH20 0xFFFFFFFFFFFFFFFFFFFFFFFFFFFFFFFFFFFFFFFF MUL NOT AND SWAP1 DUP4 PUSH20 0xFFFFFFFFFFFFFFFFFFFFFFFFFFFFFFFFFFFFFFFF AND MUL OR SWAP1 SSTORE POP POP POP JUMP JUMPDEST PUSH1 0x60 PUSH0 DUP1 SLOAD DUP1 PUSH1 0x20 MUL PUSH1 0x20 ADD PUSH1 0x40 MLOAD SWAP1 DUP2 ADD PUSH1 0x40 MSTORE DUP1 SWAP3 SWAP2 SWAP1 DUP2 DUP2 MSTORE PUSH1 0x20 ADD DUP3 DUP1 SLOAD DUP1 ISZERO PUSH2 0x200 JUMPI PUSH1 0x20 MUL DUP3 ADD SWAP2 SWAP1 PUSH0 MSTORE PUSH1 0x20 PUSH0 KECCAK256 SWAP1 JUMPDEST DUP2 PUSH0 SWAP1 SLOAD SWAP1 PUSH2 0x100 EXP SWAP1 DIV PUSH20 0xFFFFFFFFFFFFFFFFFFFFFFFFFFFFFFFFFFFFFFFF AND PUSH20 0xFFFFFFFFFFFFFFFFFFFFFFFFFFFFFFFFFFFFFFFF AND DUP2 MSTORE PUSH1 0x20 ADD SWAP1 PUSH1 0x1 ADD SWAP1 DUP1 DUP4 GT PUSH2 0x1B7 JUMPI JUMPDEST POP POP POP POP POP SWAP1 POP SWAP1 JUMP JUMPDEST PUSH2 0x125C DUP1 PUSH2 0x3DF DUP4 CODECOPY ADD SWAP1 JUMP JUMPDEST PUSH0 DUP1 REVERT JUMPDEST PUSH0 DUP2 SWAP1 POP SWAP2 SWAP1 POP JUMP JUMPDEST PUSH2 0x22D DUP2 PUSH2 0x21B JUMP JUMPDEST DUP2 EQ PUSH2 0x237 JUMPI PUSH0 DUP1 REVERT JUMPDEST POP JUMP JUMPDEST PUSH0 DUP2 CALLDATALOAD SWAP1 POP PUSH2 0x248 DUP2 PUSH2 0x224 JUMP JUMPDEST SWAP3 SWAP2 POP POP JUMP JUMPDEST PUSH0 PUSH1 0x20 DUP3 DUP5 SUB SLT ISZERO PUSH2 0x263 JUMPI PUSH2 0x262 PUSH2 0x217 JUMP JUMPDEST JUMPDEST PUSH0 PUSH2 0x270 DUP5 DUP3 DUP6 ADD PUSH2 0x23A JUMP JUMPDEST SWAP2 POP POP SWAP3 SWAP2 POP POP JUMP JUMPDEST PUSH0 PUSH20 0xFFFFFFFFFFFFFFFFFFFFFFFFFFFFFFFFFFFFFFFF DUP3 AND SWAP1 POP SWAP2 SWAP1 POP JUMP JUMPDEST PUSH0 PUSH2 0x2A2 DUP3 PUSH2 0x279 JUMP JUMPDEST SWAP1 POP SWAP2 SWAP1 POP JUMP JUMPDEST PUSH2 0x2B2 DUP2 PUSH2 0x298 JUMP JUMPDEST DUP3 MSTORE POP POP JUMP JUMPDEST PUSH0 PUSH1 0x20 DUP3 ADD SWAP1 POP PUSH2 0x2CB PUSH0 DUP4 ADD DUP5 PUSH2 0x2A9 JUMP JUMPDEST SWAP3 SWAP2 POP POP JUMP JUMPDEST PUSH0 DUP2 MLOAD SWAP1 POP SWAP2 SWAP1 POP JUMP JUMPDEST PUSH0 DUP3 DUP3 MSTORE PUSH1 0x20 DUP3 ADD SWAP1 POP SWAP3 SWAP2 POP POP JUMP JUMPDEST PUSH0 DUP2 SWAP1 POP PUSH1 0x20 DUP3 ADD SWAP1 POP SWAP2 SWAP1 POP JUMP JUMPDEST PUSH2 0x303 DUP2 PUSH2 0x298 JUMP JUMPDEST DUP3 MSTORE POP POP JUMP JUMPDEST PUSH0 PUSH2 0x314 DUP4 DUP4 PUSH2 0x2FA JUMP JUMPDEST PUSH1 0x20 DUP4 ADD SWAP1 POP SWAP3 SWAP2 POP POP JUMP JUMPDEST PUSH0 PUSH1 0x20 DUP3 ADD SWAP1 POP SWAP2 SWAP1 POP JUMP JUMPDEST PUSH0 PUSH2 0x336 DUP3 PUSH2 0x2D1 JUMP JUMPDEST PUSH2 0x340 DUP2 DUP6 PUSH2 0x2DB JUMP JUMPDEST SWAP4 POP PUSH2 0x34B DUP4 PUSH2 0x2EB JUMP JUMPDEST DUP1 PUSH0 JUMPDEST DUP4 DUP2 LT ISZERO PUSH2 0x37B JUMPI DUP2 MLOAD PUSH2 0x362 DUP9 DUP3 PUSH2 0x309 JUMP JUMPDEST SWAP8 POP PUSH2 0x36D DUP4 PUSH2 0x320 JUMP JUMPDEST SWAP3 POP POP PUSH1 0x1 DUP2 ADD SWAP1 POP PUSH2 0x34E JUMP JUMPDEST POP DUP6 SWAP4 POP POP POP POP SWAP3 SWAP2 POP POP JUMP JUMPDEST PUSH0 PUSH1 0x20 DUP3 ADD SWAP1 POP DUP2 DUP2 SUB PUSH0 DUP4 ADD MSTORE PUSH2 0x3A0 DUP2 DUP5 PUSH2 0x32C JUMP JUMPDEST SWAP1 POP SWAP3 SWAP2 POP POP JUMP JUMPDEST PUSH2 0x3B1 DUP2 PUSH2 0x21B JUMP JUMPDEST DUP3 MSTORE POP POP JUMP JUMPDEST PUSH0 PUSH1 0x40 DUP3 ADD SWAP1 POP PUSH2 0x3CA PUSH0 DUP4 ADD DUP6 PUSH2 0x3A8 JUMP JUMPDEST PUSH2 0x3D7 PUSH1 0x20 DUP4 ADD DUP5 PUSH2 0x2A9 JUMP JUMPDEST SWAP4 SWAP3 POP POP POP JUMP INVALID PUSH1 0x80 PUSH1 0x40 MSTORE CALLVALUE DUP1 ISZERO PUSH2 0xF JUMPI PUSH0 DUP1 REVERT JUMPDEST POP PUSH1 0x40 MLOAD PUSH2 0x125C CODESIZE SUB DUP1 PUSH2 0x125C DUP4 CODECOPY DUP2 DUP2 ADD PUSH1 0x40 MSTORE DUP2 ADD SWAP1 PUSH2 0x31 SWAP2 SWAP1 PUSH2 0x110 JUMP JUMPDEST DUP1 PUSH1 0x1 PUSH0 PUSH2 0x100 EXP DUP2 SLOAD DUP2 PUSH20 0xFFFFFFFFFFFFFFFFFFFFFFFFFFFFFFFFFFFFFFFF MUL NOT AND SWAP1 DUP4 PUSH20 0xFFFFFFFFFFFFFFFFFFFFFFFFFFFFFFFFFFFFFFFF AND MUL OR SWAP1 SSTORE POP DUP2 PUSH1 0x2 DUP2 SWAP1 SSTORE POP POP POP PUSH2 0x14E JUMP JUMPDEST PUSH0 DUP1 REVERT JUMPDEST PUSH0 DUP2 SWAP1 POP SWAP2 SWAP1 POP JUMP JUMPDEST PUSH2 0x95 DUP2 PUSH2 0x83 JUMP JUMPDEST DUP2 EQ PUSH2 0x9F JUMPI PUSH0 DUP1 REVERT JUMPDEST POP JUMP JUMPDEST PUSH0 DUP2 MLOAD SWAP1 POP PUSH2 0xB0 DUP2 PUSH2 0x8C JUMP JUMPDEST SWAP3 SWAP2 POP POP JUMP JUMPDEST PUSH0 PUSH20 0xFFFFFFFFFFFFFFFFFFFFFFFFFFFFFFFFFFFFFFFF DUP3 AND SWAP1 POP SWAP2 SWAP1 POP JUMP JUMPDEST PUSH0 PUSH2 0xDF DUP3 PUSH2 0xB6 JUMP JUMPDEST SWAP1 POP SWAP2 SWAP1 POP JUMP JUMPDEST PUSH2 0xEF DUP2 PUSH2 0xD5 JUMP JUMPDEST DUP2 EQ PUSH2 0xF9 JUMPI PUSH0 DUP1 REVERT JUMPDEST POP JUMP JUMPDEST PUSH0 DUP2 MLOAD SWAP1 POP PUSH2 0x10A DUP2 PUSH2 0xE6 JUMP JUMPDEST SWAP3 SWAP2 POP POP JUMP JUMPDEST PUSH0 DUP1 PUSH1 0x40 DUP4 DUP6 SUB SLT ISZERO PUSH2 0x126 JUMPI PUSH2 0x125 PUSH2 0x7F JUMP JUMPDEST JUMPDEST PUSH0 PUSH2 0x133 DUP6 DUP3 DUP7 ADD PUSH2 0xA2 JUMP JUMPDEST SWAP3 POP POP PUSH1 0x20 PUSH2 0x144 DUP6 DUP3 DUP7 ADD PUSH2 0xFC JUMP JUMPDEST SWAP2 POP POP SWAP3 POP SWAP3 SWAP1 POP JUMP JUMPDEST PUSH2 0x1101 DUP1 PUSH2 0x15B PUSH0 CODECOPY PUSH0 RETURN INVALID PUSH1 0x80 PUSH1 0x40 MSTORE PUSH1 0x4 CALLDATASIZE LT PUSH2 0x9B JUMPI PUSH0 CALLDATALOAD PUSH1 0xE0 SHR DUP1 PUSH4 0x81D12C58 GT PUSH2 0x63 JUMPI DUP1 PUSH4 0x81D12C58 EQ PUSH2 0x185 JUMPI DUP1 PUSH4 0x82FDE093 EQ PUSH2 0x1C5 JUMPI DUP1 PUSH4 0x8A9CFD55 EQ PUSH2 0x1EF JUMPI DUP1 PUSH4 0x937E09B1 EQ PUSH2 0x217 JUMPI DUP1 PUSH4 0xD7BB99BA EQ PUSH2 0x241 JUMPI DUP1 PUSH4 0xD7D1BBDB EQ PUSH2 0x24B JUMPI PUSH2 0x9B JUMP JUMPDEST DUP1 PUSH4 0x3441006 EQ PUSH2 0x9F JUMPI DUP1 PUSH4 0xA144391 EQ PUSH2 0xC7 JUMPI DUP1 PUSH4 0x3410452A EQ PUSH2 0x103 JUMPI DUP1 PUSH4 0x4051DDAC EQ PUSH2 0x12D JUMPI DUP1 PUSH4 0x481C6A75 EQ PUSH2 0x15B JUMPI JUMPDEST PUSH0 DUP1 REVERT JUMPDEST CALLVALUE DUP1 ISZERO PUSH2 0xAA JUMPI PUSH0 DUP1 REVERT JUMPDEST POP PUSH2 0xC5 PUSH1 0x4 DUP1 CALLDATASIZE SUB DUP2 ADD SWAP1 PUSH2 0xC0 SWAP2 SWAP1 PUSH2 0x8D6 JUMP JUMPDEST PUSH2 0x273 JUMP JUMPDEST STOP JUMPDEST CALLVALUE DUP1 ISZERO PUSH2 0xD2 JUMPI PUSH0 DUP1 REVERT JUMPDEST POP PUSH2 0xED PUSH1 0x4 DUP1 CALLDATASIZE SUB DUP2 ADD SWAP1 PUSH2 0xE8 SWAP2 SWAP1 PUSH2 0x95B JUMP JUMPDEST PUSH2 0x3B1 JUMP JUMPDEST PUSH1 0x40 MLOAD PUSH2 0xFA SWAP2 SWAP1 PUSH2 0x9A0 JUMP JUMPDEST PUSH1 0x40 MLOAD DUP1 SWAP2 SUB SWAP1 RETURN JUMPDEST CALLVALUE DUP1 ISZERO PUSH2 0x10E JUMPI PUSH0 DUP1 REVERT JUMPDEST POP PUSH2 0x117 PUSH2 0x3CE JUMP JUMPDEST PUSH1 0x40 MLOAD PUSH2 0x124 SWAP2 SWAP1 PUSH2 0x9C8 JUMP JUMPDEST PUSH1 0x40 MLOAD DUP1 SWAP2 SUB SWAP1 RETURN JUMPDEST CALLVALUE DUP1 ISZERO PUSH2 0x138 JUMPI PUSH0 DUP1 REVERT JUMPDEST POP PUSH2 0x141 PUSH2 0x3D9 JUMP JUMPDEST PUSH1 0x40 MLOAD PUSH2 0x152 SWAP6 SWAP5 SWAP4 SWAP3 SWAP2 SWAP1 PUSH2 0x9F0 JUMP JUMPDEST PUSH1 0x40 MLOAD DUP1 SWAP2 SUB SWAP1 RETURN JUMPDEST CALLVALUE DUP1 ISZERO PUSH2 0x166 JUMPI PUSH0 DUP1 REVERT JUMPDEST POP PUSH2 0x16F PUSH2 0x41D JUMP JUMPDEST PUSH1 0x40 MLOAD PUSH2 0x17C SWAP2 SWAP1 PUSH2 0xA41 JUMP JUMPDEST PUSH1 0x40 MLOAD DUP1 SWAP2 SUB SWAP1 RETURN JUMPDEST CALLVALUE DUP1 ISZERO PUSH2 0x190 JUMPI PUSH0 DUP1 REVERT JUMPDEST POP PUSH2 0x1AB PUSH1 0x4 DUP1 CALLDATASIZE SUB DUP2 ADD SWAP1 PUSH2 0x1A6 SWAP2 SWAP1 PUSH2 0x8D6 JUMP JUMPDEST PUSH2 0x442 JUMP JUMPDEST PUSH1 0x40 MLOAD PUSH2 0x1BC SWAP6 SWAP5 SWAP4 SWAP3 SWAP2 SWAP1 PUSH2 0xAEA JUMP JUMPDEST PUSH1 0x40 MLOAD DUP1 SWAP2 SUB SWAP1 RETURN JUMPDEST CALLVALUE DUP1 ISZERO PUSH2 0x1D0 JUMPI PUSH0 DUP1 REVERT JUMPDEST POP PUSH2 0x1D9 PUSH2 0x534 JUMP JUMPDEST PUSH1 0x40 MLOAD PUSH2 0x1E6 SWAP2 SWAP1 PUSH2 0x9C8 JUMP JUMPDEST PUSH1 0x40 MLOAD DUP1 SWAP2 SUB SWAP1 RETURN JUMPDEST CALLVALUE DUP1 ISZERO PUSH2 0x1FA JUMPI PUSH0 DUP1 REVERT JUMPDEST POP PUSH2 0x215 PUSH1 0x4 DUP1 CALLDATASIZE SUB DUP2 ADD SWAP1 PUSH2 0x210 SWAP2 SWAP1 PUSH2 0xC98 JUMP JUMPDEST PUSH2 0x53A JUMP JUMPDEST STOP JUMPDEST CALLVALUE DUP1 ISZERO PUSH2 0x222 JUMPI PUSH0 DUP1 REVERT JUMPDEST POP PUSH2 0x22B PUSH2 0x6D4 JUMP JUMPDEST PUSH1 0x40 MLOAD PUSH2 0x238 SWAP2 SWAP1 PUSH2 0x9C8 JUMP JUMPDEST PUSH1 0x40 MLOAD DUP1 SWAP2 SUB SWAP1 RETURN JUMPDEST PUSH2 0x249 PUSH2 0x6DA JUMP JUMPDEST STOP JUMPDEST CALLVALUE DUP1 ISZERO PUSH2 0x256 JUMPI PUSH0 DUP1 REVERT JUMPDEST POP PUSH2 0x271 PUSH1 0x4 DUP1 CALLDATASIZE SUB DUP2 ADD SWAP1 PUSH2 0x26C SWAP2 SWAP1 PUSH2 0x8D6 JUMP JUMPDEST PUSH2 0x755 JUMP JUMPDEST STOP JUMPDEST PUSH1 0x1 PUSH0 SWAP1 SLOAD SWAP1 PUSH2 0x100 EXP SWAP1 DIV PUSH20 0xFFFFFFFFFFFFFFFFFFFFFFFFFFFFFFFFFFFFFFFF AND PUSH20 0xFFFFFFFFFFFFFFFFFFFFFFFFFFFFFFFFFFFFFFFF AND CALLER PUSH20 0xFFFFFFFFFFFFFFFFFFFFFFFFFFFFFFFFFFFFFFFF AND EQ PUSH2 0x2CB JUMPI PUSH0 DUP1 REVERT JUMPDEST PUSH0 DUP1 DUP3 DUP2 SLOAD DUP2 LT PUSH2 0x2DF JUMPI PUSH2 0x2DE PUSH2 0xD04 JUMP JUMPDEST JUMPDEST SWAP1 PUSH0 MSTORE PUSH1 0x20 PUSH0 KECCAK256 SWAP1 PUSH1 0x5 MUL ADD SWAP1 POP PUSH1 0x2 PUSH1 0x4 SLOAD PUSH2 0x2FC SWAP2 SWAP1 PUSH2 0xD8B JUMP JUMPDEST DUP2 PUSH1 0x3 ADD SLOAD GT PUSH2 0x30A JUMPI PUSH0 DUP1 REVERT JUMPDEST DUP1 PUSH1 0x2 ADD PUSH1 0x14 SWAP1 SLOAD SWAP1 PUSH2 0x100 EXP SWAP1 DIV PUSH1 0xFF AND ISZERO PUSH2 0x325 JUMPI PUSH0 DUP1 REVERT JUMPDEST DUP1 PUSH1 0x2 ADD PUSH0 SWAP1 SLOAD SWAP1 PUSH2 0x100 EXP SWAP1 DIV PUSH20 0xFFFFFFFFFFFFFFFFFFFFFFFFFFFFFFFFFFFFFFFF AND PUSH20 0xFFFFFFFFFFFFFFFFFFFFFFFFFFFFFFFFFFFFFFFF AND PUSH2 0x8FC DUP3 PUSH1 0x1 ADD SLOAD SWAP1 DUP2 ISZERO MUL SWAP1 PUSH1 0x40 MLOAD PUSH0 PUSH1 0x40 MLOAD DUP1 DUP4 SUB DUP2 DUP6 DUP9 DUP9 CALL SWAP4 POP POP POP POP ISZERO DUP1 ISZERO PUSH2 0x38F JUMPI RETURNDATASIZE PUSH0 DUP1 RETURNDATACOPY RETURNDATASIZE PUSH0 REVERT JUMPDEST POP PUSH1 0x1 DUP2 PUSH1 0x2 ADD PUSH1 0x14 PUSH2 0x100 EXP DUP2 SLOAD DUP2 PUSH1 0xFF MUL NOT AND SWAP1 DUP4 ISZERO ISZERO MUL OR SWAP1 SSTORE POP POP POP JUMP JUMPDEST PUSH1 0x3 PUSH1 0x20 MSTORE DUP1 PUSH0 MSTORE PUSH1 0x40 PUSH0 KECCAK256 PUSH0 SWAP2 POP SLOAD SWAP1 PUSH2 0x100 EXP SWAP1 DIV PUSH1 0xFF AND DUP2 JUMP JUMPDEST PUSH0 DUP1 DUP1 SLOAD SWAP1 POP SWAP1 POP SWAP1 JUMP JUMPDEST PUSH0 DUP1 PUSH0 DUP1 PUSH0 PUSH1 0x2 SLOAD SELFBALANCE PUSH0 DUP1 SLOAD SWAP1 POP PUSH1 0x4 SLOAD PUSH1 0x1 PUSH0 SWAP1 SLOAD SWAP1 PUSH2 0x100 EXP SWAP1 DIV PUSH20 0xFFFFFFFFFFFFFFFFFFFFFFFFFFFFFFFFFFFFFFFF AND SWAP5 POP SWAP5 POP SWAP5 POP SWAP5 POP SWAP5 POP SWAP1 SWAP2 SWAP3 SWAP4 SWAP5 JUMP JUMPDEST PUSH1 0x1 PUSH0 SWAP1 SLOAD SWAP1 PUSH2 0x100 EXP SWAP1 DIV PUSH20 0xFFFFFFFFFFFFFFFFFFFFFFFFFFFFFFFFFFFFFFFF AND DUP2 JUMP JUMPDEST PUSH0 DUP2 DUP2 SLOAD DUP2 LT PUSH2 0x450 JUMPI PUSH0 DUP1 REVERT JUMPDEST SWAP1 PUSH0 MSTORE PUSH1 0x20 PUSH0 KECCAK256 SWAP1 PUSH1 0x5 MUL ADD PUSH0 SWAP2 POP SWAP1 POP DUP1 PUSH0 ADD DUP1 SLOAD PUSH2 0x46F SWAP1 PUSH2 0xDE8 JUMP JUMPDEST DUP1 PUSH1 0x1F ADD PUSH1 0x20 DUP1 SWAP2 DIV MUL PUSH1 0x20 ADD PUSH1 0x40 MLOAD SWAP1 DUP2 ADD PUSH1 0x40 MSTORE DUP1 SWAP3 SWAP2 SWAP1 DUP2 DUP2 MSTORE PUSH1 0x20 ADD DUP3 DUP1 SLOAD PUSH2 0x49B SWAP1 PUSH2 0xDE8 JUMP JUMPDEST DUP1 ISZERO PUSH2 0x4E6 JUMPI DUP1 PUSH1 0x1F LT PUSH2 0x4BD JUMPI PUSH2 0x100 DUP1 DUP4 SLOAD DIV MUL DUP4 MSTORE SWAP2 PUSH1 0x20 ADD SWAP2 PUSH2 0x4E6 JUMP JUMPDEST DUP3 ADD SWAP2 SWAP1 PUSH0 MSTORE PUSH1 0x20 PUSH0 KECCAK256 SWAP1 JUMPDEST DUP2 SLOAD DUP2 MSTORE SWAP1 PUSH1 0x1 ADD SWAP1 PUSH1 0x20 ADD DUP1 DUP4 GT PUSH2 0x4C9 JUMPI DUP3 SWAP1 SUB PUSH1 0x1F AND DUP3 ADD SWAP2 JUMPDEST POP POP POP POP POP SWAP1 DUP1 PUSH1 0x1 ADD SLOAD SWAP1 DUP1 PUSH1 0x2 ADD PUSH0 SWAP1 SLOAD SWAP1 PUSH2 0x100 EXP SWAP1 DIV PUSH20 0xFFFFFFFFFFFFFFFFFFFFFFFFFFFFFFFFFFFFFFFF AND SWAP1 DUP1 PUSH1 0x2 ADD PUSH1 0x14 SWAP1 SLOAD SWAP1 PUSH2 0x100 EXP SWAP1 DIV PUSH1 0xFF AND SWAP1 DUP1 PUSH1 0x3 ADD SLOAD SWAP1 POP DUP6 JUMP JUMPDEST PUSH1 0x4 SLOAD DUP2 JUMP JUMPDEST PUSH1 0x1 PUSH0 SWAP1 SLOAD SWAP1 PUSH2 0x100 EXP SWAP1 DIV PUSH20 0xFFFFFFFFFFFFFFFFFFFFFFFFFFFFFFFFFFFFFFFF AND PUSH20 0xFFFFFFFFFFFFFFFFFFFFFFFFFFFFFFFFFFFFFFFF AND CALLER PUSH20 0xFFFFFFFFFFFFFFFFFFFFFFFFFFFFFFFFFFFFFFFF AND EQ PUSH2 0x592 JUMPI PUSH0 DUP1 REVERT JUMPDEST PUSH0 DUP1 DUP1 SLOAD SWAP1 POP SWAP1 POP PUSH0 DUP1 PUSH1 0x1 DUP2 PUSH1 0x1 DUP2 SLOAD ADD DUP1 DUP3 SSTORE DUP1 SWAP2 POP POP SUB SWAP1 PUSH0 MSTORE PUSH1 0x20 PUSH0 KECCAK256 SWAP1 POP POP DUP5 DUP2 DUP4 DUP2 SLOAD DUP2 LT PUSH2 0x5CA JUMPI PUSH2 0x5C9 PUSH2 0xD04 JUMP JUMPDEST JUMPDEST SWAP1 PUSH0 MSTORE PUSH1 0x20 PUSH0 KECCAK256 SWAP1 PUSH1 0x5 MUL ADD PUSH0 ADD SWAP1 DUP2 PUSH2 0x5E4 SWAP2 SWAP1 PUSH2 0xFB5 JUMP JUMPDEST POP DUP4 DUP2 DUP4 DUP2 SLOAD DUP2 LT PUSH2 0x5F9 JUMPI PUSH2 0x5F8 PUSH2 0xD04 JUMP JUMPDEST JUMPDEST SWAP1 PUSH0 MSTORE PUSH1 0x20 PUSH0 KECCAK256 SWAP1 PUSH1 0x5 MUL ADD PUSH1 0x1 ADD DUP2 SWAP1 SSTORE POP DUP3 DUP2 DUP4 DUP2 SLOAD DUP2 LT PUSH2 0x620 JUMPI PUSH2 0x61F PUSH2 0xD04 JUMP JUMPDEST JUMPDEST SWAP1 PUSH0 MSTORE PUSH1 0x20 PUSH0 KECCAK256 SWAP1 PUSH1 0x5 MUL ADD PUSH1 0x2 ADD PUSH0 PUSH2 0x100 EXP DUP2 SLOAD DUP2 PUSH20 0xFFFFFFFFFFFFFFFFFFFFFFFFFFFFFFFFFFFFFFFF MUL NOT AND SWAP1 DUP4 PUSH20 0xFFFFFFFFFFFFFFFFFFFFFFFFFFFFFFFFFFFFFFFF AND MUL OR SWAP1 SSTORE POP PUSH0 DUP2 DUP4 DUP2 SLOAD DUP2 LT PUSH2 0x680 JUMPI PUSH2 0x67F PUSH2 0xD04 JUMP JUMPDEST JUMPDEST SWAP1 PUSH0 MSTORE PUSH1 0x20 PUSH0 KECCAK256 SWAP1 PUSH1 0x5 MUL ADD PUSH1 0x2 ADD PUSH1 0x14 PUSH2 0x100 EXP DUP2 SLOAD DUP2 PUSH1 0xFF MUL NOT AND SWAP1 DUP4 ISZERO ISZERO MUL OR SWAP1 SSTORE POP PUSH0 DUP2 DUP4 DUP2 SLOAD DUP2 LT PUSH2 0x6BA JUMPI PUSH2 0x6B9 PUSH2 0xD04 JUMP JUMPDEST JUMPDEST SWAP1 PUSH0 MSTORE PUSH1 0x20 PUSH0 KECCAK256 SWAP1 PUSH1 0x5 MUL ADD PUSH1 0x3 ADD DUP2 SWAP1 SSTORE POP POP POP POP POP POP JUMP JUMPDEST PUSH1 0x2 SLOAD DUP2 JUMP JUMPDEST PUSH1 0x2 SLOAD CALLVALUE GT PUSH2 0x6E7 JUMPI PUSH0 DUP1 REVERT JUMPDEST PUSH1 0x1 PUSH1 0x3 PUSH0 CALLER PUSH20 0xFFFFFFFFFFFFFFFFFFFFFFFFFFFFFFFFFFFFFFFF AND PUSH20 0xFFFFFFFFFFFFFFFFFFFFFFFFFFFFFFFFFFFFFFFF AND DUP2 MSTORE PUSH1 0x20 ADD SWAP1 DUP2 MSTORE PUSH1 0x20 ADD PUSH0 KECCAK256 PUSH0 PUSH2 0x100 EXP DUP2 SLOAD DUP2 PUSH1 0xFF MUL NOT AND SWAP1 DUP4 ISZERO ISZERO MUL OR SWAP1 SSTORE POP PUSH1 0x4 PUSH0 DUP2 SLOAD DUP1 SWAP3 SWAP2 SWAP1 PUSH2 0x74E SWAP1 PUSH2 0x1084 JUMP JUMPDEST SWAP2 SWAP1 POP SSTORE POP JUMP JUMPDEST PUSH0 DUP1 DUP3 DUP2 SLOAD DUP2 LT PUSH2 0x769 JUMPI PUSH2 0x768 PUSH2 0xD04 JUMP JUMPDEST JUMPDEST SWAP1 PUSH0 MSTORE PUSH1 0x20 PUSH0 KECCAK256 SWAP1 PUSH1 0x5 MUL ADD SWAP1 POP PUSH1 0x3 PUSH0 CALLER PUSH20 0xFFFFFFFFFFFFFFFFFFFFFFFFFFFFFFFFFFFFFFFF AND PUSH20 0xFFFFFFFFFFFFFFFFFFFFFFFFFFFFFFFFFFFFFFFF AND DUP2 MSTORE PUSH1 0x20 ADD SWAP1 DUP2 MSTORE PUSH1 0x20 ADD PUSH0 KECCAK256 PUSH0 SWAP1 SLOAD SWAP1 PUSH2 0x100 EXP SWAP1 DIV PUSH1 0xFF AND PUSH2 0x7C9 JUMPI PUSH0 DUP1 REVERT JUMPDEST DUP1 PUSH1 0x4 ADD PUSH0 CALLER PUSH20 0xFFFFFFFFFFFFFFFFFFFFFFFFFFFFFFFFFFFFFFFF AND PUSH20 0xFFFFFFFFFFFFFFFFFFFFFFFFFFFFFFFFFFFFFFFF AND DUP2 MSTORE PUSH1 0x20 ADD SWAP1 DUP2 MSTORE PUSH1 0x20 ADD PUSH0 KECCAK256 PUSH0 SWAP1 SLOAD SWAP1 PUSH2 0x100 EXP SWAP1 DIV PUSH1 0xFF AND ISZERO PUSH2 0x81E JUMPI PUSH0 DUP1 REVERT JUMPDEST PUSH1 0x1 DUP2 PUSH1 0x4 ADD PUSH0 CALLER PUSH20 0xFFFFFFFFFFFFFFFFFFFFFFFFFFFFFFFFFFFFFFFF AND PUSH20 0xFFFFFFFFFFFFFFFFFFFFFFFFFFFFFFFFFFFFFFFF AND DUP2 MSTORE PUSH1 0x20 ADD SWAP1 DUP2 MSTORE PUSH1 0x20 ADD PUSH0 KECCAK256 PUSH0 PUSH2 0x100 EXP DUP2 SLOAD DUP2 PUSH1 0xFF MUL NOT AND SWAP1 DUP4 ISZERO ISZERO MUL OR SWAP1 SSTORE POP DUP1 PUSH1 0x3 ADD PUSH0 DUP2 SLOAD DUP1 SWAP3 SWAP2 SWAP1 PUSH2 0x889 SWAP1 PUSH2 0x1084 JUMP JUMPDEST SWAP2 SWAP1 POP SSTORE POP POP POP JUMP JUMPDEST PUSH0 PUSH1 0x40 MLOAD SWAP1 POP SWAP1 JUMP JUMPDEST PUSH0 DUP1 REVERT JUMPDEST PUSH0 DUP1 REVERT JUMPDEST PUSH0 DUP2 SWAP1 POP SWAP2 SWAP1 POP JUMP JUMPDEST PUSH2 0x8B5 DUP2 PUSH2 0x8A3 JUMP JUMPDEST DUP2 EQ PUSH2 0x8BF JUMPI PUSH0 DUP1 REVERT JUMPDEST POP JUMP JUMPDEST PUSH0 DUP2 CALLDATALOAD SWAP1 POP PUSH2 0x8D0 DUP2 PUSH2 0x8AC JUMP JUMPDEST SWAP3 SWAP2 POP POP JUMP JUMPDEST PUSH0 PUSH1 0x20 DUP3 DUP5 SUB SLT ISZERO PUSH2 0x8EB JUMPI PUSH2 0x8EA PUSH2 0x89B JUMP JUMPDEST JUMPDEST PUSH0 PUSH2 0x8F8 DUP5 DUP3 DUP6 ADD PUSH2 0x8C2 JUMP JUMPDEST SWAP2 POP POP SWAP3 SWAP2 POP POP JUMP JUMPDEST PUSH0 PUSH20 0xFFFFFFFFFFFFFFFFFFFFFFFFFFFFFFFFFFFFFFFF DUP3 AND SWAP1 POP SWAP2 SWAP1 POP JUMP JUMPDEST PUSH0 PUSH2 0x92A DUP3 PUSH2 0x901 JUMP JUMPDEST SWAP1 POP SWAP2 SWAP1 POP JUMP JUMPDEST PUSH2 0x93A DUP2 PUSH2 0x920 JUMP JUMPDEST DUP2 EQ PUSH2 0x944 JUMPI PUSH0 DUP1 REVERT JUMPDEST POP JUMP JUMPDEST PUSH0 DUP2 CALLDATALOAD SWAP1 POP PUSH2 0x955 DUP2 PUSH2 0x931 JUMP JUMPDEST SWAP3 SWAP2 POP POP JUMP JUMPDEST PUSH0 PUSH1 0x20 DUP3 DUP5 SUB SLT ISZERO PUSH2 0x970 JUMPI PUSH2 0x96F PUSH2 0x89B JUMP JUMPDEST JUMPDEST PUSH0 PUSH2 0x97D DUP5 DUP3 DUP6 ADD PUSH2 0x947 JUMP JUMPDEST SWAP2 POP POP SWAP3 SWAP2 POP POP JUMP JUMPDEST PUSH0 DUP2 ISZERO ISZERO SWAP1 POP SWAP2 SWAP1 POP JUMP JUMPDEST PUSH2 0x99A DUP2 PUSH2 0x986 JUMP JUMPDEST DUP3 MSTORE POP POP JUMP JUMPDEST PUSH0 PUSH1 0x20 DUP3 ADD SWAP1 POP PUSH2 0x9B3 PUSH0 DUP4 ADD DUP5 PUSH2 0x991 JUMP JUMPDEST SWAP3 SWAP2 POP POP JUMP JUMPDEST PUSH2 0x9C2 DUP2 PUSH2 0x8A3 JUMP JUMPDEST DUP3 MSTORE POP POP JUMP JUMPDEST PUSH0 PUSH1 0x20 DUP3 ADD SWAP1 POP PUSH2 0x9DB PUSH0 DUP4 ADD DUP5 PUSH2 0x9B9 JUMP JUMPDEST SWAP3 SWAP2 POP POP JUMP JUMPDEST PUSH2 0x9EA DUP2 PUSH2 0x920 JUMP JUMPDEST DUP3 MSTORE POP POP JUMP JUMPDEST PUSH0 PUSH1 0xA0 DUP3 ADD SWAP1 POP PUSH2 0xA03 PUSH0 DUP4 ADD DUP9 PUSH2 0x9B9 JUMP JUMPDEST PUSH2 0xA10 PUSH1 0x20 DUP4 ADD DUP8 PUSH2 0x9B9 JUMP JUMPDEST PUSH2 0xA1D PUSH1 0x40 DUP4 ADD DUP7 PUSH2 0x9B9 JUMP JUMPDEST PUSH2 0xA2A PUSH1 0x60 DUP4 ADD DUP6 PUSH2 0x9B9 JUMP JUMPDEST PUSH2 0xA37 PUSH1 0x80 DUP4 ADD DUP5 PUSH2 0x9E1 JUMP JUMPDEST SWAP7 SWAP6 POP POP POP POP POP POP JUMP JUMPDEST PUSH0 PUSH1 0x20 DUP3 ADD SWAP1 POP PUSH2 0xA54 PUSH0 DUP4 ADD DUP5 PUSH2 0x9E1 JUMP JUMPDEST SWAP3 SWAP2 POP POP JUMP JUMPDEST PUSH0 DUP2 MLOAD SWAP1 POP SWAP2 SWAP1 POP JUMP JUMPDEST PUSH0 DUP3 DUP3 MSTORE PUSH1 0x20 DUP3 ADD SWAP1 POP SWAP3 SWAP2 POP POP JUMP JUMPDEST DUP3 DUP2 DUP4 MCOPY PUSH0 DUP4 DUP4 ADD MSTORE POP POP POP JUMP JUMPDEST PUSH0 PUSH1 0x1F NOT PUSH1 0x1F DUP4 ADD AND SWAP1 POP SWAP2 SWAP1 POP JUMP JUMPDEST PUSH0 PUSH2 0xA9C DUP3 PUSH2 0xA5A JUMP JUMPDEST PUSH2 0xAA6 DUP2 DUP6 PUSH2 0xA64 JUMP JUMPDEST SWAP4 POP PUSH2 0xAB6 DUP2 DUP6 PUSH1 0x20 DUP7 ADD PUSH2 0xA74 JUMP JUMPDEST PUSH2 0xABF DUP2 PUSH2 0xA82 JUMP JUMPDEST DUP5 ADD SWAP2 POP POP SWAP3 SWAP2 POP POP JUMP JUMPDEST PUSH0 PUSH2 0xAD4 DUP3 PUSH2 0x901 JUMP JUMPDEST SWAP1 POP SWAP2 SWAP1 POP JUMP JUMPDEST PUSH2 0xAE4 DUP2 PUSH2 0xACA JUMP JUMPDEST DUP3 MSTORE POP POP JUMP JUMPDEST PUSH0 PUSH1 0xA0 DUP3 ADD SWAP1 POP DUP2 DUP2 SUB PUSH0 DUP4 ADD MSTORE PUSH2 0xB02 DUP2 DUP9 PUSH2 0xA92 JUMP JUMPDEST SWAP1 POP PUSH2 0xB11 PUSH1 0x20 DUP4 ADD DUP8 PUSH2 0x9B9 JUMP JUMPDEST PUSH2 0xB1E PUSH1 0x40 DUP4 ADD DUP7 PUSH2 0xADB JUMP JUMPDEST PUSH2 0xB2B PUSH1 0x60 DUP4 ADD DUP6 PUSH2 0x991 JUMP JUMPDEST PUSH2 0xB38 PUSH1 0x80 DUP4 ADD DUP5 PUSH2 0x9B9 JUMP JUMPDEST SWAP7 SWAP6 POP POP POP POP POP POP JUMP JUMPDEST PUSH0 DUP1 REVERT JUMPDEST PUSH0 DUP1 REVERT JUMPDEST PUSH32 0x4E487B7100000000000000000000000000000000000000000000000000000000 PUSH0 MSTORE PUSH1 0x41 PUSH1 0x4 MSTORE PUSH1 0x24 PUSH0 REVERT JUMPDEST PUSH2 0xB80 DUP3 PUSH2 0xA82 JUMP JUMPDEST DUP2 ADD DUP2 DUP2 LT PUSH8 0xFFFFFFFFFFFFFFFF DUP3 GT OR ISZERO PUSH2 0xB9F JUMPI PUSH2 0xB9E PUSH2 0xB4A JUMP JUMPDEST JUMPDEST DUP1 PUSH1 0x40 MSTORE POP POP POP JUMP JUMPDEST PUSH0 PUSH2 0xBB1 PUSH2 0x892 JUMP JUMPDEST SWAP1 POP PUSH2 0xBBD DUP3 DUP3 PUSH2 0xB77 JUMP JUMPDEST SWAP2 SWAP1 POP JUMP JUMPDEST PUSH0 PUSH8 0xFFFFFFFFFFFFFFFF DUP3 GT ISZERO PUSH2 0xBDC JUMPI PUSH2 0xBDB PUSH2 0xB4A JUMP JUMPDEST JUMPDEST PUSH2 0xBE5 DUP3 PUSH2 0xA82 JUMP JUMPDEST SWAP1 POP PUSH1 0x20 DUP2 ADD SWAP1 POP SWAP2 SWAP1 POP JUMP JUMPDEST DUP3 DUP2 DUP4 CALLDATACOPY PUSH0 DUP4 DUP4 ADD MSTORE POP POP POP JUMP JUMPDEST PUSH0 PUSH2 0xC12 PUSH2 0xC0D DUP5 PUSH2 0xBC2 JUMP JUMPDEST PUSH2 0xBA8 JUMP JUMPDEST SWAP1 POP DUP3 DUP2 MSTORE PUSH1 0x20 DUP2 ADD DUP5 DUP5 DUP5 ADD GT ISZERO PUSH2 0xC2E JUMPI PUSH2 0xC2D PUSH2 0xB46 JUMP JUMPDEST JUMPDEST PUSH2 0xC39 DUP5 DUP3 DUP6 PUSH2 0xBF2 JUMP JUMPDEST POP SWAP4 SWAP3 POP POP POP JUMP JUMPDEST PUSH0 DUP3 PUSH1 0x1F DUP4 ADD SLT PUSH2 0xC55 JUMPI PUSH2 0xC54 PUSH2 0xB42 JUMP JUMPDEST JUMPDEST DUP2 CALLDATALOAD PUSH2 0xC65 DUP5 DUP3 PUSH1 0x20 DUP7 ADD PUSH2 0xC00 JUMP JUMPDEST SWAP2 POP POP SWAP3 SWAP2 POP POP JUMP JUMPDEST PUSH2 0xC77 DUP2 PUSH2 0xACA JUMP JUMPDEST DUP2 EQ PUSH2 0xC81 JUMPI PUSH0 DUP1 REVERT JUMPDEST POP JUMP JUMPDEST PUSH0 DUP2 CALLDATALOAD SWAP1 POP PUSH2 0xC92 DUP2 PUSH2 0xC6E JUMP JUMPDEST SWAP3 SWAP2 POP POP JUMP JUMPDEST PUSH0 DUP1 PUSH0 PUSH1 0x60 DUP5 DUP7 SUB SLT ISZERO PUSH2 0xCAF JUMPI PUSH2 0xCAE PUSH2 0x89B JUMP JUMPDEST JUMPDEST PUSH0 DUP5 ADD CALLDATALOAD PUSH8 0xFFFFFFFFFFFFFFFF DUP2 GT ISZERO PUSH2 0xCCC JUMPI PUSH2 0xCCB PUSH2 0x89F JUMP JUMPDEST JUMPDEST PUSH2 0xCD8 DUP7 DUP3 DUP8 ADD PUSH2 0xC41 JUMP JUMPDEST SWAP4 POP POP PUSH1 0x20 PUSH2 0xCE9 DUP7 DUP3 DUP8 ADD PUSH2 0x8C2 JUMP JUMPDEST SWAP3 POP POP PUSH1 0x40 PUSH2 0xCFA DUP7 DUP3 DUP8 ADD PUSH2 0xC84 JUMP JUMPDEST SWAP2 POP POP SWAP3 POP SWAP3 POP SWAP3 JUMP JUMPDEST PUSH32 0x4E487B7100000000000000000000000000000000000000000000000000000000 PUSH0 MSTORE PUSH1 0x32 PUSH1 0x4 MSTORE PUSH1 0x24 PUSH0 REVERT JUMPDEST PUSH32 0x4E487B7100000000000000000000000000000000000000000000000000000000 PUSH0 MSTORE PUSH1 0x12 PUSH1 0x4 MSTORE PUSH1 0x24 PUSH0 REVERT JUMPDEST PUSH32 0x4E487B7100000000000000000000000000000000000000000000000000000000 PUSH0 MSTORE PUSH1 0x11 PUSH1 0x4 MSTORE PUSH1 0x24 PUSH0 REVERT JUMPDEST PUSH0 PUSH2 0xD95 DUP3 PUSH2 0x8A3 JUMP JUMPDEST SWAP2 POP PUSH2 0xDA0 DUP4 PUSH2 0x8A3 JUMP JUMPDEST SWAP3 POP DUP3 PUSH2 0xDB0 JUMPI PUSH2 0xDAF PUSH2 0xD31 JUMP JUMPDEST JUMPDEST DUP3 DUP3 DIV SWAP1 POP SWAP3 SWAP2 POP POP JUMP JUMPDEST PUSH32 0x4E487B7100000000000000000000000000000000000000000000000000000000 PUSH0 MSTORE PUSH1 0x22 PUSH1 0x4 MSTORE PUSH1 0x24 PUSH0 REVERT JUMPDEST PUSH0 PUSH1 0x2 DUP3 DIV SWAP1 POP PUSH1 0x1 DUP3 AND DUP1 PUSH2 0xDFF JUMPI PUSH1 0x7F DUP3 AND SWAP2 POP JUMPDEST PUSH1 0x20 DUP3 LT DUP2 SUB PUSH2 0xE12 JUMPI PUSH2 0xE11 PUSH2 0xDBB JUMP JUMPDEST JUMPDEST POP SWAP2 SWAP1 POP JUMP JUMPDEST PUSH0 DUP2 SWAP1 POP DUP2 PUSH0 MSTORE PUSH1 0x20 PUSH0 KECCAK256 SWAP1 POP SWAP2 SWAP1 POP JUMP JUMPDEST PUSH0 PUSH1 0x20 PUSH1 0x1F DUP4 ADD DIV SWAP1 POP SWAP2 SWAP1 POP JUMP JUMPDEST PUSH0 DUP3 DUP3 SHL SWAP1 POP SWAP3 SWAP2 POP POP JUMP JUMPDEST PUSH0 PUSH1 0x8 DUP4 MUL PUSH2 0xE74 PUSH32 0xFFFFFFFFFFFFFFFFFFFFFFFFFFFFFFFFFFFFFFFFFFFFFFFFFFFFFFFFFFFFFFFF DUP3 PUSH2 0xE39 JUMP JUMPDEST PUSH2 0xE7E DUP7 DUP4 PUSH2 0xE39 JUMP JUMPDEST SWAP6 POP DUP1 NOT DUP5 AND SWAP4 POP DUP1 DUP7 AND DUP5 OR SWAP3 POP POP POP SWAP4 SWAP3 POP POP POP JUMP JUMPDEST PUSH0 DUP2 SWAP1 POP SWAP2 SWAP1 POP JUMP JUMPDEST PUSH0 PUSH2 0xEB9 PUSH2 0xEB4 PUSH2 0xEAF DUP5 PUSH2 0x8A3 JUMP JUMPDEST PUSH2 0xE96 JUMP JUMPDEST PUSH2 0x8A3 JUMP JUMPDEST SWAP1 POP SWAP2 SWAP1 POP JUMP JUMPDEST PUSH0 DUP2 SWAP1 POP SWAP2 SWAP1 POP JUMP JUMPDEST PUSH2 0xED2 DUP4 PUSH2 0xE9F JUMP JUMPDEST PUSH2 0xEE6 PUSH2 0xEDE DUP3 PUSH2 0xEC0 JUMP JUMPDEST DUP5 DUP5 SLOAD PUSH2 0xE45 JUMP JUMPDEST DUP3 SSTORE POP POP POP POP JUMP JUMPDEST PUSH0 SWAP1 JUMP JUMPDEST PUSH2 0xEFA PUSH2 0xEEE JUMP JUMPDEST PUSH2 0xF05 DUP2 DUP5 DUP5 PUSH2 0xEC9 JUMP JUMPDEST POP POP POP JUMP JUMPDEST JUMPDEST DUP2 DUP2 LT ISZERO PUSH2 0xF28 JUMPI PUSH2 0xF1D PUSH0 DUP3 PUSH2 0xEF2 JUMP JUMPDEST PUSH1 0x1 DUP2 ADD SWAP1 POP PUSH2 0xF0B JUMP JUMPDEST POP POP JUMP JUMPDEST PUSH1 0x1F DUP3 GT ISZERO PUSH2 0xF6D JUMPI PUSH2 0xF3E DUP2 PUSH2 0xE18 JUMP JUMPDEST PUSH2 0xF47 DUP5 PUSH2 0xE2A JUMP JUMPDEST DUP2 ADD PUSH1 0x20 DUP6 LT ISZERO PUSH2 0xF56 JUMPI DUP2 SWAP1 POP JUMPDEST PUSH2 0xF6A PUSH2 0xF62 DUP6 PUSH2 0xE2A JUMP JUMPDEST DUP4 ADD DUP3 PUSH2 0xF0A JUMP JUMPDEST POP POP JUMPDEST POP POP POP JUMP JUMPDEST PUSH0 DUP3 DUP3 SHR SWAP1 POP SWAP3 SWAP2 POP POP JUMP JUMPDEST PUSH0 PUSH2 0xF8D PUSH0 NOT DUP5 PUSH1 0x8 MUL PUSH2 0xF72 JUMP JUMPDEST NOT DUP1 DUP4 AND SWAP2 POP POP SWAP3 SWAP2 POP POP JUMP JUMPDEST PUSH0 PUSH2 0xFA5 DUP4 DUP4 PUSH2 0xF7E JUMP JUMPDEST SWAP2 POP DUP3 PUSH1 0x2 MUL DUP3 OR SWAP1 POP SWAP3 SWAP2 POP POP JUMP JUMPDEST PUSH2 0xFBE DUP3 PUSH2 0xA5A JUMP JUMPDEST PUSH8 0xFFFFFFFFFFFFFFFF DUP2 GT ISZERO PUSH2 0xFD7 JUMPI PUSH2 0xFD6 PUSH2 0xB4A JUMP JUMPDEST JUMPDEST PUSH2 0xFE1 DUP3 SLOAD PUSH2 0xDE8 JUMP JUMPDEST PUSH2 0xFEC DUP3 DUP3 DUP6 PUSH2 0xF2C JUMP JUMPDEST PUSH0 PUSH1 0x20 SWAP1 POP PUSH1 0x1F DUP4 GT PUSH1 0x1 DUP2 EQ PUSH2 0x101D JUMPI PUSH0 DUP5 ISZERO PUSH2 0x100B JUMPI DUP3 DUP8 ADD MLOAD SWAP1 POP JUMPDEST PUSH2 0x1015 DUP6 DUP3 PUSH2 0xF9A JUMP JUMPDEST DUP7 SSTORE POP PUSH2 0x107C JUMP JUMPDEST PUSH1 0x1F NOT DUP5 AND PUSH2 0x102B DUP7 PUSH2 0xE18 JUMP JUMPDEST PUSH0 JUMPDEST DUP3 DUP2 LT ISZERO PUSH2 0x1052 JUMPI DUP5 DUP10 ADD MLOAD DUP3 SSTORE PUSH1 0x1 DUP3 ADD SWAP2 POP PUSH1 0x20 DUP6 ADD SWAP5 POP PUSH1 0x20 DUP2 ADD SWAP1 POP PUSH2 0x102D JUMP JUMPDEST DUP7 DUP4 LT ISZERO PUSH2 0x106F JUMPI DUP5 DUP10 ADD MLOAD PUSH2 0x106B PUSH1 0x1F DUP10 AND DUP3 PUSH2 0xF7E JUMP JUMPDEST DUP4 SSTORE POP JUMPDEST PUSH1 0x1 PUSH1 0x2 DUP9 MUL ADD DUP9 SSTORE POP POP POP JUMPDEST POP POP POP POP POP POP JUMP JUMPDEST PUSH0 PUSH2 0x108E DUP3 PUSH2 0x8A3 JUMP JUMPDEST SWAP2 POP PUSH32 0xFFFFFFFFFFFFFFFFFFFFFFFFFFFFFFFFFFFFFFFFFFFFFFFFFFFFFFFFFFFFFFFF DUP3 SUB PUSH2 0x10C0 JUMPI PUSH2 0x10BF PUSH2 0xD5E JUMP JUMPDEST JUMPDEST PUSH1 0x1 DUP3 ADD SWAP1 POP SWAP2 SWAP1 POP JUMP INVALID LOG2 PUSH5 0x6970667358 0x22 SLT KECCAK256 ADDMOD CALLER SWAP3 0xB2 DUP15 0xE8 PUSH30 0x3EF388F6907643585955EFDEEBFC7C546C7B29D2A5C0A29CFE64736F6C63 NUMBER STOP ADDMOD NOT STOP CALLER LOG2 PUSH5 0x6970667358 0x22 SLT KECCAK256 DUP10 PUSH12 0x88CDDED7F1A42D20AD26A825 LOG2 PUSH29 0x5C21C68C1E4C9B01E8E82ED280817A5764736F6C634300081900330000 "
    },
    "gasEstimates": {
      "creation": {
        "codeDepositCost": "1148800",
        "executionCost": "1192",
        "totalCost": "1149992"
      },
      "external": {
        "createCrowdfunding(uint256)": "infinite",
        "deployedCrowdfundings(uint256)": "4921",
        "getDeployedCrowdfundings()": "infinite"
      }
    },
    "methodIdentifiers": {
      "createCrowdfunding(uint256)": "cb641dec",
      "deployedCrowdfundings(uint256)": "b25c43db",
      "getDeployedCrowdfundings()": "f42f58f8"
    }
  },
  "storageLayout": {
    "storage": [
      {
        "astId": 4,
        "contract": "Crowdfunding.sol:CrowdfundingFactory",
        "label": "deployedCrowdfundings",
        "offset": 0,
        "slot": "0",
        "type": "t_array(t_address)dyn_storage"
      }
    ],
    "types": {
      "t_address": {
        "encoding": "inplace",
        "label": "address",
        "numberOfBytes": "20"
      },
      "t_array(t_address)dyn_storage": {
        "base": "t_address",
        "encoding": "dynamic_array",
        "label": "address[]",
        "numberOfBytes": "32"
      }
    }
  },
  "userdoc": {
    "kind": "user",
    "methods": {},
    "version": 1
  }
}